{"abi":[{"type":"constructor","inputs":[{"name":"minter_","type":"address","internalType":"address"},{"name":"controller_","type":"address","internalType":"address"},{"name":"dev_","type":"address","internalType":"address"},{"name":"feeAddr_","type":"address","internalType":"address"},{"name":"usdc_","type":"address","internalType":"address"}],"stateMutability":"nonpayable"},{"type":"function","name":"addBetToCreatorNFT","inputs":[{"name":"tokenId_","type":"uint256","internalType":"uint256"},{"name":"betId_","type":"uint256","internalType":"uint256"}],"outputs":[],"stateMutability":"nonpayable"},{"type":"function","name":"approve","inputs":[{"name":"to","type":"address","internalType":"address"},{"name":"tokenId","type":"uint256","internalType":"uint256"}],"outputs":[],"stateMutability":"nonpayable"},{"type":"function","name":"baseURI","inputs":[],"outputs":[{"name":"","type":"string","internalType":"string"}],"stateMutability":"view"},{"type":"function","name":"betFactoryList","inputs":[{"name":"","type":"address","internalType":"address"}],"outputs":[{"name":"","type":"bool","internalType":"bool"}],"stateMutability":"view"},{"type":"function","name":"controller","inputs":[],"outputs":[{"name":"","type":"address","internalType":"address"}],"stateMutability":"view"},{"type":"function","name":"createBetDeposit","inputs":[],"outputs":[{"name":"","type":"uint256","internalType":"uint256"}],"stateMutability":"view"},{"type":"function","name":"createMint","inputs":[{"name":"to_","type":"address","internalType":"address"}],"outputs":[{"name":"tokenId","type":"uint256","internalType":"uint256"}],"stateMutability":"nonpayable"},{"type":"function","name":"creatorFeeCap","inputs":[{"name":"tokenId_","type":"uint256","internalType":"uint256"}],"outputs":[{"name":"","type":"uint256","internalType":"uint256"}],"stateMutability":"view"},{"type":"function","name":"creatorProfile","inputs":[{"name":"","type":"uint256","internalType":"uint256"}],"outputs":[{"name":"feeCap","type":"uint256","internalType":"uint256"},{"name":"totalBetDeposit","type":"uint256","internalType":"uint256"},{"name":"completeBetCount","type":"uint256","internalType":"uint256"},{"name":"nullBetCount","type":"uint256","internalType":"uint256"},{"name":"rank","type":"uint256","internalType":"uint256"},{"name":"publicMintNFTFloor","type":"uint256","internalType":"uint256"}],"stateMutability":"view"},{"type":"function","name":"creatorToId","inputs":[{"name":"","type":"address","internalType":"address"}],"outputs":[{"name":"","type":"uint256","internalType":"uint256"}],"stateMutability":"view"},{"type":"function","name":"dev","inputs":[],"outputs":[{"name":"","type":"address","internalType":"address"}],"stateMutability":"view"},{"type":"function","name":"feeAddr","inputs":[],"outputs":[{"name":"","type":"address","internalType":"address"}],"stateMutability":"view"},{"type":"function","name":"getApproved","inputs":[{"name":"tokenId","type":"uint256","internalType":"uint256"}],"outputs":[{"name":"operator","type":"address","internalType":"address"}],"stateMutability":"view"},{"type":"function","name":"getCreatorProfile","inputs":[{"name":"tokenId","type":"uint256","internalType":"uint256"}],"outputs":[{"name":"feeCap","type":"uint256","internalType":"uint256"},{"name":"betIdArray","type":"uint256[]","internalType":"uint256[]"},{"name":"totalBetDeposit","type":"uint256","internalType":"uint256"},{"name":"completeBetCount","type":"uint256","internalType":"uint256"},{"name":"nullBetCount","type":"uint256","internalType":"uint256"},{"name":"rank","type":"uint256","internalType":"uint256"},{"name":"publicMintNFTFloor","type":"uint256","internalType":"uint256"}],"stateMutability":"view"},{"type":"function","name":"idToCreator","inputs":[{"name":"","type":"uint256","internalType":"uint256"}],"outputs":[{"name":"","type":"address","internalType":"address"}],"stateMutability":"view"},{"type":"function","name":"minter","inputs":[],"outputs":[{"name":"","type":"address","internalType":"address"}],"stateMutability":"view"},{"type":"function","name":"name","inputs":[],"outputs":[{"name":"","type":"string","internalType":"string"}],"stateMutability":"view"},{"type":"function","name":"safeTransferFrom","inputs":[{"name":"from","type":"address","internalType":"address"},{"name":"to","type":"address","internalType":"address"},{"name":"tokenId","type":"uint256","internalType":"uint256"}],"outputs":[],"stateMutability":"nonpayable"},{"type":"function","name":"safeTransferFrom","inputs":[{"name":"from","type":"address","internalType":"address"},{"name":"to","type":"address","internalType":"address"},{"name":"tokenId","type":"uint256","internalType":"uint256"},{"name":"data","type":"bytes","internalType":"bytes"}],"outputs":[],"stateMutability":"nonpayable"},{"type":"function","name":"setBaseURI","inputs":[{"name":"baseURI_","type":"string","internalType":"string"}],"outputs":[],"stateMutability":"nonpayable"},{"type":"function","name":"setBetFactory","inputs":[{"name":"betFactoryAddr_","type":"address","internalType":"address"},{"name":"allowed_","type":"bool","internalType":"bool"}],"outputs":[],"stateMutability":"nonpayable"},{"type":"function","name":"setController","inputs":[{"name":"controller_","type":"address","internalType":"address"}],"outputs":[],"stateMutability":"nonpayable"},{"type":"function","name":"setCreateBetDeposit","inputs":[{"name":"betDeposit_","type":"uint256","internalType":"uint256"}],"outputs":[],"stateMutability":"nonpayable"},{"type":"function","name":"setDev","inputs":[{"name":"dev_","type":"address","internalType":"address"}],"outputs":[],"stateMutability":"nonpayable"},{"type":"function","name":"setFeeAddr","inputs":[{"name":"feeAddr_","type":"address","internalType":"address"}],"outputs":[],"stateMutability":"nonpayable"},{"type":"function","name":"setMinter","inputs":[{"name":"minter_","type":"address","internalType":"address"}],"outputs":[],"stateMutability":"nonpayable"},{"type":"function","name":"supportsInterface","inputs":[{"name":"interfaceId","type":"bytes4","internalType":"bytes4"}],"outputs":[{"name":"result","type":"bool","internalType":"bool"}],"stateMutability":"view"},{"type":"function","name":"symbol","inputs":[],"outputs":[{"name":"","type":"string","internalType":"string"}],"stateMutability":"view"},{"type":"function","name":"tokenApprovals","inputs":[{"name":"","type":"uint256","internalType":"uint256"}],"outputs":[{"name":"","type":"address","internalType":"address"}],"stateMutability":"view"},{"type":"function","name":"tokenURI","inputs":[{"name":"tokenId","type":"uint256","internalType":"uint256"}],"outputs":[{"name":"","type":"string","internalType":"string"}],"stateMutability":"view"},{"type":"function","name":"totalMinted","inputs":[],"outputs":[{"name":"","type":"uint256","internalType":"uint256"}],"stateMutability":"view"},{"type":"function","name":"totalSupply","inputs":[],"outputs":[{"name":"","type":"uint256","internalType":"uint256"}],"stateMutability":"view"},{"type":"function","name":"transferFrom","inputs":[{"name":"from","type":"address","internalType":"address"},{"name":"to","type":"address","internalType":"address"},{"name":"tokenId","type":"uint256","internalType":"uint256"}],"outputs":[],"stateMutability":"nonpayable"},{"type":"function","name":"usdc","inputs":[],"outputs":[{"name":"","type":"address","internalType":"contract IERC20"}],"stateMutability":"view"},{"type":"event","name":"Approval","inputs":[{"name":"owner","type":"address","indexed":true,"internalType":"address"},{"name":"approved","type":"address","indexed":true,"internalType":"address"},{"name":"tokenId","type":"uint256","indexed":true,"internalType":"uint256"}],"anonymous":false},{"type":"event","name":"Transfer","inputs":[{"name":"from","type":"address","indexed":true,"internalType":"address"},{"name":"to","type":"address","indexed":true,"internalType":"address"},{"name":"tokenId","type":"uint256","indexed":true,"internalType":"uint256"}],"anonymous":false}],"bytecode":{"object":"0x608034620003de57601f601f196001600160401b0362001e9d3881900384810184168601919083831187841017620003ca5780879260a094604052833981010312620003de57620000508462000402565b936020926200006184830162000402565b92620000706040840162000402565b956200008d6080620000856060870162000402565b950162000402565b9562000098620003e2565b936012855271109bdb99195c958c50dc99585d1bdc93919560721b82860152620000c1620003e2565b91600e83526d43726561746f722d4e46542d563160901b81840152855191858311620003ca575f928354976001988981811c91168015620003bf575b85821014620003ab5790818884931162000358575b508490888311600114620002f8578692620002ec575b50505f19600383901b1c191690881b1783555b8351958611620002d85786548781811c91168015620002cd575b83821014620002b957908186889796959493116200025e575b5081948611600114620001fb57505092620001ef575b50505f19600383901b1c191690821b1790555b60018060a01b0380948180948160018060a01b03199916896008541617600855168760095416176009551685600a541617600a551683600b541617600b551690600c541617600c55604051611a859081620004188239f35b015190505f8062000184565b8783528183208897909594939116915b8282106200024457505084116200022b575b505050811b01905562000197565b01515f1960f88460031b161c191690555f80806200021d565b84840151865588979095019493840193908101906200020b565b909192939495508784528284208680890160051c820192858a10620002af575b9189988b929897969594930160051c01915b828110620002a05750506200016e565b8581558998508a910162000290565b925081926200027e565b634e487b7160e01b84526022600452602484fd5b90607f169062000155565b634e487b7160e01b83526041600452602483fd5b015190505f8062000128565b90848b94169187805286882092885b8882821062000341575050841162000328575b505050811b0183556200013b565b01515f1960f88460031b161c191690555f80806200031a565b8385015186558e9790950194938401930162000307565b9091508580528486208880850160051c820192878610620003a1575b918c91869594930160051c01915b8281106200039257505062000112565b8881558594508c910162000382565b9250819262000374565b634e487b7160e01b86526022600452602486fd5b90607f1690620000fd565b634e487b7160e01b5f52604160045260245ffd5b5f80fd5b60408051919082016001600160401b03811183821017620003ca57604052565b51906001600160a01b0382168203620003de5756fe60806040526004361015610011575f80fd5b5f3560e01c806301ffc9a71461023457806306fdde031461022f578063075461721461022a578063081812fc14610225578063095ea7b3146102205780630d247dc41461021b57806318160ddd1461021657806323b872dd146102115780632bf22cd21461020c57806330815c731461020757806339a077561461020257806339e7fddc146101fd5780633e413bee146101f857806342842e0e146101f357806355f804b3146101ee57806356702dc0146101e957806368064f50146101e45780636c0360eb146101df578063773eeff8146101da5780637af60153146101d557806381e50320146101d057806391cca3db146101cb57806392eefe9b146101c657806395d89b41146101c1578063a2309ff8146101bc578063acdeb5b9146101b7578063b2855b4f146101b2578063b6a0fc4d146101ad578063b88d4fde146101a8578063c87b56dd146101a3578063d477f05f1461019e578063f77c479114610199578063f97c29b2146101945763fca3b5aa1461018f575f80fd5b611221565b6111e4565b6111bc565b611140565b610f9c565b610f31565b610eb0565b610e25565b610df3565b610dd6565b610d32565b610c9f565b610c77565b610bf7565b610b5e565b610ace565b610a3b565b610990565b6108cd565b6107c1565b610728565b610700565b6106d8565b6106a6565b610645565b61060d565b6105f4565b6105a2565b610585565b6104b1565b61046b565b610443565b610361565b34610281576020366003190112610281576004356001600160e01b0319811681036102815760209060e01c60405190635b5e139f8114906301ffc9a76380ac58cd82149114171715158152f35b5f80fd5b90600182811c921680156102b3575b602083101461029f57565b634e487b7160e01b5f52602260045260245ffd5b91607f1691610294565b634e487b7160e01b5f52604160045260245ffd5b6020810190811067ffffffffffffffff8211176102ed57604052565b6102bd565b90601f8019910116810190811067ffffffffffffffff8211176102ed57604052565b5f5b8381106103255750505f910152565b8181015183820152602001610316565b604091602082526103558151809281602086015260208686019101610314565b601f01601f1916010190565b34610281575f80600319360112610440576040519080805461038281610285565b8085529160019180831690811561041657506001146103bc575b6103b8856103ac818703826102f2565b60405191829182610335565b0390f35b80809450527f290decd9548b62a8d60345a988386fc84ba6bc95484008f6362f93160ef3e5635b8284106103fe5750505081016020016103ac826103b861039c565b805460208587018101919091529093019281016103e3565b8695506103b8969350602092506103ac94915060ff191682840152151560051b820101929361039c565b80fd5b34610281575f366003190112610281576008546040516001600160a01b039091168152602090f35b34610281576020366003190112610281576020610489600435611570565b6040516001600160a01b039091168152f35b600435906001600160a01b038216820361028157565b34610281576040366003190112610281576104ca61049b565b6024355f818152600560205260408120549092906001600160a01b03908116330361054a5782845260066020526040842080546001600160a01b0319166001600160a01b0384161790556005602052806040852054169116907f8c5be1e5ebec7d5bd14f71427d1e84f3dd0314c0f7b2291e5b200ac8c7c3b9258480a480f35b60405162461bcd60e51b815260206004820152601360248201527221b0b63632b91034b9903737ba1037bbb732b960691b6044820152606490fd5b34610281575f366003190112610281576020600d54604051908152f35b34610281575f366003190112610281576020600254604051908152f35b6060906003190112610281576001600160a01b0390600435828116810361028157916024359081168103610281579060443590565b346102815761060b610605366105bf565b9161162f565b005b34610281576020366003190112610281576001600160a01b0361062e61049b565b165f526004602052602060405f2054604051908152f35b34610281576020366003190112610281576004355f52600f60205260c060405f2080549060028101549060038101546004820154906006600584015493015493604051958652602086015260408501526060840152608083015260a0820152f35b34610281576020366003190112610281576004355f526005602052602060018060a01b0360405f205416604051908152f35b34610281575f36600319011261028157600b546040516001600160a01b039091168152602090f35b34610281575f36600319011261028157600c546040516001600160a01b039091168152602090f35b346102815761060b610739366105bf565b9060405192610747846102d1565b5f84526116fc565b6040519060e0820182811067ffffffffffffffff8211176102ed57604052565b67ffffffffffffffff81116102ed57601f01601f191660200190565b9291926107978261076f565b916107a560405193846102f2565b829481845281830111610281578281602093845f960137010152565b34610281576020806003193601126102815767ffffffffffffffff60043581811161028157366023820112156102815761080590369060248160040135910161078b565b9182519182116102ed576108238261081e600754610285565b611523565b80601f831160011461085c575081925f92610851575b50505f19600383901b1c191660019190911b17600755005b015190505f80610839565b90601f1983169361087b60075f525f80516020611a3083398151915290565b925f905b8682106108b5575050836001951061089d575b505050811b01600755005b01515f1960f88460031b161c191690555f8080610892565b8060018596829496860151815501950193019061087f565b34610281576020366003190112610281576108e661049b565b5f90338252600e602052610905600160ff6040852054161515146112a6565b600354906001820180921161098b576103b8926109258361097b936117ff565b5060405190610933826102d1565b80825261093e61074f565b9181835260208301528060408301528060608301528060808301528060a083015260c0820152610976835f52600f60205260405f2090565b61131c565b6040519081529081906020820190565b6112f2565b34610281576040366003190112610281576109a961049b565b6024358015158103610281576009546001600160a01b0390811633036109ea5761060b92165f52600e60205260405f209060ff801983541691151516179055565b60405162461bcd60e51b815260206004820152602360248201527f4f6e6c7920636f6e74726f6c6c65722063616e207365742062657420666163746044820152626f727960e81b6064820152608490fd5b34610281575f80600319360112610440576040519080600754610a5d81610285565b808552916001918083169081156104165750600114610a86576103b8856103ac818703826102f2565b9250600783525f80516020611a308339815191525b828410610ab65750505081016020016103ac826103b861039c565b80546020858701810191909152909301928101610a9b565b34610281576020366003190112610281576004355f52600f602052602060405f2054604051908152f35b939097959296949160e0850198855260209860e08a87015281518091528961010087019201995f5b828110610b4a5750505060c095969798509760408501526060840152608083015260a08201520152565b8b5184529a81019a92810192600101610b20565b3461028157602080600319360112610281576004355f52600f815260405f20908154600191828401936002810154600382015460048301549160066005850154940154946040519788828b5491828152019a5f52825f20925f905b828210610be2575050505050610bd6876103b897989903896102f2565b60405197889788610af8565b84548d529b8c019b9383019390830190610bb9565b34610281576040366003190112610281575f338152600e602052610c26600160ff6040842054161515146112a6565b6004358152600f60205260016040822001805490600160401b8210156102ed5760018201808255821015610c635782526024359060208320015580f35b634e487b7160e01b83526032600452602483fd5b34610281575f36600319011261028157600a546040516001600160a01b039091168152602090f35b3461028157602036600319011261028157610cb861049b565b600954906001600160a01b03908183163303610ce2576001600160a01b0319909216911617600955005b60405162461bcd60e51b815260206004820152602260248201527f4f6e6c7920636f6e74726f6c6c65722063616e2073657420636f6e74726f6c6c60448201526132b960f11b6064820152608490fd5b34610281575f806003193601126104405760405190806001805491610d5683610285565b808652928281169081156104165750600114610d7c576103b8856103ac818703826102f2565b92508083527fb10e2d527612073b26eecdfd717e6a320cf44b4afac2b0732d9fcbe2b7fa0cf65b828410610dbe5750505081016020016103ac826103b861039c565b80546020858701810191909152909301928101610da3565b34610281575f366003190112610281576020600354604051908152f35b34610281576020366003190112610281576004355f526006602052602060018060a01b0360405f205416604051908152f35b3461028157602036600319011261028157610e3e61049b565b600a546001600160a01b03919082163303610e6b57166001600160601b0360a01b600b541617600b555f80f35b60405162461bcd60e51b815260206004820152601860248201527f4f6e6c79206465762063616e20736574206665654164647200000000000000006044820152606490fd5b34610281576020366003190112610281576009546001600160a01b03163303610edb57600435600d55005b60405162461bcd60e51b815260206004820152602860248201527f4f6e6c7920636f6e74726f6c6c65722063616e207365742063726561746f722060448201526773657474696e677360c01b6064820152608490fd5b3461028157608036600319011261028157610f4a61049b565b6024356001600160a01b0381168103610281576064359167ffffffffffffffff8311610281573660238401121561028157610f9261060b93369060248160040135910161078b565b91604435916116fc565b34610281576020366003190112610281576004355f81815260056020526040812054909190610fd5906001600160a01b031615156113d2565b610fe0600754610285565b156111285780827a184f03e93ff9f4daa797ed6e38ed64bf6a1f010000000000000000828181101561111a575b50506d04ee2d6d415b85acef81000000008084101561110d575b50662386f26fc1000080841015611100575b506305f5e100808410156110f3575b50612710808410156110e6575b5060648310156110d8575b600a809310156110d0575b906021916001928161107f858094016114f1565b9650860101905b61109b575b505050506103ac6103b891611435565b5f19019083906f181899199a1a9b1b9c1cb0b131b232b360811b8282061a8353049182156110cb57919082611086565b61108b565b60010161106b565b916064600291049201611060565b600491930492015f611055565b600891930492015f611048565b601091930492015f611039565b602091930492015f611027565b049250604090505f8061100d565b506040516103b891611139826102d1565b81526103ac565b34610281576020366003190112610281576001600160a01b0361116161049b565b16803303611180576001600160601b0360a01b600a541617600a555f80f35b60405162461bcd60e51b815260206004820152601460248201527327b7363c903232bb1031b0b71039b2ba103232bb60611b6044820152606490fd5b34610281575f366003190112610281576009546040516001600160a01b039091168152602090f35b34610281576020366003190112610281576001600160a01b0361120561049b565b165f52600e602052602060ff60405f2054166040519015158152f35b34610281576020366003190112610281576001600160a01b0361124261049b565b16803303611261576001600160601b0360a01b60085416176008555f80f35b60405162461bcd60e51b815260206004820152601a60248201527f4f6e6c79206d696e7465722063616e20736574206d696e7465720000000000006044820152606490fd5b156112ad57565b60405162461bcd60e51b815260206004820152601b60248201527f43616c6c6572206973206e6f7420612062657420666163746f727900000000006044820152606490fd5b634e487b7160e01b5f52601160045260245ffd5b818110611311575050565b5f8155600101611306565b90805182556001808301602090818401519182519267ffffffffffffffff84116102ed57600160401b84116102ed57819083548585558086106113b7575b5001915f52805f20905f5b8481106113a65750505050505060c081604060069301516002850155606081015160038501556080810151600485015560a081015160058501550151910155565b835183820155928101928501611365565b6113cc90855f5286845f209182019101611306565b5f61135a565b156113d957565b60405162461bcd60e51b815260206004820152601c60248201527f546f6b656e206973206e6f74206f776e656420627920616e796f6e65000000006044820152606490fd5b9061143160209282815194859201610314565b0190565b9060405191825f60075461144881610285565b906001908181169081156114c9575060011461147e575b505061146e9061147c9361141e565b03601f1981018452836102f2565b565b60075f9081529192505f80516020611a308339815191525b8383106114ae5750505081016020018261146e61145f565b80546020848a01810191909152889550909201918101611496565b61146e94506020925061147c9693915060ff191682860152801515028401019181945061145f565b906114fb8261076f565b61150860405191826102f2565b8281528092611519601f199161076f565b0190602036910137565b90601f8211611530575050565b61147c9160075f525f80516020611a30833981519152906020601f840160051c83019310611566575b601f0160051c0190611306565b9091508190611559565b5f818152600560205260409020546001600160a01b03919061159590831615156113d2565b5f52600660205260405f20541690565b156115ac57565b606460405162461bcd60e51b815260206004820152602060248201527f43616c6c6572206973206e6f74206f776e6572206e6f7220617070726f7665646044820152fd5b156115f757565b60405162461bcd60e51b815260206004820152601060248201526f24b73b30b634b2103932b1b2b4bb32b960811b6044820152606490fd5b5f838152600560205260409020546001600160a01b03939291908416156116c0576116968461167b61147c9661166d875f52600560205260405f2090565b54166001600160a01b031690565b3314801561169b575b61168d906115a5565b831615156115f0565b611954565b5061168d336116b86116ac88611570565b6001600160a01b031690565b149050611684565b60405162461bcd60e51b8152602060048201526014602482015273151bdad95b88191bd95cc81b9bdd08195e1a5cdd60621b6044820152606490fd5b9060a46020939461170e86848661162f565b60405195869463150b7a028652338787015260018060a01b03166040860152606085015260808085015280518091818060a0880152611785575b505001905f601c8401915af115611777575b5163757a42ff60e11b0161176a57565b63d1a57ed65f526004601cfd5b3d1561175a573d5f823e3d90fd5b818760c08801920160045afa50805f611748565b156117a057565b60405162461bcd60e51b815260206004820152601b60248201527f4163636f756e7420616c726561647920686173206120746f6b656e00000000006044820152606490fd5b5f19811461098b5760010190565b801561098b575f190190565b90611822611815825f52600560205260405f2090565b546001600160a01b031690565b916001600160a01b03808416906118c8908261192e576001600160a01b0384165f90815260046020526040902061185b905b5415611799565b61186e6118696002546117e5565b600255565b61188161187c6003546117e5565b600355565b831692836118ef576118976118696002546117f3565b6118a9855f52600560205260405f2090565b80546001600160a01b0319166001600160a01b03909216919091179055565b7fddf252ad1be2c89b69c2b068fc378daa952ba7f163c4a11628f55a4df523b3ef5f80a490565b6001600160a01b0381165f90815260046020526040902061190f90611854565b6001600160a01b0381165f908152600460205260409020859055611897565b611937856119da565b6001600160a01b0386165f90815260046020526040812055611881565b5f838152600560205260409020549192916001600160a01b0390811691160361198357611980916117ff565b50565b60405162461bcd60e51b815260206004820152602960248201527f4552433732313a207472616e73666572206f6620746f6b656e2074686174206960448201526839903737ba1037bbb760b91b6064820152608490fd5b5f81815260066020908152604080832080546001600160a01b031916905560059091528120546001600160a01b03167f8c5be1e5ebec7d5bd14f71427d1e84f3dd0314c0f7b2291e5b200ac8c7c3b9258280a456fea66cc928b5edb82af9bd49922954155ab7b0942694bea4ce44661d9a8736c688a2646970667358221220923394cdfccdb68f77ddaeda5abe6109e95a94a96dfd8cf253de83b791d24ef764736f6c63430008140033","linkReferences":{}},"methodIdentifiers":{"addBetToCreatorNFT(uint256,uint256)":"81e50320","approve(address,uint256)":"095ea7b3","baseURI()":"6c0360eb","betFactoryList(address)":"f97c29b2","controller()":"f77c4791","createBetDeposit()":"0d247dc4","createMint(address)":"56702dc0","creatorFeeCap(uint256)":"773eeff8","creatorProfile(uint256)":"30815c73","creatorToId(address)":"2bf22cd2","dev()":"91cca3db","feeAddr()":"39e7fddc","getApproved(uint256)":"081812fc","getCreatorProfile(uint256)":"7af60153","idToCreator(uint256)":"39a07756","minter()":"07546172","name()":"06fdde03","safeTransferFrom(address,address,uint256)":"42842e0e","safeTransferFrom(address,address,uint256,bytes)":"b88d4fde","setBaseURI(string)":"55f804b3","setBetFactory(address,bool)":"68064f50","setController(address)":"92eefe9b","setCreateBetDeposit(uint256)":"b6a0fc4d","setDev(address)":"d477f05f","setFeeAddr(address)":"b2855b4f","setMinter(address)":"fca3b5aa","supportsInterface(bytes4)":"01ffc9a7","symbol()":"95d89b41","tokenApprovals(uint256)":"acdeb5b9","tokenURI(uint256)":"c87b56dd","totalMinted()":"a2309ff8","totalSupply()":"18160ddd","transferFrom(address,address,uint256)":"23b872dd","usdc()":"3e413bee"},"id":4}