{
  "abi": [
    {
      "inputs": [
        {
          "internalType": "address",
          "name": "_baseUSDCAddr",
          "type": "address"
        }
      ],
      "stateMutability": "nonpayable",
      "type": "constructor"
    },
    {
      "inputs": [
        {
          "internalType": "address",
          "name": "spender",
          "type": "address"
        },
        {
          "internalType": "uint256",
          "name": "allowance",
          "type": "uint256"
        },
        {
          "internalType": "uint256",
          "name": "needed",
          "type": "uint256"
        }
      ],
      "name": "ERC20InsufficientAllowance",
      "type": "error"
    },
    {
      "inputs": [
        {
          "internalType": "address",
          "name": "sender",
          "type": "address"
        },
        {
          "internalType": "uint256",
          "name": "balance",
          "type": "uint256"
        },
        {
          "internalType": "uint256",
          "name": "needed",
          "type": "uint256"
        }
      ],
      "name": "ERC20InsufficientBalance",
      "type": "error"
    },
    {
      "inputs": [
        {
          "internalType": "address",
          "name": "approver",
          "type": "address"
        }
      ],
      "name": "ERC20InvalidApprover",
      "type": "error"
    },
    {
      "inputs": [
        {
          "internalType": "address",
          "name": "receiver",
          "type": "address"
        }
      ],
      "name": "ERC20InvalidReceiver",
      "type": "error"
    },
    {
      "inputs": [
        {
          "internalType": "address",
          "name": "sender",
          "type": "address"
        }
      ],
      "name": "ERC20InvalidSender",
      "type": "error"
    },
    {
      "inputs": [
        {
          "internalType": "address",
          "name": "spender",
          "type": "address"
        }
      ],
      "name": "ERC20InvalidSpender",
      "type": "error"
    },
    {
      "inputs": [
        {
          "internalType": "address",
          "name": "owner",
          "type": "address"
        }
      ],
      "name": "OwnableInvalidOwner",
      "type": "error"
    },
    {
      "inputs": [
        {
          "internalType": "address",
          "name": "account",
          "type": "address"
        }
      ],
      "name": "OwnableUnauthorizedAccount",
      "type": "error"
    },
    {
      "anonymous": false,
      "inputs": [
        {
          "indexed": true,
          "internalType": "address",
          "name": "owner",
          "type": "address"
        },
        {
          "indexed": true,
          "internalType": "address",
          "name": "spender",
          "type": "address"
        },
        {
          "indexed": false,
          "internalType": "uint256",
          "name": "value",
          "type": "uint256"
        }
      ],
      "name": "Approval",
      "type": "event"
    },
    {
      "anonymous": false,
      "inputs": [
        {
          "indexed": true,
          "internalType": "address",
          "name": "bonder",
          "type": "address"
        },
        {
          "indexed": true,
          "internalType": "uint256",
          "name": "depositAmount",
          "type": "uint256"
        },
        {
          "indexed": false,
          "internalType": "uint256",
          "name": "time",
          "type": "uint256"
        }
      ],
      "name": "DepositPool",
      "type": "event"
    },
    {
      "anonymous": false,
      "inputs": [
        {
          "indexed": true,
          "internalType": "address",
          "name": "previousOwner",
          "type": "address"
        },
        {
          "indexed": true,
          "internalType": "address",
          "name": "newOwner",
          "type": "address"
        }
      ],
      "name": "OwnershipTransferred",
      "type": "event"
    },
    {
      "anonymous": false,
      "inputs": [
        {
          "indexed": true,
          "internalType": "address",
          "name": "from",
          "type": "address"
        },
        {
          "indexed": true,
          "internalType": "address",
          "name": "to",
          "type": "address"
        },
        {
          "indexed": false,
          "internalType": "uint256",
          "name": "value",
          "type": "uint256"
        }
      ],
      "name": "Transfer",
      "type": "event"
    },
    {
      "anonymous": false,
      "inputs": [
        {
          "indexed": true,
          "internalType": "address",
          "name": "bonder",
          "type": "address"
        },
        {
          "indexed": true,
          "internalType": "uint256",
          "name": "withdrawAmount",
          "type": "uint256"
        },
        {
          "indexed": false,
          "internalType": "uint256",
          "name": "time",
          "type": "uint256"
        }
      ],
      "name": "WithdrawPool",
      "type": "event"
    },
    {
      "inputs": [
        {
          "internalType": "address",
          "name": "owner",
          "type": "address"
        },
        {
          "internalType": "address",
          "name": "spender",
          "type": "address"
        }
      ],
      "name": "allowance",
      "outputs": [
        {
          "internalType": "uint256",
          "name": "",
          "type": "uint256"
        }
      ],
      "stateMutability": "view",
      "type": "function"
    },
    {
      "inputs": [
        {
          "internalType": "address",
          "name": "spender",
          "type": "address"
        },
        {
          "internalType": "uint256",
          "name": "value",
          "type": "uint256"
        }
      ],
      "name": "approve",
      "outputs": [
        {
          "internalType": "bool",
          "name": "",
          "type": "bool"
        }
      ],
      "stateMutability": "nonpayable",
      "type": "function"
    },
    {
      "inputs": [
        {
          "internalType": "address",
          "name": "account",
          "type": "address"
        }
      ],
      "name": "balanceOf",
      "outputs": [
        {
          "internalType": "uint256",
          "name": "",
          "type": "uint256"
        }
      ],
      "stateMutability": "view",
      "type": "function"
    },
    {
      "inputs": [
        {
          "internalType": "address",
          "name": "",
          "type": "address"
        }
      ],
      "name": "betFactoryList",
      "outputs": [
        {
          "internalType": "bool",
          "name": "",
          "type": "bool"
        }
      ],
      "stateMutability": "view",
      "type": "function"
    },
    {
      "inputs": [],
      "name": "bondPoolAmt",
      "outputs": [
        {
          "internalType": "uint256",
          "name": "",
          "type": "uint256"
        }
      ],
      "stateMutability": "view",
      "type": "function"
    },
    {
      "inputs": [],
      "name": "bondPoolLimit",
      "outputs": [
        {
          "internalType": "uint256",
          "name": "",
          "type": "uint256"
        }
      ],
      "stateMutability": "view",
      "type": "function"
    },
    {
      "inputs": [
        {
          "internalType": "address",
          "name": "",
          "type": "address"
        }
      ],
      "name": "bonderLastDepositTime",
      "outputs": [
        {
          "internalType": "uint256",
          "name": "",
          "type": "uint256"
        }
      ],
      "stateMutability": "view",
      "type": "function"
    },
    {
      "inputs": [],
      "name": "decimals",
      "outputs": [
        {
          "internalType": "uint8",
          "name": "",
          "type": "uint8"
        }
      ],
      "stateMutability": "view",
      "type": "function"
    },
    {
      "inputs": [
        {
          "internalType": "uint256",
          "name": "_amount",
          "type": "uint256"
        }
      ],
      "name": "depositBondPool",
      "outputs": [],
      "stateMutability": "nonpayable",
      "type": "function"
    },
    {
      "inputs": [
        {
          "internalType": "address",
          "name": "_account",
          "type": "address"
        },
        {
          "internalType": "uint256",
          "name": "_amount",
          "type": "uint256"
        }
      ],
      "name": "factoryBurn",
      "outputs": [],
      "stateMutability": "nonpayable",
      "type": "function"
    },
    {
      "inputs": [
        {
          "internalType": "address",
          "name": "_account",
          "type": "address"
        },
        {
          "internalType": "uint256",
          "name": "_amount",
          "type": "uint256"
        }
      ],
      "name": "factoryMint",
      "outputs": [],
      "stateMutability": "nonpayable",
      "type": "function"
    },
    {
      "inputs": [],
      "name": "name",
      "outputs": [
        {
          "internalType": "string",
          "name": "",
          "type": "string"
        }
      ],
      "stateMutability": "view",
      "type": "function"
    },
    {
      "inputs": [],
      "name": "owner",
      "outputs": [
        {
          "internalType": "address",
          "name": "",
          "type": "address"
        }
      ],
      "stateMutability": "view",
      "type": "function"
    },
    {
      "inputs": [],
      "name": "renounceOwnership",
      "outputs": [],
      "stateMutability": "nonpayable",
      "type": "function"
    },
    {
      "inputs": [
        {
          "internalType": "address",
          "name": "_betFactoryAddr",
          "type": "address"
        },
        {
          "internalType": "bool",
          "name": "_isPool",
          "type": "bool"
        }
      ],
      "name": "setBetFactory",
      "outputs": [],
      "stateMutability": "nonpayable",
      "type": "function"
    },
    {
      "inputs": [
        {
          "internalType": "uint256",
          "name": "_bondPoolLimit",
          "type": "uint256"
        }
      ],
      "name": "setBondPoolLimit",
      "outputs": [],
      "stateMutability": "nonpayable",
      "type": "function"
    },
    {
      "inputs": [
        {
          "internalType": "uint256",
          "name": "_timeLock",
          "type": "uint256"
        }
      ],
      "name": "setTimeLock",
      "outputs": [],
      "stateMutability": "nonpayable",
      "type": "function"
    },
    {
      "inputs": [],
      "name": "symbol",
      "outputs": [
        {
          "internalType": "string",
          "name": "",
          "type": "string"
        }
      ],
      "stateMutability": "view",
      "type": "function"
    },
    {
      "inputs": [],
      "name": "timeLock",
      "outputs": [
        {
          "internalType": "uint256",
          "name": "",
          "type": "uint256"
        }
      ],
      "stateMutability": "view",
      "type": "function"
    },
    {
      "inputs": [],
      "name": "totalSupply",
      "outputs": [
        {
          "internalType": "uint256",
          "name": "",
          "type": "uint256"
        }
      ],
      "stateMutability": "view",
      "type": "function"
    },
    {
      "inputs": [
        {
          "internalType": "address",
          "name": "to",
          "type": "address"
        },
        {
          "internalType": "uint256",
          "name": "value",
          "type": "uint256"
        }
      ],
      "name": "transfer",
      "outputs": [
        {
          "internalType": "bool",
          "name": "",
          "type": "bool"
        }
      ],
      "stateMutability": "nonpayable",
      "type": "function"
    },
    {
      "inputs": [
        {
          "internalType": "address",
          "name": "from",
          "type": "address"
        },
        {
          "internalType": "address",
          "name": "to",
          "type": "address"
        },
        {
          "internalType": "uint256",
          "name": "value",
          "type": "uint256"
        }
      ],
      "name": "transferFrom",
      "outputs": [
        {
          "internalType": "bool",
          "name": "",
          "type": "bool"
        }
      ],
      "stateMutability": "nonpayable",
      "type": "function"
    },
    {
      "inputs": [
        {
          "internalType": "address",
          "name": "newOwner",
          "type": "address"
        }
      ],
      "name": "transferOwnership",
      "outputs": [],
      "stateMutability": "nonpayable",
      "type": "function"
    },
    {
      "inputs": [
        {
          "internalType": "uint256",
          "name": "_lpAmount",
          "type": "uint256"
        }
      ],
      "name": "withdrawBondPool",
      "outputs": [],
      "stateMutability": "nonpayable",
      "type": "function"
    }
  ],
  "bytecode": {
    "object": "0x608034620003bc57601f906001600160401b0390601f196200148d388190038581018316840185811185821017620002c057849282916040528339602093849181010312620003bc57516001600160a01b03948582169491859003620003bc5762000069620003c1565b60118152702137b73232b92837b7b626282a37b5b2b760791b8582015262000090620003c1565b91600e83526d0424f4e4445522d504f4f4c2d4c560941b86840152815192848411620002c05760039384546001948582811c92168015620003b1575b8a8310146200039b57818584931162000345575b508990858311600114620002e257600092620002d6575b505060001982871b1c191690841b1784555b8051948511620002c05760049687548481811c91168015620002b5575b82821014620002a05783811162000255575b5080928611600114620001e9575084955090849291600095620001dd575b50501b92600019911b1c19161781555b3315620001c5575060058054336001600160a01b03198083168217909355604051949091167f8be0079c531659141344cd1fd0a4f28419497f9722a3daafe3b4186f6b6457e0600080a360065416176006556110ab9081620003e28239f35b602490600060405191631e4fbdf760e01b8352820152fd5b01519350388062000156565b939295859081168860005285600020956000905b898383106200023a57505050106200021f575b50505050811b01815562000166565b01519060f884600019921b161c191690553880808062000210565b858701518955909701969485019488935090810190620001fd565b88600052816000208480890160051c820192848a1062000296575b0160051c019085905b8281106200028957505062000138565b6000815501859062000279565b9250819262000270565b602289634e487b7160e01b6000525260246000fd5b90607f169062000126565b634e487b7160e01b600052604160045260246000fd5b015190503880620000f7565b908987941691886000528b6000209260005b8d8282106200032e575050841162000315575b505050811b01845562000109565b015160001983891b60f8161c1916905538808062000307565b8385015186558a97909501949384019301620002f4565b90915086600052896000208580850160051c8201928c861062000391575b918891869594930160051c01915b82811062000381575050620000e0565b6000815585945088910162000371565b9250819262000363565b634e487b7160e01b600052602260045260246000fd5b91607f1691620000cc565b600080fd5b60408051919082016001600160401b03811183821017620002c05760405256fe608060408181526004918236101561001657600080fd5b600092833560e01c91826306fdde0314610b7d57508163095ea7b314610ad357816318160ddd14610ab45781631f5126251461092957816323b872dd14610835578163313ce5671461081957816333485b3e146107f757816341036f7e146107d85781635bcb318a146107b657816368064f50146107645781636819cd191461073657816370a08231146106ff578163715018a61461069f5781638da5cb5b1461067657816395d89b41146105735781639897760c14610336578163a4f0ecd3146102f0578163a9059cbb146102bf578163d085835a146102a0578163d8eeabf114610281578163dd62ed3e14610238578163f2fde38b146101a457508063f97c29b2146101675763fd4082031461012d57600080fd5b346101635760203660031901126101635760209181906001600160a01b03610153610cb7565b168152600b845220549051908152f35b5080fd5b50346101635760203660031901126101635760209160ff9082906001600160a01b03610191610cb7565b168152600a855220541690519015158152f35b905034610234576020366003190112610234576101bf610cb7565b906101c8610ce8565b6001600160a01b0391821692831561021e575050600554826bffffffffffffffffffffffff60a01b821617600555167f8be0079c531659141344cd1fd0a4f28419497f9722a3daafe3b4186f6b6457e08380a380f35b51631e4fbdf760e01b8152908101849052602490fd5b8280fd5b50503461016357806003193601126101635780602092610256610cb7565b61025e610cd2565b6001600160a01b0391821683526001865283832091168252845220549051908152f35b5050346101635781600319360112610163576020906007549051908152f35b5050346101635781600319360112610163576020906009549051908152f35b5050346101635780600319360112610163576020906102e96102df610cb7565b6024359033610d4c565b5160018152f35b5050346101635780600319360112610163576103339061032a600160ff610315610cb7565b93338752600a60205286205416151514610e4d565b60243590610e99565b80f35b91905034610234576020908160031936011261056f5782359261035a841515610f96565b60065482516370a0823160e01b815233838201526001600160a01b0390911691908481602481865afa908115610565579086918891610530575b50106104f8576103a660075486610e2a565b600854106104b557859160648592855194859384926323b872dd60e01b845233908401523060248401528960448401525af19081156104ab577f8f579f41c679f786f2e537b573ff6598acd33713eec597809219f12325a7ed42929161041391879161047e575b50611004565b60025480158015610474575b15610456575061044b845b61043686600754610e2a565b600755338752600b8552428388205533610e99565b51914283523392a380f35b61046f61046661044b9287611042565b60075490611055565b61042a565b506007541561041f565b61049e9150853d87116104a4575b6104968183610d14565b810190610fec565b3861040d565b503d61048c565b82513d87823e3d90fd5b825162461bcd60e51b8152908101849052601960248201527f426f6e6420706f6f6c20697320617420697473206c696d6974000000000000006044820152606490fd5b825162461bcd60e51b815290810184905260126024820152714e6f7420656e6f7567682062616c616e636560701b6044820152606490fd5b809250868092503d831161055e575b6105498183610d14565b8101031261055a5785905138610394565b8680fd5b503d61053f565b84513d89823e3d90fd5b8380fd5b838334610163578160031936011261016357805191809380549160019083821c9282851694851561066c575b60209586861081146106595785895290811561063557506001146105dd575b6105d987876105cf828c0383610d14565b5191829182610c6e565b0390f35b81529295507f8a35acfbc15ff81a39ae7d344fd709f28e8600b4aa8c65c6b64bfe7fe36bd19b5b82841061062257505050826105d9946105cf928201019486806105be565b8054868501880152928601928101610604565b60ff19168887015250505050151560051b83010192506105cf826105d986806105be565b634e487b7160e01b845260228352602484fd5b93607f169361059f565b50503461016357816003193601126101635760055490516001600160a01b039091168152602090f35b83346106fc57806003193601126106fc576106b8610ce8565b600580546001600160a01b0319811690915581906001600160a01b03167f8be0079c531659141344cd1fd0a4f28419497f9722a3daafe3b4186f6b6457e08280a380f35b80fd5b5050346101635760203660031901126101635760209181906001600160a01b03610727610cb7565b16815280845220549051908152f35b5050346101635780600319360112610163576103339061075b600160ff610315610cb7565b60243590610ef7565b50503461016357806003193601126101635761077e610cb7565b906024359182151580930361056f57610795610ce8565b60018060a01b03168352600a60205282209060ff8019835416911617905580f35b839034610163576020366003190112610163576107d1610ce8565b3560095580f35b5050346101635781600319360112610163576020906008549051908152f35b83903461016357602036600319011261016357610812610ce8565b3560085580f35b5050346101635781600319360112610163576020905160128152f35b905082346106fc5760603660031901126106fc57610851610cb7565b610859610cd2565b916044359360018060a01b038316808352600160205286832033845260205286832054916000198303610895575b6020886102e9898989610d4c565b8683106108fd5781156108e65733156108cf575082526001602090815286832033845281529186902090859003905582906102e987610887565b8751634a1406b160e11b8152908101849052602490fd5b875163e602df0560e01b8152908101849052602490fd5b8751637dc7a0d960e11b8152339181019182526020820193909352604081018790528291506060010390fd5b91905034610234576020908160031936011261056f5782359261094d841515610f96565b338552848352838286205410610a6857610973600954338752600b855283872054610e2a565b4210610a2e57600254936109936007549561098e8784611042565b611055565b94858103908111610a1b57916109af8592889460075533610ef7565b600654845163a9059cbb60e01b81523392810192909252602482018790529092839160449183916001600160a01b03165af19081156104ab577fd24039a527b9982e8997375b7b5d7d7ae6d592a13ab4da98292c8cea402d8b57929161044b91879161047e5750611004565b634e487b7160e01b875260118352602487fd5b82606492519162461bcd60e51b83528201526016602482015275119d5b991cc8185c99481cdd1a5b1b081b1bd8dad95960521b6044820152fd5b82608492519162461bcd60e51b8352820152602260248201527f4e6f7420656e6f75676820706f6f6c20746f6b656e7320746f20776974686472604482015261617760f01b6064820152fd5b5050346101635781600319360112610163576020906002549051908152f35b905034610234578160031936011261023457610aed610cb7565b602435903315610b66576001600160a01b0316918215610b4f57508083602095338152600187528181208582528752205582519081527f8c5be1e5ebec7d5bd14f71427d1e84f3dd0314c0f7b2291e5b200ac8c7c3b925843392a35160018152f35b8351634a1406b160e11b8152908101859052602490fd5b835163e602df0560e01b8152808401869052602490fd5b9291503461056f578360031936011261056f57600354600181811c9186908281168015610c64575b6020958686108214610c515750848852908115610c2f5750600114610bd6575b6105d986866105cf828b0383610d14565b929550600383527fc2575a0e9e593c00f959f8c92f12db2869c3395a3b0502d05e2516446f71f85b5b828410610c1c57505050826105d9946105cf928201019438610bc5565b8054868501880152928601928101610bff565b60ff191687860152505050151560051b83010192506105cf826105d938610bc5565b634e487b7160e01b845260229052602483fd5b93607f1693610ba5565b6020808252825181830181905290939260005b828110610ca357505060409293506000838284010152601f8019910116010190565b818101860151848201604001528501610c81565b600435906001600160a01b0382168203610ccd57565b600080fd5b602435906001600160a01b0382168203610ccd57565b6005546001600160a01b03163303610cfc57565b60405163118cdaa760e01b8152336004820152602490fd5b90601f8019910116810190811067ffffffffffffffff821117610d3657604052565b634e487b7160e01b600052604160045260246000fd5b916001600160a01b03808416928315610e115716928315610df85760009083825281602052604082205490838210610dc6575091604082827fddf252ad1be2c89b69c2b068fc378daa952ba7f163c4a11628f55a4df523b3ef958760209652828652038282205586815220818154019055604051908152a3565b60405163391434e360e21b81526001600160a01b03919091166004820152602481019190915260448101839052606490fd5b60405163ec442f0560e01b815260006004820152602490fd5b604051634b637e8f60e11b815260006004820152602490fd5b91908201809211610e3757565b634e487b7160e01b600052601160045260246000fd5b15610e5457565b60405162461bcd60e51b815260206004820152601960248201527f43616c6c6572206973206e6f74206120626f6e6420706f6f6c000000000000006044820152606490fd5b6001600160a01b0316908115610df8577fddf252ad1be2c89b69c2b068fc378daa952ba7f163c4a11628f55a4df523b3ef602082610edb600094600254610e2a565b60025584845283825260408420818154019055604051908152a3565b906001600160a01b038216908115610e115760009282845283602052604084205490828210610f645750817fddf252ad1be2c89b69c2b068fc378daa952ba7f163c4a11628f55a4df523b3ef926020928587528684520360408620558060025403600255604051908152a3565b60405163391434e360e21b81526001600160a01b03919091166004820152602481019190915260448101829052606490fd5b15610f9d57565b60405162461bcd60e51b815260206004820152602160248201527f4465706f736974206d7573742062652067726561746572207468616e207a65726044820152606f60f81b6064820152608490fd5b90816020910312610ccd57518015158103610ccd5790565b1561100b57565b60405162461bcd60e51b815260206004820152600f60248201526e151c985b9cd9995c8819985a5b1959608a1b6044820152606490fd5b81810292918115918404141715610e3757565b811561105f570490565b634e487b7160e01b600052601260045260246000fdfea2646970667358221220808ddb41ed582e4d39dc3d804808fd1c271c83b463e15d3541c2fa720ecca63264736f6c63430008140033",
    "linkReferences": {}
  },
  "methodIdentifiers": {
    "allowance(address,address)": "dd62ed3e",
    "approve(address,uint256)": "095ea7b3",
    "balanceOf(address)": "70a08231",
    "betFactoryList(address)": "f97c29b2",
    "bondPoolAmt()": "d8eeabf1",
    "bondPoolLimit()": "41036f7e",
    "bonderLastDepositTime(address)": "fd408203",
    "decimals()": "313ce567",
    "depositBondPool(uint256)": "9897760c",
    "factoryBurn(address,uint256)": "6819cd19",
    "factoryMint(address,uint256)": "a4f0ecd3",
    "name()": "06fdde03",
    "owner()": "8da5cb5b",
    "renounceOwnership()": "715018a6",
    "setBetFactory(address,bool)": "68064f50",
    "setBondPoolLimit(uint256)": "33485b3e",
    "setTimeLock(uint256)": "5bcb318a",
    "symbol()": "95d89b41",
    "timeLock()": "d085835a",
    "totalSupply()": "18160ddd",
    "transfer(address,uint256)": "a9059cbb",
    "transferFrom(address,address,uint256)": "23b872dd",
    "transferOwnership(address)": "f2fde38b",
    "withdrawBondPool(uint256)": "1f512625"
  },
  "id": 48
}