{"abi":[{"type":"constructor","inputs":[{"name":"name","type":"string","internalType":"string"},{"name":"symbol","type":"string","internalType":"string"},{"name":"decimal","type":"uint8","internalType":"uint8"}],"stateMutability":"nonpayable"},{"type":"function","name":"allowance","inputs":[{"name":"","type":"address","internalType":"address"},{"name":"","type":"address","internalType":"address"}],"outputs":[{"name":"","type":"uint256","internalType":"uint256"}],"stateMutability":"view"},{"type":"function","name":"approve","inputs":[{"name":"spender","type":"address","internalType":"address"},{"name":"value","type":"uint256","internalType":"uint256"}],"outputs":[{"name":"","type":"bool","internalType":"bool"}],"stateMutability":"nonpayable"},{"type":"function","name":"balanceOf","inputs":[{"name":"","type":"address","internalType":"address"}],"outputs":[{"name":"","type":"uint256","internalType":"uint256"}],"stateMutability":"view"},{"type":"function","name":"betMint","inputs":[{"name":"_account","type":"address","internalType":"address"},{"name":"_amount","type":"uint256","internalType":"uint256"}],"outputs":[],"stateMutability":"nonpayable"},{"type":"function","name":"claimBurn","inputs":[{"name":"_account","type":"address","internalType":"address"},{"name":"_amount","type":"uint256","internalType":"uint256"}],"outputs":[],"stateMutability":"nonpayable"},{"type":"function","name":"decimals","inputs":[],"outputs":[{"name":"","type":"uint8","internalType":"uint8"}],"stateMutability":"view"},{"type":"function","name":"name","inputs":[],"outputs":[{"name":"","type":"string","internalType":"string"}],"stateMutability":"view"},{"type":"function","name":"owner","inputs":[],"outputs":[{"name":"","type":"address","internalType":"address"}],"stateMutability":"view"},{"type":"function","name":"symbol","inputs":[],"outputs":[{"name":"","type":"string","internalType":"string"}],"stateMutability":"view"},{"type":"function","name":"totalMinted","inputs":[],"outputs":[{"name":"","type":"uint256","internalType":"uint256"}],"stateMutability":"view"},{"type":"function","name":"totalSupply","inputs":[],"outputs":[{"name":"","type":"uint256","internalType":"uint256"}],"stateMutability":"view"},{"type":"function","name":"transfer","inputs":[{"name":"to","type":"address","internalType":"address"},{"name":"value","type":"uint256","internalType":"uint256"}],"outputs":[{"name":"","type":"bool","internalType":"bool"}],"stateMutability":"nonpayable"},{"type":"function","name":"transferFrom","inputs":[{"name":"from","type":"address","internalType":"address"},{"name":"to","type":"address","internalType":"address"},{"name":"value","type":"uint256","internalType":"uint256"}],"outputs":[{"name":"","type":"bool","internalType":"bool"}],"stateMutability":"nonpayable"},{"type":"event","name":"Approval","inputs":[{"name":"owner","type":"address","indexed":true,"internalType":"address"},{"name":"spender","type":"address","indexed":true,"internalType":"address"},{"name":"value","type":"uint256","indexed":false,"internalType":"uint256"}],"anonymous":false},{"type":"event","name":"Transfer","inputs":[{"name":"from","type":"address","indexed":true,"internalType":"address"},{"name":"to","type":"address","indexed":true,"internalType":"address"},{"name":"value","type":"uint256","indexed":false,"internalType":"uint256"}],"anonymous":false}],"bytecode":{"object":"0x6080604052346200034f5762000cc6803803806200001d8162000353565b92833981016060828203126200034f5781516001600160401b03908181116200034f57826200004e91850162000379565b90602092838501518281116200034f576040916200006e91870162000379565b9401519360ff85168095036200034f578251908282116200033b576004948554926001958685811c9516801562000330575b838610146200031d578190601f95868111620002ca575b50839086831160011462000266575f926200025a575b50505f19600383901b1c191690861b1786555b815193841162000247576005958654908682811c921680156200023c575b83831014620002295750838111620001e3575b50809284116001146200017c57509282939183925f9462000170575b50501b915f199060031b1c19161790555b600680546001600160a81b0319169091173360081b610100600160a81b03161790556040516108dc9081620003ea8239f35b015192505f806200012d565b919083601f198116875f52845f20945f905b88838310620001c85750505010620001af575b505050811b0190556200013e565b01515f1960f88460031b161c191690555f8080620001a1565b8587015188559096019594850194879350908101906200018e565b865f52815f2084808701891c8201928488106200021f575b01881c019086905b8281106200021357505062000111565b5f815501869062000203565b92508192620001fb565b602290634e487b7160e01b5f525260245ffd5b91607f1691620000fe565b604186634e487b7160e01b5f525260245ffd5b015190505f80620000cd565b90889350601f198316918a5f52855f20925f5b87828210620002b357505084116200029a575b505050811b018655620000e0565b01515f1960f88460031b161c191690555f80806200028c565b8385015186558c9790950194938401930162000279565b909150885f52835f208680850160051c82019286861062000313575b918a91869594930160051c01915b82811062000304575050620000b7565b5f81558594508a9101620002f4565b92508192620002e6565b602288634e487b7160e01b5f525260245ffd5b94607f1694620000a0565b634e487b7160e01b5f52604160045260245ffd5b5f80fd5b6040519190601f01601f191682016001600160401b038111838210176200033b57604052565b919080601f840112156200034f5782516001600160401b0381116200033b57602090620003af601f8201601f1916830162000353565b928184528282870101116200034f575f5b818110620003d55750825f9394955001015290565b8581018301518482018401528201620003c056fe6080604081815260049182361015610015575f80fd5b5f92833560e01c91826306fdde031461059257508163095ea7b31461056857816318160ddd1461054b57816323b872dd1461047f578163313ce5671461045d57816337b5510b1461036057816370a08231146103285781637262fb35146102985781638da5cb5b1461026b57816395d89b411461014a57508063a2309ff81461012c578063a9059cbb146100fc5763dd62ed3e146100b1575f80fd5b346100f857806003193601126100f857806020926100cd6106b3565b6100d56106cd565b6001600160a01b0391821683526003865283832091168252845220549051908152f35b5080fd5b50346100f857806003193601126100f85760209061012561011b6106b3565b6024359033610704565b5160018152f35b50346100f857816003193601126100f8576020906001549051908152f35b8383346100f857816003193601126100f85780519082600554600181811c90808316928315610261575b602093848410811461024e5783885290811561023257506001146101dc575b505050829003601f01601f191682019267ffffffffffffffff8411838510176101c957508291826101c592528261066c565b0390f35b634e487b7160e01b815260418552602490fd5b600587529192508591837f036b6384b5eca791c62761152d0c79bb0604c104a5fb6f4eb0703f3154bb3db05b83851061021e5750505050830101858080610193565b805488860183015293019284908201610208565b60ff1916878501525050151560051b8401019050858080610193565b634e487b7160e01b895260228a52602489fd5b91607f1691610174565b5050346100f857816003193601126100f857600654905160089190911c6001600160a01b03168152602090f35b5050346100f857806003193601126100f857815f8051602061088783398151915260206102c36106b3565b6024359060018060a01b03906102e18260065460081c163314610844565b6102ec8387546106e3565b86556102fa836001546106e3565b600155169485610313578185540385555b51908152a380f35b8585526002835280852082815401905561030b565b5050346100f85760203660031901126100f85760209181906001600160a01b036103506106b3565b1681526002845220549051908152f35b839150346100f857826003193601126100f85761037b6106b3565b6024359060018060a01b03906103998260065460081c163314610844565b1691826103df575060208184956103bf5f805160206108878339815191529487546106e3565b86556103cd826001546106e3565b6001555b81865403865551908152a380f35b8284526002602052848420549082821061041a57508184955f80516020610887833981519152936020938688526002855203818720556103d1565b606490602087519162461bcd60e51b8352820152601b60248201527f45524332303a20696e73756666696369656e742062616c616e636500000000006044820152fd5b5050346100f857816003193601126100f85760209060ff600654169051908152f35b839150346100f85760603660031901126100f85761049b6106b3565b6104a36106cd565b6001600160a01b038216845260036020908152858520338652905292849020546044359392600182016104df575b602086610125878787610704565b84821061050857509183916104fd60209695610125950333836107f1565b9193948193506104d1565b606490602087519162461bcd60e51b8352820152601d60248201527f45524332303a20696e73756666696369656e7420616c6c6f77616e63650000006044820152fd5b5050346100f857816003193601126100f857602091549051908152f35b5050346100f857806003193601126100f8576020906101256105886106b3565b60243590336107f1565b84908434610668578260031936011261066857828454600181811c9080831692831561065e575b602093848410811461024e57838852908115610232575060011461060957505050829003601f01601f191682019267ffffffffffffffff8411838510176101c957508291826101c592528261066c565b8787529192508591837f8a35acfbc15ff81a39ae7d344fd709f28e8600b4aa8c65c6b64bfe7fe36bd19b5b83851061064a5750505050830101858080610193565b805488860183015293019284908201610634565b91607f16916105b9565b8280fd5b602080825282518183018190529093925f5b82811061069f57505060409293505f838284010152601f8019910116010190565b81810186015184820160400152850161067e565b600435906001600160a01b03821682036106c957565b5f80fd5b602435906001600160a01b03821682036106c957565b919082018092116106f057565b634e487b7160e01b5f52601160045260245ffd5b6001600160a01b03908116919082610772576020905f8051602061088783398151915292610733865f546106e3565b5f55610741866001546106e3565b6001555b16938461075c57805f54035f555b604051908152a3565b845f526002825260405f20818154019055610753565b825f52600260205260405f2054908482106107ac575f805160206108878339815191529285602093865f52600285520360405f2055610745565b60405162461bcd60e51b815260206004820152601b60248201527f45524332303a20696e73756666696369656e742062616c616e636500000000006044820152606490fd5b909160207f8c5be1e5ebec7d5bd14f71427d1e84f3dd0314c0f7b2291e5b200ac8c7c3b9259160018060a01b0380941693845f526003835260405f20951694855f5282528060405f2055604051908152a3565b1561084b57565b60405162461bcd60e51b815260206004820152601360248201527213db9b1e481bdddb995c8818d85b881b5a5b9d606a1b6044820152606490fdfeddf252ad1be2c89b69c2b068fc378daa952ba7f163c4a11628f55a4df523b3efa2646970667358221220514917cf0af935dba190c6de17824c83e6dec5267a53279013ff12bc4e3460ec64736f6c63430008140033","linkReferences":{}},"methodIdentifiers":{"allowance(address,address)":"dd62ed3e","approve(address,uint256)":"095ea7b3","balanceOf(address)":"70a08231","betMint(address,uint256)":"7262fb35","claimBurn(address,uint256)":"37b5510b","decimals()":"313ce567","name()":"06fdde03","owner()":"8da5cb5b","symbol()":"95d89b41","totalMinted()":"a2309ff8","totalSupply()":"18160ddd","transfer(address,uint256)":"a9059cbb","transferFrom(address,address,uint256)":"23b872dd"},"id":6}