{
  "abi": [
    {
      "inputs": [
        {
          "internalType": "address",
          "name": "_baseUSDCAddr",
          "type": "address"
        },
        {
          "internalType": "address",
          "name": "_bonderPoolAddr",
          "type": "address"
        },
        {
          "internalType": "address",
          "name": "_lpFactoryAddr",
          "type": "address"
        }
      ],
      "stateMutability": "nonpayable",
      "type": "constructor"
    },
    {
      "inputs": [],
      "name": "EnforcedPause",
      "type": "error"
    },
    {
      "inputs": [],
      "name": "ExpectedPause",
      "type": "error"
    },
    {
      "inputs": [
        {
          "internalType": "address",
          "name": "owner",
          "type": "address"
        }
      ],
      "name": "OwnableInvalidOwner",
      "type": "error"
    },
    {
      "inputs": [
        {
          "internalType": "address",
          "name": "account",
          "type": "address"
        }
      ],
      "name": "OwnableUnauthorizedAccount",
      "type": "error"
    },
    {
      "anonymous": false,
      "inputs": [
        {
          "indexed": true,
          "internalType": "uint256",
          "name": "betId",
          "type": "uint256"
        },
        {
          "indexed": true,
          "internalType": "address",
          "name": "creator",
          "type": "address"
        },
        {
          "indexed": false,
          "internalType": "uint256",
          "name": "time",
          "type": "uint256"
        }
      ],
      "name": "BetCreated",
      "type": "event"
    },
    {
      "anonymous": false,
      "inputs": [
        {
          "indexed": true,
          "internalType": "uint256",
          "name": "betId",
          "type": "uint256"
        },
        {
          "indexed": true,
          "internalType": "address",
          "name": "bonder",
          "type": "address"
        },
        {
          "indexed": false,
          "internalType": "uint256",
          "name": "lpAmount",
          "type": "uint256"
        },
        {
          "indexed": false,
          "internalType": "uint256",
          "name": "time",
          "type": "uint256"
        }
      ],
      "name": "BondNo",
      "type": "event"
    },
    {
      "anonymous": false,
      "inputs": [
        {
          "indexed": true,
          "internalType": "uint256",
          "name": "betId",
          "type": "uint256"
        },
        {
          "indexed": true,
          "internalType": "address",
          "name": "bonder",
          "type": "address"
        },
        {
          "indexed": false,
          "internalType": "uint256",
          "name": "lpAmount",
          "type": "uint256"
        },
        {
          "indexed": false,
          "internalType": "uint256",
          "name": "time",
          "type": "uint256"
        }
      ],
      "name": "BondYes",
      "type": "event"
    },
    {
      "anonymous": false,
      "inputs": [
        {
          "indexed": true,
          "internalType": "uint256",
          "name": "betId",
          "type": "uint256"
        },
        {
          "indexed": true,
          "internalType": "address",
          "name": "bettor",
          "type": "address"
        },
        {
          "indexed": false,
          "internalType": "uint256",
          "name": "betAmount",
          "type": "uint256"
        },
        {
          "indexed": false,
          "internalType": "uint256",
          "name": "time",
          "type": "uint256"
        }
      ],
      "name": "BuyNo",
      "type": "event"
    },
    {
      "anonymous": false,
      "inputs": [
        {
          "indexed": true,
          "internalType": "uint256",
          "name": "betId",
          "type": "uint256"
        },
        {
          "indexed": true,
          "internalType": "address",
          "name": "bettor",
          "type": "address"
        },
        {
          "indexed": false,
          "internalType": "uint256",
          "name": "betAmount",
          "type": "uint256"
        },
        {
          "indexed": false,
          "internalType": "uint256",
          "name": "time",
          "type": "uint256"
        }
      ],
      "name": "BuyYes",
      "type": "event"
    },
    {
      "anonymous": false,
      "inputs": [
        {
          "indexed": true,
          "internalType": "uint256",
          "name": "betId",
          "type": "uint256"
        },
        {
          "indexed": true,
          "internalType": "address",
          "name": "bettor",
          "type": "address"
        },
        {
          "indexed": false,
          "internalType": "uint256",
          "name": "result",
          "type": "uint256"
        },
        {
          "indexed": false,
          "internalType": "uint256",
          "name": "winningClaim",
          "type": "uint256"
        },
        {
          "indexed": false,
          "internalType": "uint256",
          "name": "time",
          "type": "uint256"
        }
      ],
      "name": "Claim",
      "type": "event"
    },
    {
      "anonymous": false,
      "inputs": [
        {
          "indexed": true,
          "internalType": "uint256",
          "name": "betId",
          "type": "uint256"
        },
        {
          "indexed": false,
          "internalType": "uint256",
          "name": "finalDecision",
          "type": "uint256"
        },
        {
          "indexed": false,
          "internalType": "uint256",
          "name": "time",
          "type": "uint256"
        }
      ],
      "name": "FinalDecision",
      "type": "event"
    },
    {
      "anonymous": false,
      "inputs": [
        {
          "indexed": false,
          "internalType": "uint256",
          "name": "time",
          "type": "uint256"
        }
      ],
      "name": "NewSettings",
      "type": "event"
    },
    {
      "anonymous": false,
      "inputs": [
        {
          "indexed": true,
          "internalType": "address",
          "name": "previousOwner",
          "type": "address"
        },
        {
          "indexed": true,
          "internalType": "address",
          "name": "newOwner",
          "type": "address"
        }
      ],
      "name": "OwnershipTransferred",
      "type": "event"
    },
    {
      "anonymous": false,
      "inputs": [
        {
          "indexed": false,
          "internalType": "address",
          "name": "account",
          "type": "address"
        }
      ],
      "name": "Paused",
      "type": "event"
    },
    {
      "anonymous": false,
      "inputs": [
        {
          "indexed": true,
          "internalType": "uint256",
          "name": "betId",
          "type": "uint256"
        },
        {
          "indexed": false,
          "internalType": "enum BonderV1BetFactory.Stages",
          "name": "oldStage",
          "type": "uint8"
        },
        {
          "indexed": false,
          "internalType": "enum BonderV1BetFactory.Stages",
          "name": "newStage",
          "type": "uint8"
        },
        {
          "indexed": false,
          "internalType": "uint256",
          "name": "time",
          "type": "uint256"
        }
      ],
      "name": "StageChange",
      "type": "event"
    },
    {
      "anonymous": false,
      "inputs": [
        {
          "indexed": true,
          "internalType": "uint256",
          "name": "betId",
          "type": "uint256"
        },
        {
          "indexed": true,
          "internalType": "address",
          "name": "bonder",
          "type": "address"
        },
        {
          "indexed": false,
          "internalType": "uint256",
          "name": "result",
          "type": "uint256"
        },
        {
          "indexed": false,
          "internalType": "uint256",
          "name": "bondCount",
          "type": "uint256"
        },
        {
          "indexed": false,
          "internalType": "uint256",
          "name": "bondReward",
          "type": "uint256"
        },
        {
          "indexed": false,
          "internalType": "uint256",
          "name": "time",
          "type": "uint256"
        }
      ],
      "name": "Unbond",
      "type": "event"
    },
    {
      "anonymous": false,
      "inputs": [
        {
          "indexed": false,
          "internalType": "address",
          "name": "account",
          "type": "address"
        }
      ],
      "name": "Unpaused",
      "type": "event"
    },
    {
      "inputs": [],
      "name": "betId",
      "outputs": [
        {
          "internalType": "uint256",
          "name": "",
          "type": "uint256"
        }
      ],
      "stateMutability": "view",
      "type": "function"
    },
    {
      "inputs": [],
      "name": "betSettings",
      "outputs": [
        {
          "internalType": "address",
          "name": "treasuryAddr",
          "type": "address"
        },
        {
          "internalType": "uint256",
          "name": "treasuryFee",
          "type": "uint256"
        },
        {
          "internalType": "uint256",
          "name": "poolFee",
          "type": "uint256"
        },
        {
          "internalType": "uint256",
          "name": "creatorFee",
          "type": "uint256"
        },
        {
          "internalType": "uint256",
          "name": "disputeThreshold",
          "type": "uint256"
        },
        {
          "internalType": "uint256",
          "name": "validateDuration",
          "type": "uint256"
        },
        {
          "internalType": "uint256",
          "name": "disputeDuration",
          "type": "uint256"
        }
      ],
      "stateMutability": "view",
      "type": "function"
    },
    {
      "inputs": [
        {
          "internalType": "uint256",
          "name": "_betId",
          "type": "uint256"
        },
        {
          "internalType": "uint256",
          "name": "_lpAmount",
          "type": "uint256"
        }
      ],
      "name": "bondNo",
      "outputs": [],
      "stateMutability": "nonpayable",
      "type": "function"
    },
    {
      "inputs": [
        {
          "internalType": "uint256",
          "name": "_betId",
          "type": "uint256"
        },
        {
          "internalType": "uint256",
          "name": "_lpAmount",
          "type": "uint256"
        }
      ],
      "name": "bondYes",
      "outputs": [],
      "stateMutability": "nonpayable",
      "type": "function"
    },
    {
      "inputs": [
        {
          "internalType": "uint256",
          "name": "",
          "type": "uint256"
        },
        {
          "internalType": "address",
          "name": "",
          "type": "address"
        }
      ],
      "name": "bonderNoBonds",
      "outputs": [
        {
          "internalType": "uint256",
          "name": "",
          "type": "uint256"
        }
      ],
      "stateMutability": "view",
      "type": "function"
    },
    {
      "inputs": [
        {
          "internalType": "uint256",
          "name": "",
          "type": "uint256"
        },
        {
          "internalType": "address",
          "name": "",
          "type": "address"
        }
      ],
      "name": "bonderYesBonds",
      "outputs": [
        {
          "internalType": "uint256",
          "name": "",
          "type": "uint256"
        }
      ],
      "stateMutability": "view",
      "type": "function"
    },
    {
      "inputs": [
        {
          "internalType": "uint256",
          "name": "_betId",
          "type": "uint256"
        },
        {
          "internalType": "uint256",
          "name": "_amount",
          "type": "uint256"
        }
      ],
      "name": "buyNo",
      "outputs": [],
      "stateMutability": "nonpayable",
      "type": "function"
    },
    {
      "inputs": [
        {
          "internalType": "uint256",
          "name": "_betId",
          "type": "uint256"
        },
        {
          "internalType": "uint256",
          "name": "_amount",
          "type": "uint256"
        }
      ],
      "name": "buyYes",
      "outputs": [],
      "stateMutability": "nonpayable",
      "type": "function"
    },
    {
      "inputs": [
        {
          "internalType": "uint256",
          "name": "_betId",
          "type": "uint256"
        }
      ],
      "name": "changeFromBet",
      "outputs": [],
      "stateMutability": "nonpayable",
      "type": "function"
    },
    {
      "inputs": [
        {
          "internalType": "uint256",
          "name": "_betId",
          "type": "uint256"
        }
      ],
      "name": "changeFromValidate",
      "outputs": [],
      "stateMutability": "nonpayable",
      "type": "function"
    },
    {
      "inputs": [
        {
          "internalType": "uint256",
          "name": "_betId",
          "type": "uint256"
        }
      ],
      "name": "claim",
      "outputs": [],
      "stateMutability": "nonpayable",
      "type": "function"
    },
    {
      "inputs": [
        {
          "internalType": "string",
          "name": "_betDescription",
          "type": "string"
        },
        {
          "internalType": "uint256",
          "name": "_expiryTime",
          "type": "uint256"
        }
      ],
      "name": "createBet",
      "outputs": [],
      "stateMutability": "nonpayable",
      "type": "function"
    },
    {
      "inputs": [],
      "name": "getBetSettings",
      "outputs": [
        {
          "internalType": "address",
          "name": "treasuryAddr",
          "type": "address"
        },
        {
          "internalType": "uint256",
          "name": "treasuryFee",
          "type": "uint256"
        },
        {
          "internalType": "uint256",
          "name": "poolFee",
          "type": "uint256"
        },
        {
          "internalType": "uint256",
          "name": "creatorFee",
          "type": "uint256"
        },
        {
          "internalType": "uint256",
          "name": "disputeThreshold",
          "type": "uint256"
        },
        {
          "internalType": "uint256",
          "name": "validateDuration",
          "type": "uint256"
        },
        {
          "internalType": "uint256",
          "name": "disputeDuration",
          "type": "uint256"
        }
      ],
      "stateMutability": "view",
      "type": "function"
    },
    {
      "inputs": [
        {
          "internalType": "uint256",
          "name": "_betId",
          "type": "uint256"
        }
      ],
      "name": "getBetStruct",
      "outputs": [
        {
          "components": [
            {
              "internalType": "uint256",
              "name": "id",
              "type": "uint256"
            },
            {
              "internalType": "string",
              "name": "betDescription",
              "type": "string"
            },
            {
              "internalType": "address",
              "name": "creator",
              "type": "address"
            },
            {
              "internalType": "uint256",
              "name": "expiryTime",
              "type": "uint256"
            },
            {
              "internalType": "enum BonderV1BetFactory.Stages",
              "name": "stage",
              "type": "uint8"
            },
            {
              "internalType": "uint256",
              "name": "result",
              "type": "uint256"
            },
            {
              "internalType": "bool",
              "name": "disputed",
              "type": "bool"
            },
            {
              "internalType": "uint256",
              "name": "bonderFee",
              "type": "uint256"
            },
            {
              "internalType": "uint256",
              "name": "claimAmt",
              "type": "uint256"
            },
            {
              "internalType": "uint256",
              "name": "totalDeposited",
              "type": "uint256"
            },
            {
              "internalType": "uint256",
              "name": "yesBonds",
              "type": "uint256"
            },
            {
              "internalType": "uint256",
              "name": "noBonds",
              "type": "uint256"
            },
            {
              "internalType": "address",
              "name": "yesToken",
              "type": "address"
            },
            {
              "internalType": "address",
              "name": "noToken",
              "type": "address"
            },
            {
              "internalType": "address",
              "name": "yesLp",
              "type": "address"
            },
            {
              "internalType": "address",
              "name": "noLp",
              "type": "address"
            }
          ],
          "internalType": "struct BonderV1BetFactory.Bet",
          "name": "betStruct",
          "type": "tuple"
        }
      ],
      "stateMutability": "view",
      "type": "function"
    },
    {
      "inputs": [
        {
          "internalType": "uint256",
          "name": "_betId",
          "type": "uint256"
        },
        {
          "internalType": "address",
          "name": "_bonder",
          "type": "address"
        }
      ],
      "name": "getBonderNoBonds",
      "outputs": [
        {
          "internalType": "uint256",
          "name": "",
          "type": "uint256"
        }
      ],
      "stateMutability": "view",
      "type": "function"
    },
    {
      "inputs": [
        {
          "internalType": "uint256",
          "name": "_betId",
          "type": "uint256"
        },
        {
          "internalType": "address",
          "name": "_bonder",
          "type": "address"
        }
      ],
      "name": "getBonderYesBonds",
      "outputs": [
        {
          "internalType": "uint256",
          "name": "",
          "type": "uint256"
        }
      ],
      "stateMutability": "view",
      "type": "function"
    },
    {
      "inputs": [
        {
          "internalType": "uint256",
          "name": "_betId",
          "type": "uint256"
        }
      ],
      "name": "getDisputeThresholdAmt",
      "outputs": [
        {
          "internalType": "uint256",
          "name": "disputeThresholdAmt",
          "type": "uint256"
        }
      ],
      "stateMutability": "view",
      "type": "function"
    },
    {
      "inputs": [
        {
          "internalType": "uint256",
          "name": "_betId",
          "type": "uint256"
        }
      ],
      "name": "getEnumValue",
      "outputs": [
        {
          "internalType": "enum BonderV1BetFactory.Stages",
          "name": "",
          "type": "uint8"
        }
      ],
      "stateMutability": "view",
      "type": "function"
    },
    {
      "inputs": [
        {
          "internalType": "uint256",
          "name": "",
          "type": "uint256"
        }
      ],
      "name": "idToBet",
      "outputs": [
        {
          "internalType": "uint256",
          "name": "id",
          "type": "uint256"
        },
        {
          "internalType": "string",
          "name": "betDescription",
          "type": "string"
        },
        {
          "internalType": "address",
          "name": "creator",
          "type": "address"
        },
        {
          "internalType": "uint256",
          "name": "expiryTime",
          "type": "uint256"
        },
        {
          "internalType": "enum BonderV1BetFactory.Stages",
          "name": "stage",
          "type": "uint8"
        },
        {
          "internalType": "uint256",
          "name": "result",
          "type": "uint256"
        },
        {
          "internalType": "bool",
          "name": "disputed",
          "type": "bool"
        },
        {
          "internalType": "uint256",
          "name": "bonderFee",
          "type": "uint256"
        },
        {
          "internalType": "uint256",
          "name": "claimAmt",
          "type": "uint256"
        },
        {
          "internalType": "uint256",
          "name": "totalDeposited",
          "type": "uint256"
        },
        {
          "internalType": "uint256",
          "name": "yesBonds",
          "type": "uint256"
        },
        {
          "internalType": "uint256",
          "name": "noBonds",
          "type": "uint256"
        },
        {
          "internalType": "address",
          "name": "yesToken",
          "type": "address"
        },
        {
          "internalType": "address",
          "name": "noToken",
          "type": "address"
        },
        {
          "internalType": "address",
          "name": "yesLp",
          "type": "address"
        },
        {
          "internalType": "address",
          "name": "noLp",
          "type": "address"
        }
      ],
      "stateMutability": "view",
      "type": "function"
    },
    {
      "inputs": [],
      "name": "owner",
      "outputs": [
        {
          "internalType": "address",
          "name": "",
          "type": "address"
        }
      ],
      "stateMutability": "view",
      "type": "function"
    },
    {
      "inputs": [],
      "name": "paused",
      "outputs": [
        {
          "internalType": "bool",
          "name": "",
          "type": "bool"
        }
      ],
      "stateMutability": "view",
      "type": "function"
    },
    {
      "inputs": [],
      "name": "renounceOwnership",
      "outputs": [],
      "stateMutability": "nonpayable",
      "type": "function"
    },
    {
      "inputs": [
        {
          "internalType": "address",
          "name": "_treasuryAddr",
          "type": "address"
        },
        {
          "internalType": "uint256",
          "name": "_treasuryFee",
          "type": "uint256"
        },
        {
          "internalType": "uint256",
          "name": "_poolFee",
          "type": "uint256"
        },
        {
          "internalType": "uint256",
          "name": "_creatorFee",
          "type": "uint256"
        },
        {
          "internalType": "uint256",
          "name": "_disputeThreshold",
          "type": "uint256"
        },
        {
          "internalType": "uint256",
          "name": "_validateDuration",
          "type": "uint256"
        },
        {
          "internalType": "uint256",
          "name": "_disputeDuration",
          "type": "uint256"
        }
      ],
      "name": "setBetSettings",
      "outputs": [],
      "stateMutability": "nonpayable",
      "type": "function"
    },
    {
      "inputs": [
        {
          "internalType": "uint256",
          "name": "_betId",
          "type": "uint256"
        },
        {
          "internalType": "uint256",
          "name": "_decision",
          "type": "uint256"
        }
      ],
      "name": "setFinalDecision",
      "outputs": [],
      "stateMutability": "nonpayable",
      "type": "function"
    },
    {
      "inputs": [
        {
          "internalType": "bool",
          "name": "_setPause",
          "type": "bool"
        }
      ],
      "name": "setPause",
      "outputs": [],
      "stateMutability": "nonpayable",
      "type": "function"
    },
    {
      "inputs": [
        {
          "internalType": "address",
          "name": "newOwner",
          "type": "address"
        }
      ],
      "name": "transferOwnership",
      "outputs": [],
      "stateMutability": "nonpayable",
      "type": "function"
    },
    {
      "inputs": [
        {
          "internalType": "uint256",
          "name": "_betId",
          "type": "uint256"
        }
      ],
      "name": "unbond",
      "outputs": [],
      "stateMutability": "nonpayable",
      "type": "function"
    }
  ],
  "bytecode": {
    "object": "0x6080346200012357601f620045cd38819003918201601f19168301916001600160401b03831184841017620001285780849260609460405283398101031262000123576200004d816200013e565b62000069604062000061602085016200013e565b93016200013e565b916000549233156200010a576001600160a81b0319841633600881811b610100600160a81b0316929092176000908155604051966001600160a01b0395869490939291901c8416907f8be0079c531659141344cd1fd0a4f28419497f9722a3daafe3b4186f6b6457e09080a38160018060a01b0319951685600454161760045516836005541617600555169060065416176006556144799081620001548239f35b604051631e4fbdf760e01b815260006004820152602490fd5b600080fd5b634e487b7160e01b600052604160045260246000fd5b51906001600160a01b0382168203620001235756fe60a08060405260043610156200001457600080fd5b60009081803560e01c91826314fe6c9d1462002a375750508063176252951462000f8d578063258d191114620028b057806327bce91b146200289057806327de9e32146200229f5780632ff6f5dc14620020d2578063379607f514620018ad578063399af50214620016155780633b0161c9146200151b5780634539588e14620013de5780634646e0a514620011c25780635169831d14620010a25780635c975abb146200107e57806364143a5514620010535780636f42c949146200025a578063715018a61462000ff1578063869dc3361462000f8d5780638da5cb5b1462000f60578063a27962b01462000e8e578063a55218341462000e6e578063a9f6b0581462000adf578063b56202c81462000aa5578063bedb86fb1462000a78578063d670420614620002a5578063db157a0a146200025a578063f2fde38b14620001b55763f8d02073146200016857600080fd5b34620001b2576040366003190112620001b25760406200018762002d57565b9160043581526003602052209060018060a01b03166000526020526020604060002054604051908152f35b80fd5b5034620001b2576020366003190112620001b257620001d362002d40565b620001dd62002eed565b6001600160a01b03818116918215620002415760008054610100600160a81b03198116600893841b610100600160a81b031617825590911c91909116907f8be0079c531659141344cd1fd0a4f28419497f9722a3daafe3b4186f6b6457e09080a380f35b604051631e4fbdf760e01b815260048101859052602490fd5b5034620001b2576040366003190112620001b25760406200027a62002d57565b9160043581526002602052209060018060a01b03166000526020526020604060002054604051908152f35b5034620001b2576040366003190112620001b2576004359067ffffffffffffffff8211620001b25736602383011215620001b2578160040135620002e98162002ed0565b92620002f9604051948562002dfb565b818452366024838301011162000a745781839260246020930183870137840101526200032462002f1d565b42602435111562000a2f57600154600019811462000a1b5760010180600155808183927a184f03e93ff9f4daa797ed6e38ed64bf6a1f010000000000000000908181101562000a0b575b5050600a906d04ee2d6d415b85acef810000000080821015620009fd575b50662386f26fc1000080821015620009ef575b506305f5e10080821015620009e1575b5061271080821015620009d3575b506064811015620009c4575b1015620009b8575b600a6021620003e36001850162002ed0565b93620003f3604051958662002dfb565b60018101808652601f1990620004099062002ed0565b013660208701378401015b60001901916f181899199a1a9b1b9c1cb0b131b232b360811b8282061a83530480156200044557600a909162000414565b5050816200055f60405192620004e181516200046981602088016020860162002ccf565b85019462000491602482632d59455360e01b9889602082015203600481018452018262002dfb565b60405190620004db602c8367426f6e646572563160c01b998a60208301528751620004c4816028850160208c0162002ccf565b820190602882015203600c81018552018362002dfb565b62003504565b93620004db602b6040519284516200050181602087016020890162002ccf565b840162000527602386622d4e4f60e81b9384602082015203600381018852018662002dfb565b60405195869260208401526200054881518092602060288701910162002ccf565b820190602882015203600b81018552018362002dfb565b600654600480546040516364e329cb60e11b81526001600160a01b0387811693820193909352908216602482015293602092859260449284929091165af1918215620009ad5790849291839262000987575b50600654600480546040516364e329cb60e11b81526001600160a01b0385811693820193909352908216602482015294602092869260449284929091165af19283156200097c57859362000944575b506001549360405196620006148862002dab565b858852602088015233604088015260243560608801528560808801528560a08801528560c08801528560e08801528561010088015285610120880152856101408801528561016088015260018060a01b031661018087015260018060a01b03166101a086015260018060a01b03166101c085015260018060a01b03166101e08401528152600e602052604081209180518355602081015192835167ffffffffffffffff81116200093057620006cd600183015462002d6e565b601f8111620008e7575b506020601f82116001146200087657849582939495926200086a575b50508160011b916000199060031b1c19161760018201555b60408201516002820180546001600160a01b0319166001600160a01b03929092169190911790556060820151600382015560808201516004811015620008565760048201805460ff92831660ff199182161790915560a0840151600584015560c0840151600684018054911515909316911617905560e0820151600782015561010082015160088201556101208201516009820155610140820151600a820155610160820151600b820155610180820151600c820180546001600160a01b03199081166001600160a01b03938416179091556101a0840151600d8401805483169184169190911790556101c0840151600e8401805483169184169190911790556101e090930151600f909201805490931691161790556001546040514281523391907f5d51034605fe51fe0de6338bcab547034242e3f1b36e80aec6af07ebda031ded90602090a380f35b634e487b7160e01b84526021600452602484fd5b015190503880620006f3565b6001830185526020852090855b601f1984168110620008ce575060019394959683601f19811610620008b4575b505050811b0160018201556200070b565b015160001960f88460031b161c19169055388080620008a3565b9091602060018192858b01518155019301910162000883565b60018301855260208520601f830160051c81016020841062000928575b601f830160051c820181106200091c575050620006d7565b86815560010162000904565b508062000904565b634e487b7160e01b84526041600452602484fd5b6200096c91935060203d60201162000974575b62000963818362002dfb565b810190620034e3565b913862000600565b503d62000957565b6040513d87823e3d90fd5b620009a591925060203d602011620009745762000963818362002dfb565b9038620005b1565b6040513d86823e3d90fd5b600190910190620003d1565b606460029104930192620003c9565b6004910493019238620003bd565b6008910493019238620003af565b60109104930192386200039f565b60209104930192386200038c565b60409450049050600a386200036e565b634e487b7160e01b82526011600452602482fd5b60405162461bcd60e51b815260206004820152601960248201527f4578706972792074696d6520696e2074686520667574757265000000000000006044820152606490fd5b8280fd5b5034620001b2576020366003190112620001b25760043580151503620001b25762000aa262002eed565b80f35b5034620001b2576020366003190112620001b25760ff6004604060209382358152600e85522001541662000add604051809262002d1b565bf35b5034620001b25762000af13662002d29565b90806000526020600e8152604060002060018060a01b039081600d820154169160ff600482600c8501541693015416600481101562000e585762000e0957600454166040516370a0823160e01b81523360048201528481602481855afa801562000cb957879160009162000dd3575b501062000d99576040516323b872dd60e01b815233600482015230602482015260448101879052908490829060649082906000905af1801562000cb95762000bb29160009162000d65575b506200356c565b6040516318160ddd60e01b80825291908481600481875afa92831562000cb957859160009462000d2d575b5060046040518094819382525afa90811562000cb95760009162000cf7575b5062000c0891620034d5565b60008162000cca57505083905b83600052600e8352600960406000200162000c32868254620034d5565b9055803b1562000cc5576040516340c10f1960e01b815233600482015260248101929092526000908290604490829084905af1801562000cb95762000ca7575b5060405192835242908301527f4993ce8bad3916a202677d39668bcb278cf25cece8459dd4aaf022ae76656dca60403393a380f35b62000cb29062002dc9565b3862000c72565b6040513d6000823e3d90fd5b600080fd5b6009604062000cde62000cf0948962002f3c565b92878152600e87522001549062002f66565b9062000c15565b908482813d831162000d25575b62000d10818362002dfb565b81010312620001b257505162000c0862000bfc565b503d62000d04565b9182819592953d831162000d5d575b62000d48818362002dfb565b81010312620001b25750849051923862000bdd565b503d62000d3c565b62000d8a9150853d871162000d91575b62000d81818362002dfb565b81019062002f87565b3862000bab565b503d62000d75565b60405162461bcd60e51b81526004810185905260126024820152714e6f7420656e6f7567682062616c616e636560701b6044820152606490fd5b91508582813d831162000e01575b62000ded818362002dfb565b81010312620001b257508690513862000b60565b503d62000de1565b60405162461bcd60e51b815260048101859052602160248201527f43616e206f6e6c792062657420647572696e67207468652042657420737461676044820152606560f81b6064820152608490fd5b634e487b7160e01b600052602160045260246000fd5b5034620001b2576040366003190112620001b25760406200018762002d57565b5034620001b25762000ea03662002d29565b9062000eab62002eed565b808352600e60205260ff6004604085200154166004811015620008565760020362000f1b57807fd30f0240ded54a84e468536d207887901b001a13533422d6490120b7b835d34c604062000aa294838752600e60205280600583892001558151908152426020820152a262002faf565b60405162461bcd60e51b815260206004820152601b60248201527f4e6f742074696d6520666f722066696e616c206465636973696f6e00000000006044820152606490fd5b5034620001b25780600319360112620001b2575460405160089190911c6001600160a01b03168152602090f35b5034620001b25780600319360112620001b257600754600854600954600a54600b54600c54600d54604080516001600160a01b0390981688526020880196909652948601939093526060850191909152608084015260a083015260c082015260e090f35b5034620001b25780600319360112620001b2576200100e62002eed565b60008054610100600160a81b03198116825560081c6001600160a01b03167f8be0079c531659141344cd1fd0a4f28419497f9722a3daafe3b4186f6b6457e08280a380f35b5034620001b2576020366003190112620001b25760206200107660043562003436565b604051908152f35b5034620001b25780600319360112620001b25760ff60209154166040519015158152f35b5034620001b257602080600319360112620011be5760043590620010c562002f1d565b818352600e815260ff600460408520015416600481101562000856576200118357818352600e815260036040842001544211156200114d57606060ff6001600080516020620044248339815191529385600052600e815262001140600460406000200180549084861983161790556040519485911662002d1b565b820152426040820152a280f35b6064906040519062461bcd60e51b82526004820152600f60248201526e10995d081a185cc81b9bdd08195b99608a1b6044820152fd5b6064906040519062461bcd60e51b82526004820152601460248201527313db9b1e481dda195b8818995d081a5cc810995d60621b6044820152fd5b5080fd5b5034620001b257620011d43662002d29565b90620011df62002f1d565b806000526020600e815260ff60046040600020015416600481101562000e5857600314620013a4576005546040516370a0823160e01b81523360048201526001600160a01b03909116908281602481855afa801562000cb95785916000916200136e575b501062001329576040516323b872dd60e01b815233600482015230602482015260448101859052908290829060649082906000905af1801562000cb95762001294916000916200130e57506200356c565b81600052600e8152600a604060002001620012b1848254620034d5565b9055816000526002815260406000203360005281526040600020620012d8848254620034d5565b905560405192835242908301527ff2c02d97ca8d01ff66e69e263648e20b91a74b0cc11c7ff56cce2f9bfff9867560403393a380f35b62000d8a9150833d851162000d915762000d81818362002dfb565b60405162461bcd60e51b815260048101839052601e60248201527f4e6f7420656e6f75676820706f6f6c20746f6b656e7320746f20626f6e6400006044820152606490fd5b91508382813d83116200139c575b62001388818362002dfb565b81010312620001b257508490513862001243565b503d6200137c565b6064906040519062461bcd60e51b82526004820152601360248201527243616e6e6f7420626f6e6420616e796d6f726560681b6044820152fd5b5034620001b2576020366003190112620001b2576004358152600e602052604090208054620014106001830162002e1e565b9180808080600160a01b6001900380600283015416976003830154600484015460ff166005850154600686015460ff1691600787015493600888015495600989015497808080600a8d01549c600b01549d600c0154169d600d0154169d600e0154169d600f0154169d60405180608052526102008060805160200152608051016200149b9162002cf4565b9d6080516040015260805160600152608051608001620014bb9162002d1b565b60805160a00152151560805160c0015260805160e00152608051610100015260805161012001526080516101400152608051610160015260805161018001526080516101a001526080516101c001526080516101e0015260805180910390f35b5034620001b25760e0366003190112620001b2576200153962002d40565b6024356044356064356084359160a4359360c435956200155862002eed565b6040519060e0820182811067ffffffffffffffff821117620015ff57889160c09160405260018060a01b0316928381528460208201528560408201528660608201528760808201528860a082015201526bffffffffffffffffffffffff60a01b6007541617600755600855600955600a55600b55600c55600d557f93b95213e7556db6d3ccd592f3cf56417142dc70c80ee046725a2767c57291c76020604051428152a180f35b634e487b7160e01b600052604160045260246000fd5b5034620001b257620016273662002d29565b90806000526020600e8152604060002060018060a01b039081600c820154169160ff600482600d8501541693015416600481101562000e585762000e0957600454166040516370a0823160e01b81523360048201528481602481855afa801562000cb957879160009162001877575b501062000d99576040516323b872dd60e01b815233600482015230602482015260448101879052908490829060649082906000905af1801562000cb957620016e79160009162000d6557506200356c565b6040516318160ddd60e01b80825291908481600481875afa92831562000cb95785916000946200183f575b5060046040518094819382525afa90811562000cb95760009162001809575b506200173d91620034d5565b600081620017ee57505083905b83600052600e8352600960406000200162001767868254620034d5565b9055803b1562000cc5576040516340c10f1960e01b815233600482015260248101929092526000908290604490829084905af1801562000cb957620017dc575b5060405192835242908301527f098c0b2f7af65ae8b055de365f8630f8a0aa432dd785391cc5c358b9890050a560403393a380f35b620017e79062002dc9565b38620017a7565b6009604062000cde62001802948962002f3c565b906200174a565b908482813d831162001837575b62001822818362002dfb565b81010312620001b25750516200173d62001731565b503d62001816565b9182819592953d83116200186f575b6200185a818362002dfb565b81010312620001b25750849051923862001712565b503d6200184e565b91508582813d8311620018a5575b62001891818362002dfb565b81010312620001b257508690513862001696565b503d62001885565b5034620001b257602080600319360112620011be57600435620018cf62002f1d565b808352600e80835260ff6004604086200154166004811015620020be576003036200208657818452808352604084209260018060a01b039182600c86015416600584600d8801541696015495876001881460001462001b645750506040516370a0823160e01b8152336004820152918383602481855afa92831562001b5957889362001b24575b5060405163144613ff60e31b8152908482600481865afa91821562001b1957899262001ae4575b50831562001aad5788939291620019ac918886528652620019a660086040872001548562002f3c565b62002f66565b6004805460405163a9059cbb60e01b8152339281019290925260248201839052919690918691839160449183918991165af18015620009ad5762001a8b575b50803b1562000a7457604051632770a7eb60e21b8152336004820152602481019290925282908290604490829084905af1801562001a805762001a64575b50505b6040519384528301524260408301527f318e0a24a7fc05b12e358902d9d58475434a01768f87a4319fb35dc5b533e98660603393a380f35b62001a6f9062002dc9565b62001a7c57843862001a29565b8480fd5b6040513d84823e3d90fd5b62001aa590853d871162000d915762000d81818362002dfb565b5038620019eb565b60405162461bcd60e51b815260048101869052600f60248201526e4e6f20275965732720636c61696d7360881b6044820152606490fd5b9091508481813d831162001b11575b62001aff818362002dfb565b8101031262000cc5575190386200197d565b503d62001af3565b6040513d8b823e3d90fd5b9092508381813d831162001b51575b62001b3f818362002dfb565b8101031262000cc55751913862001956565b503d62001b33565b6040513d8a823e3d90fd5b90916002880362001d4a5750506040516370a0823160e01b8152336004820152918383602481855afa92831562001b5957889362001d15575b5060405163144613ff60e31b8152908482600481865afa91821562001b1957899262001ce0575b50831562001cac578893929162001bed918886528652620019a660086040872001548562002f3c565b6004805460405163a9059cbb60e01b8152339281019290925260248201839052919690918691839160449183918991165af18015620009ad5762001c8a575b50803b1562000a7457604051632770a7eb60e21b8152336004820152602481019290925282908290604490829084905af1801562001a805762001c72575b505062001a2c565b62001c7d9062002dc9565b62001a7c57843862001c6a565b62001ca490853d871162000d915762000d81818362002dfb565b503862001c2c565b846064916040519162461bcd60e51b8352600483015260248201526d4e6f20274e6f2720636c61696d7360901b6044820152fd5b9091508481813d831162001d0d575b62001cfb818362002dfb565b8101031262000cc55751903862001bc4565b503d62001cef565b9092508381813d831162001d42575b62001d30818362002dfb565b8101031262000cc55751913862001b9d565b503d62001d24565b9094926003881462001d61575b5050505062001a2c565b6040516370a0823160e01b808252336004830152949650929391908584602481855afa93841562001f5a578a9462002051575b506040519283523360048401528583602481885afa92831562001f5a578a9362002018575b5060405163144613ff60e31b8082528782600481875afa91821562001fd8578c9262001fe3575b5060405190815287816004818a5afa801562001fd8578c9062001f9e575b62001e17915062001e108688620034d5565b92620034d5565b91811562001f655762001e3e9291600860408e620019a6948e82528c522001549062002f3c565b6004805460405163a9059cbb60e01b8152339281019290925260248201839052919790918791839160449183918f91165af1801562001f5a5762001f38575b50803b1562001f3457604051632770a7eb60e21b80825233600483015260248201949094529089908290604490829084905af1801562001b195762001f1a575b5090829188933b1562001f165760405191825233600483015260248201529082908290604490829084905af1801562001a805762001efe575b808062001d57565b62001f099062002dc9565b62001a7c57843862001ef6565b8380fd5b62001f2a90989193929862002dc9565b9690913862001ebd565b8880fd5b62001f5290863d881162000d915762000d81818362002dfb565b503862001e7d565b6040513d8c823e3d90fd5b60405162461bcd60e51b8152600481018990526011602482015270596f7520676f74206e6f20636c61696d7360781b6044820152606490fd5b508781813d831162001fd0575b62001fb7818362002dfb565b8101031262001fcc5762001e17905162001dfe565b8b80fd5b503d62001fab565b6040513d8e823e3d90fd5b9091508781813d831162002010575b62001ffe818362002dfb565b8101031262001fcc5751903862001de0565b503d62001ff2565b9092508581813d831162002049575b62002033818362002dfb565b81010312620020455751913862001db9565b8980fd5b503d62002027565b9093508581813d83116200207e575b6200206c818362002dfb565b81010312620020455751923862001d94565b503d62002060565b60405162461bcd60e51b815260048101849052601060248201526f10d85b9b9bdd0818db185a5b481e595d60821b6044820152606490fd5b634e487b7160e01b85526021600452602485fd5b5034620001b257602080600319360112620011be57600435620020f462002f1d565b808352600e825260ff600460408520015416600481101562000856576001036200225a57808352600e8252620021356003604085200154600c5490620034d5565b4211156200221c57620021488162003436565b91818452600e815260408420600b600a820154910154908582820392128183128116918313901516176200220857841380620021b65750600e90828552526040832091600b83015411600014620021a55762000aa29150620033d5565b6001600562000aa293015562002faf565b620021c2575b50505080f35b600e90828552526040832091600a83015411600014620021f157620021e89150620033d5565b388080620021bc565b600260056200220293015562002faf565b620021e8565b634e487b7160e01b85526011600452602485fd5b60405162461bcd60e51b815260048101839052601660248201527515985b1a59185d1a5bdb881a185cc81b9bdd08195b9960521b6044820152606490fd5b60405162461bcd60e51b815260048101839052601860248201527f4e6f742074696d6520746f2076616c69646174652079657400000000000000006044820152606490fd5b5034620001b257602080600319360112620011be57600435620022c162002f1d565b808352600e80835260ff6004604086200154166004811015620020be5760038091036200285757828552818452604085206005015493858060018703620025bd57505090508285526002815260408520338652815260408520549085806040516200232c8162002dde565b60118152703137b73232b92cb2b9a130b630b731b29d60791b84820152604051620023948162002375878201946309710a9d60e41b865260406024840152606483019062002cf4565b670de0b6b3a76400008904604483015203601f19810183528262002dfb565b51906a636f6e736f6c652e6c6f675afa508115620025825760055460405163a9059cbb60e01b808252336004830152602482018590526001600160a01b039590928490839060449082908d908b165af190811562001b19578492620024699262002560575b506200243b6040516200240c8162002dde565b601981527f626f6e64657220746f6b656e207472616e73666572726564210000000000000085820152620035ab565b878a5280835262002454600760408c2001548762002f3c565b90888b528352600a60408b2001549062002f66565b600480546040519485523391850191909152602484018290529095839160449183918c91165af18015620025555762002533575b50620024df604051620024b08162002dde565b601c81527f62617365207573646320746f6b656e207472616e73666572726564210000000083820152620035ab565b838652600281526040862033875281528560408120555b60405194855284015260408301524260608301527fd667abdb7437fef96aeb7b5b3970e9ef1b91d0835be44458d6e7afc23db3c64160803393a380f35b6200254d90823d841162000d915762000d81818362002dfb565b50386200249d565b6040513d89823e3d90fd5b6200257a90843d861162000d915762000d81818362002dfb565b5038620023f9565b6064906040519062461bcd60e51b825260048201526014602482015273596f7520646964206e6f7420626f6e642059657360601b6044820152fd5b600287036200272e5750508386528181526040862033875281526040862054918215620026f35760055460405163a9059cbb60e01b808252336004830152602482018690526001600160a01b039690928590839060449082908e908c165af190811562001f5a5785926200266092620026d1575b50888b528083526200264b600760408d2001548862002f3c565b90898c528352600b60408c2001549062002f66565b600480546040519485523391850191909152602484018290529096839160449183918d91165af1801562001b5957620026af575b508487528152604086203387528152856040812055620024f6565b620026c990833d851162000d915762000d81818362002dfb565b503862002694565b620026eb90843d861162000d915762000d81818362002dfb565b503862002631565b60405162461bcd60e51b8152600481018390526013602482015272596f7520646964206e6f7420626f6e64204e6f60681b6044820152606490fd5b9280919450861462002742575b50620024f6565b915060028152604086203387528152620027756040872054858852838352604088203389528352604088205490620034d5565b918215620028125760055460405163a9059cbb60e01b815233600482015260248101859052908390829060449082908c906001600160a01b03165af1801562001b5957620027f0575b50848752600282526040872033885282528660408120558487528152604086203387528152856040812055386200273b565b6200280a90833d851162000d915762000d81818362002dfb565b5038620027be565b60405162461bcd60e51b815260048101839052601760248201527f596f7520646964206e6f7420626f6e6420617420616c6c0000000000000000006044820152606490fd5b60405162461bcd60e51b815260048101859052601160248201527010d85b9b9bdd081d5b989bdb99081e595d607a1b6044820152606490fd5b5034620001b25780600319360112620001b2576020600154604051908152f35b5034620001b257620028c23662002d29565b90620028cd62002f1d565b8083526020600e815260ff6004604086200154166004811015620020be57600314620013a4576005546040516370a0823160e01b81523360048201526001600160a01b03909116908281602481855afa801562002a2c5785918791620029f1575b501062001329576040516323b872dd60e01b8152336004820152306024820152604481018590529082908290606490829089905af180156200097c576200297d9186916200130e57506200356c565b818452600e8152600b604085200162002998848254620034d5565b90558184526003815260408420338552815260408420620029bb848254620034d5565b905560405192835242908301527fb1bdd93dd3b48d3f743865d0fbb586f73260a4013e39f3b6fd9efe2c4422eaec60403393a380f35b809250848092503d831162002a24575b62002a0d818362002dfb565b8101031262002a2057849051386200292e565b8580fd5b503d62002a01565b6040513d88823e3d90fd5b81903462002ccc57602036600319011262002ccc578062002a5b6101e09262002dab565b828152606060208201528260408201528260608201528260808201528260a08201528260c08201528260e08201528261010082015282610120820152826101408201528261016082015282610180820152826101a0820152826101c082015201526004358152600e602052604081206040519162002ad98362002dab565b8154835262002aeb6001830162002e1e565b602084015260028201546001600160a01b031660408401526003820154606084015260048083015460ff16919082101562002cb857506080830152600581015460a0830152600681015460ff16151560c0830152600781015460e083015260088101546101008301526009810154610120830152600a810154610140830152600b810154610160830152600c8101546001600160a01b03908116610180840152600d82015481166101a0840152600e82015481166101c0840152600f90910154166101e08201526040805160208082528351818301528301516102009282019290925291829162002be29061022084019062002cf4565b9060018060a01b0360408201511660608401526060810151608084015262002c13608082015160a085019062002d1b565b60a081015160c084015260c0810151151560e084015260e081015161010084015261010081015161012084015261012081015161014084015261014081015161016084015261016081015161018084015260018060a01b03610180820151166101a084015260018060a01b036101a0820151166101c084015260018060a01b036101c0820151166101e08401526101e060018060a01b03910151166102008301520390f35b634e487b7160e01b81526021600452602490fd5b50fd5b60005b83811062002ce35750506000910152565b818101518382015260200162002cd2565b9060209162002d0f8151809281855285808601910162002ccf565b601f01601f1916010190565b90600482101562000e585752565b604090600319011262000cc5576004359060243590565b600435906001600160a01b038216820362000cc557565b602435906001600160a01b038216820362000cc557565b90600182811c9216801562002da0575b602083101462002d8a57565b634e487b7160e01b600052602260045260246000fd5b91607f169162002d7e565b610200810190811067ffffffffffffffff821117620015ff57604052565b67ffffffffffffffff8111620015ff57604052565b6040810190811067ffffffffffffffff821117620015ff57604052565b90601f8019910116810190811067ffffffffffffffff821117620015ff57604052565b906040519182600082549262002e348462002d6e565b90818452600194858116908160001462002eab575060011462002e64575b505062002e629250038362002dfb565b565b9093915060005260209081600020936000915b81831062002e9257505062002e629350820101388062002e52565b8554888401850152948501948794509183019162002e77565b91505062002e6294506020925060ff191682840152151560051b820101388062002e52565b67ffffffffffffffff8111620015ff57601f01601f191660200190565b60005460081c6001600160a01b0316330362002f0557565b60405163118cdaa760e01b8152336004820152602490fd5b60ff6000541662002f2a57565b60405163d93c066560e01b8152600490fd5b8181029291811591840414171562002f5057565b634e487b7160e01b600052601160045260246000fd5b811562002f71570490565b634e487b7160e01b600052601260045260246000fd5b9081602091031262000cc55751801515810362000cc55790565b9190820391821162002f5057565b6000818152600e9060209082825260409283822060058101546003811460001462003034575050926003606093620030296004848660008051602062004424833981519152998b60ff9952808652828220600860098201549101555b8b825285522001805490848719831617905584519586911662002d1b565b8301524290820152a2565b919291600181036200335b5750509060018060a01b0360055416858352818452600b8584200154813b1562001f16578551636819cd1960e01b815230600482015260248101919091529083908290604490829084905af18015620033515790839162003339575b50505b620030bf600854868452828552612710918291600988872001549062002f3c565b60048054600754895163a9059cbb60e01b8082526001600160a01b03928316828601529590940460248501819052949594939092918990829060449082908c9088165af180156200332f576200330d575b50836200312d600a548c8a52888b5260098c8b2001549062002f3c565b04936200317489868d86865416908c528a83528d8c8b89600284842001541692519687958694859384528b840160209093929193604081019460018060a01b031681520152565b03925af180156200330357908c94939291620032e1575b50620031a7600954858b52898c5260098d8c2001549062002f3c565b0495838952878a5260ff60068c8b20015416600014620032305750505087866000805160206200442483398151915299966200321d6003976200321760609c986200321762003029998960ff9f9a60049b52878d528560078b8b2001555b8852868c526009898920015462002fa1565b62002fa1565b8c8352818752600884842001556200300b565b81546005548c519283526001600160a01b039085161692820192835260208301889052909350899284928390036040019183918b91165af18015620032d7579760ff9681966200321d600397620032178c988f600080516020620044248339815191529f9960609f91620032179260049b620030299d620032b4575b505062003205565b81620032ce92903d1062000d915762000d81818362002dfb565b508c38620032ac565b88513d88823e3d90fd5b620032fb908b3d8d1162000d915762000d81818362002dfb565b50386200318b565b8b513d8b823e3d90fd5b6200332790893d8b1162000d915762000d81818362002dfb565b503862003110565b8a513d8a823e3d90fd5b620033449062002dc9565b620011be5781386200309b565b85513d85823e3d90fd5b6002146200336c575b50906200309e565b600a60018060a01b0360055416910154813b1562000a74578551636819cd1960e01b815230600482015260248101919091529082908290604490829084905af18015620033cb57156200336457620033c49062002dc9565b3862003364565b85513d84823e3d90fd5b80600052600e60205260008051602062004424833981519152606060ff6200342660406000206004600682019184199260018482541617905501600281549283161790556040519283911662002d1b565b60026020820152426040820152a2565b6200348161271091600b54906200344d8262003485565b80600052600e6020526200346960096040600020015462003485565b600052600e6020526009604060002001549062002f3c565b0490565b60405190602082019063f5b1bba960e01b8252602483015260248252606082019082821067ffffffffffffffff831117620015ff57600092839260405251906a636f6e736f6c652e6c6f675afa50565b9190820180921162002f5057565b9081602091031262000cc557516001600160a01b038116810362000cc55790565b9060405191610e25918284019084821067ffffffffffffffff831117620015ff576200354562003554938695620035ff873960408452604084019062002cf4565b91602081840391015262002cf4565b03906000f0801562000cb9576001600160a01b031690565b156200357457565b60405162461bcd60e51b815260206004820152600f60248201526e151c985b9cd9995c8819985a5b1959608a1b6044820152606490fd5b60008091604051620035eb81620035dc602082019463104c13eb60e21b865260206024840152604483019062002cf4565b03601f19810183528262002dfb565b51906a636f6e736f6c652e6c6f675afa5056fe608060405234620003815762000e25803803806200001d8162000386565b928339810190604081830312620003815780516001600160401b03908181116200038157836200004f918401620003ac565b916020938482015183811162000381576200006b9201620003ac565b825182811162000281576003918254916001958684811c9416801562000376575b8885101462000360578190601f948581116200030a575b508890858311600114620002a35760009262000297575b505060001982861b1c191690861b1783555b8051938411620002815760049586548681811c9116801562000276575b82821014620002615783811162000216575b5080928511600114620001a857509383949184926000956200019c575b50501b92600019911b1c19161781555b3315620001845760058054336001600160a01b03198216811790925560405191906001600160a01b03167f8be0079c531659141344cd1fd0a4f28419497f9722a3daafe3b4186f6b6457e0600080a3610a0690816200041f8239f35b602490600060405191631e4fbdf760e01b8352820152fd5b01519350388062000118565b92919084601f1981168860005285600020956000905b89838310620001fb5750505010620001e0575b50505050811b01815562000128565b01519060f884600019921b161c1916905538808080620001d1565b858701518955909701969485019488935090810190620001be565b87600052816000208480880160051c82019284891062000257575b0160051c019087905b8281106200024a575050620000fb565b600081550187906200023a565b9250819262000231565b602288634e487b7160e01b6000525260246000fd5b90607f1690620000e9565b634e487b7160e01b600052604160045260246000fd5b015190503880620000ba565b90889350601f19831691876000528a6000209260005b8c828210620002f35750508411620002da575b505050811b018355620000cc565b015160001983881b60f8161c19169055388080620002cc565b8385015186558c97909501949384019301620002b9565b90915085600052886000208580850160051c8201928b861062000356575b918a91869594930160051c01915b82811062000346575050620000a3565b600081558594508a910162000336565b9250819262000328565b634e487b7160e01b600052602260045260246000fd5b93607f16936200008c565b600080fd5b6040519190601f01601f191682016001600160401b038111838210176200028157604052565b919080601f84011215620003815782516001600160401b0381116200028157602090620003e2601f8201601f1916830162000386565b92818452828287010111620003815760005b8181106200040a57508260009394955001015290565b8581018301518482018401528201620003f456fe6080604081815260048036101561001557600080fd5b600092833560e01c90816306fdde031461073457508063095ea7b31461068b57806318160ddd1461066c57806323b872dd14610579578063313ce5671461055d57806340c10f19146104b357806370a082311461047c578063715018a61461041c5780638da5cb5b146103f357806395d89b41146102d35780639dc29fac146101f7578063a2309ff8146101d8578063a9059cbb146101a7578063dd62ed3e1461015a5763f2fde38b146100c857600080fd5b34610156576020366003190112610156576100e1610872565b906100ea6108a3565b6001600160a01b03918216928315610140575050600554826bffffffffffffffffffffffff60a01b821617600555167f8be0079c531659141344cd1fd0a4f28419497f9722a3daafe3b4186f6b6457e08380a380f35b51631e4fbdf760e01b8152908101849052602490fd5b8280fd5b5050346101a357806003193601126101a35780602092610178610872565b61018061088d565b6001600160a01b0391821683526001865283832091168252845220549051908152f35b5080fd5b5050346101a357806003193601126101a3576020906101d16101c7610872565b60243590336108cf565b5160018152f35b5050346101a357816003193601126101a3576020906006549051908152f35b508290346101a357826003193601126101a357610212610872565b906024359061021f6108a3565b6001600160a01b0383169283156102bc578385528460205285852054918383106102885750508184957fddf252ad1be2c89b69c2b068fc378daa952ba7f163c4a11628f55a4df523b3ef936020938688528785520381872055816002540360025551908152a380f35b865163391434e360e21b81526001600160a01b03909216908201908152602081018390526040810184905281906060010390fd5b8551634b637e8f60e11b8152808301869052602490fd5b509190346101a357816003193601126101a357805190828454600181811c908083169283156103e9575b60209384841081146103d6578388529081156103ba5750600114610365575b505050829003601f01601f191682019267ffffffffffffffff841183851017610352575082918261034e925282610829565b0390f35b634e487b7160e01b815260418552602490fd5b8787529192508591837f8a35acfbc15ff81a39ae7d344fd709f28e8600b4aa8c65c6b64bfe7fe36bd19b5b8385106103a6575050505083010138808061031c565b805488860183015293019284908201610390565b60ff1916878501525050151560051b840101905038808061031c565b634e487b7160e01b895260228a52602489fd5b91607f16916102fd565b5050346101a357816003193601126101a35760055490516001600160a01b039091168152602090f35b83346104795780600319360112610479576104356108a3565b600580546001600160a01b0319811690915581906001600160a01b03167f8be0079c531659141344cd1fd0a4f28419497f9722a3daafe3b4186f6b6457e08280a380f35b80fd5b5050346101a35760203660031901126101a35760209181906001600160a01b036104a4610872565b16815280845220549051908152f35b508290346101a357826003193601126101a3576104ce610872565b90602435916104db6108a3565b6001600160a01b03169081156105465750827fddf252ad1be2c89b69c2b068fc378daa952ba7f163c4a11628f55a4df523b3ef60206105409596610521866002546109ad565b60025584845283825280842086815401905551858152a36006546109ad565b60065580f35b845163ec442f0560e01b8152908101849052602490fd5b5050346101a357816003193601126101a3576020905160128152f35b50823461047957606036600319011261047957610594610872565b61059c61088d565b916044359360018060a01b0383168083526001602052868320338452602052868320549160001983036105d8575b6020886101d18989896108cf565b868310610640578115610629573315610612575082526001602090815286832033845281529186902090859003905582906101d1876105ca565b8751634a1406b160e11b8152908101849052602490fd5b875163e602df0560e01b8152908101849052602490fd5b8751637dc7a0d960e11b8152339181019182526020820193909352604081018790528291506060010390fd5b5050346101a357816003193601126101a3576020906002549051908152f35b50346101565781600319360112610156576106a4610872565b60243590331561071d576001600160a01b031691821561070657508083602095338152600187528181208582528752205582519081527f8c5be1e5ebec7d5bd14f71427d1e84f3dd0314c0f7b2291e5b200ac8c7c3b925843392a35160018152f35b8351634a1406b160e11b8152908101859052602490fd5b835163e602df0560e01b8152808401869052602490fd5b849150833461015657826003193601126101565782600354600181811c9080831692831561081f575b60209384841081146103d65783885290811561080357506001146107ad57505050829003601f01601f191682019267ffffffffffffffff841183851017610352575082918261034e925282610829565b600387529192508591837fc2575a0e9e593c00f959f8c92f12db2869c3395a3b0502d05e2516446f71f85b5b8385106107ef575050505083010185808061031c565b8054888601830152930192849082016107d9565b60ff1916878501525050151560051b840101905085808061031c565b91607f169161075d565b6020808252825181830181905290939260005b82811061085e57505060409293506000838284010152601f8019910116010190565b81810186015184820160400152850161083c565b600435906001600160a01b038216820361088857565b600080fd5b602435906001600160a01b038216820361088857565b6005546001600160a01b031633036108b757565b60405163118cdaa760e01b8152336004820152602490fd5b916001600160a01b03808416928315610994571692831561097b5760009083825281602052604082205490838210610949575091604082827fddf252ad1be2c89b69c2b068fc378daa952ba7f163c4a11628f55a4df523b3ef958760209652828652038282205586815220818154019055604051908152a3565b60405163391434e360e21b81526001600160a01b03919091166004820152602481019190915260448101839052606490fd5b60405163ec442f0560e01b815260006004820152602490fd5b604051634b637e8f60e11b815260006004820152602490fd5b919082018092116109ba57565b634e487b7160e01b600052601160045260246000fdfea2646970667358221220e4b9db63b454b462baa5ef15ed45070ecdd7274888d6229a7144081cd121678664736f6c63430008140033bd3203fdd2082d9b9424d84de9dbb1f715066832cd1f2b7279553b5ffbedeb4da2646970667358221220d20b8bd9f3c2cb45f5d8e569a116ca99e7ba813095152c838bea14f2d3f6a71164736f6c63430008140033",
    "linkReferences": {}
  },
  "methodIdentifiers": {
    "betId()": "27bce91b",
    "betSettings()": "869dc336",
    "bondNo(uint256,uint256)": "258d1911",
    "bondYes(uint256,uint256)": "4646e0a5",
    "bonderNoBonds(uint256,address)": "a5521834",
    "bonderYesBonds(uint256,address)": "6f42c949",
    "buyNo(uint256,uint256)": "a9f6b058",
    "buyYes(uint256,uint256)": "399af502",
    "changeFromBet(uint256)": "5169831d",
    "changeFromValidate(uint256)": "2ff6f5dc",
    "claim(uint256)": "379607f5",
    "createBet(string,uint256)": "d6704206",
    "getBetSettings()": "17625295",
    "getBetStruct(uint256)": "14fe6c9d",
    "getBonderNoBonds(uint256,address)": "f8d02073",
    "getBonderYesBonds(uint256,address)": "db157a0a",
    "getDisputeThresholdAmt(uint256)": "64143a55",
    "getEnumValue(uint256)": "b56202c8",
    "idToBet(uint256)": "4539588e",
    "owner()": "8da5cb5b",
    "paused()": "5c975abb",
    "renounceOwnership()": "715018a6",
    "setBetSettings(address,uint256,uint256,uint256,uint256,uint256,uint256)": "3b0161c9",
    "setFinalDecision(uint256,uint256)": "a27962b0",
    "setPause(bool)": "bedb86fb",
    "transferOwnership(address)": "f2fde38b",
    "unbond(uint256)": "27de9e32"
  },
  "id": 49
}