{"abi":[{"type":"constructor","inputs":[{"name":"name_","type":"string","internalType":"string"},{"name":"symbol_","type":"string","internalType":"string"}],"stateMutability":"nonpayable"},{"type":"function","name":"approve","inputs":[{"name":"to","type":"address","internalType":"address"},{"name":"tokenId","type":"uint256","internalType":"uint256"}],"outputs":[],"stateMutability":"nonpayable"},{"type":"function","name":"balanceOf","inputs":[{"name":"","type":"address","internalType":"address"}],"outputs":[{"name":"","type":"uint256","internalType":"uint256"}],"stateMutability":"view"},{"type":"function","name":"baseURI","inputs":[],"outputs":[{"name":"","type":"string","internalType":"string"}],"stateMutability":"view"},{"type":"function","name":"getApproved","inputs":[{"name":"tokenId","type":"uint256","internalType":"uint256"}],"outputs":[{"name":"operator","type":"address","internalType":"address"}],"stateMutability":"view"},{"type":"function","name":"isApprovedForAll","inputs":[{"name":"owner","type":"address","internalType":"address"},{"name":"operator","type":"address","internalType":"address"}],"outputs":[{"name":"","type":"bool","internalType":"bool"}],"stateMutability":"view"},{"type":"function","name":"name","inputs":[],"outputs":[{"name":"","type":"string","internalType":"string"}],"stateMutability":"view"},{"type":"function","name":"ownerOf","inputs":[{"name":"","type":"uint256","internalType":"uint256"}],"outputs":[{"name":"","type":"address","internalType":"address"}],"stateMutability":"view"},{"type":"function","name":"safeTransferFrom","inputs":[{"name":"from","type":"address","internalType":"address"},{"name":"to","type":"address","internalType":"address"},{"name":"tokenId","type":"uint256","internalType":"uint256"}],"outputs":[],"stateMutability":"nonpayable"},{"type":"function","name":"safeTransferFrom","inputs":[{"name":"from","type":"address","internalType":"address"},{"name":"to","type":"address","internalType":"address"},{"name":"tokenId","type":"uint256","internalType":"uint256"},{"name":"data","type":"bytes","internalType":"bytes"}],"outputs":[],"stateMutability":"nonpayable"},{"type":"function","name":"setApprovalForAll","inputs":[{"name":"operator","type":"address","internalType":"address"},{"name":"approved","type":"bool","internalType":"bool"}],"outputs":[],"stateMutability":"nonpayable"},{"type":"function","name":"setBaseURI","inputs":[{"name":"baseURI_","type":"string","internalType":"string"}],"outputs":[],"stateMutability":"nonpayable"},{"type":"function","name":"supportsInterface","inputs":[{"name":"interfaceId","type":"bytes4","internalType":"bytes4"}],"outputs":[{"name":"result","type":"bool","internalType":"bool"}],"stateMutability":"view"},{"type":"function","name":"symbol","inputs":[],"outputs":[{"name":"","type":"string","internalType":"string"}],"stateMutability":"view"},{"type":"function","name":"tokenApprovals","inputs":[{"name":"","type":"uint256","internalType":"uint256"}],"outputs":[{"name":"","type":"address","internalType":"address"}],"stateMutability":"view"},{"type":"function","name":"tokenURI","inputs":[{"name":"tokenId","type":"uint256","internalType":"uint256"}],"outputs":[{"name":"","type":"string","internalType":"string"}],"stateMutability":"view"},{"type":"function","name":"totalMinted","inputs":[],"outputs":[{"name":"","type":"uint256","internalType":"uint256"}],"stateMutability":"view"},{"type":"function","name":"totalSupply","inputs":[],"outputs":[{"name":"","type":"uint256","internalType":"uint256"}],"stateMutability":"view"},{"type":"function","name":"transferFrom","inputs":[{"name":"from","type":"address","internalType":"address"},{"name":"to","type":"address","internalType":"address"},{"name":"tokenId","type":"uint256","internalType":"uint256"}],"outputs":[],"stateMutability":"nonpayable"},{"type":"event","name":"Approval","inputs":[{"name":"owner","type":"address","indexed":true,"internalType":"address"},{"name":"approved","type":"address","indexed":true,"internalType":"address"},{"name":"tokenId","type":"uint256","indexed":true,"internalType":"uint256"}],"anonymous":false},{"type":"event","name":"ApprovalForAll","inputs":[{"name":"owner","type":"address","indexed":true,"internalType":"address"},{"name":"operator","type":"address","indexed":true,"internalType":"address"},{"name":"approved","type":"bool","indexed":false,"internalType":"bool"}],"anonymous":false},{"type":"event","name":"Transfer","inputs":[{"name":"from","type":"address","indexed":true,"internalType":"address"},{"name":"to","type":"address","indexed":true,"internalType":"address"},{"name":"tokenId","type":"uint256","indexed":true,"internalType":"uint256"}],"anonymous":false}],"bytecode":{"object":"0x608060405234620003125762001411803803806200001d8162000316565b928339810190604081830312620003125780516001600160401b03908181116200031257836200004f9184016200033c565b916020938482015183811162000312576200006b92016200033c565b825190828211620002fe575f8054926001958685811c95168015620002f3575b88861014620002df578190601f958681116200028c575b508890868311600114620002295784926200021d575b50505f19600383901b1c191690861b1781555b8151938411620002095784548581811c91168015620001fe575b87821014620001ea57838111620001a2575b50859284116001146200013e57839495509262000132575b50505f19600383901b1c191690821b1790555b6040516110649081620003ad8239f35b015190505f806200010f565b9190601f1984169585845280842093905b8782106200018a5750508385961062000171575b505050811b01905562000122565b01515f1960f88460031b161c191690555f808062000163565b8087859682949686015181550195019301906200014f565b8582528682208480870160051c820192898810620001e0575b0160051c019086905b828110620001d4575050620000f7565b838155018690620001c4565b92508192620001bb565b634e487b7160e01b82526022600452602482fd5b90607f1690620000e5565b634e487b7160e01b81526041600452602490fd5b015190505f80620000b8565b8480528985208994509190601f198416865b8c8282106200027557505084116200025c575b505050811b018155620000cb565b01515f1960f88460031b161c191690555f80806200024e565b8385015186558c979095019493840193016200023b565b9091508380528884208680850160051c8201928b8610620002d5575b918a91869594930160051c01915b828110620002c6575050620000a2565b8681558594508a9101620002b6565b92508192620002a8565b634e487b7160e01b83526022600452602483fd5b94607f16946200008b565b634e487b7160e01b5f52604160045260245ffd5b5f80fd5b6040519190601f01601f191682016001600160401b03811183821017620002fe57604052565b919080601f84011215620003125782516001600160401b038111620002fe5760209062000372601f8201601f1916830162000316565b9281845282828701011162000312575f5b818110620003985750825f9394955001015290565b85810183015184820184015282016200038356fe6080604081815260049182361015610015575f80fd5b5f92833560e01c91826301ffc9a714610a765750816306fdde03146109cf578163081812fc1461099e578163095ea7b31461089b57816318160ddd1461087c57816323b872dd1461086457816342842e0e1461083b57816355f804b3146106cf5781636352211e1461069c5781636c0360eb1461060657816370a08231146105d057816395d89b4114610505578163a22cb46514610480578163a2309ff814610461578163acdeb5b91461042a578163b88d4fde146103c2578163c87b56dd14610138575063e985e9c5146100e8575f80fd5b3461013457806003193601126101345760ff81602093610106610b97565b61010e610bb1565b6001600160a01b0391821683526007875283832091168252855220549151911615158152f35b5080fd5b8284346103bf57602080600319360112610134578335808352600582528383205461016d906001600160a01b03161515610c4e565b6008549461017a86610ac0565b156103a3578192829185937a184f03e93ff9f4daa797ed6e38ed64bf6a1f0100000000000000009081811015610396575b50506d04ee2d6d415b85acef810000000080841015610388575b50662386f26fc1000080841015610379575b506305f5e1008084101561036a575b506127108084101561035c575b5050606482101561034c575b600a80921015610342575b6001968784019261023261021d85610bfc565b9461022a8a519687610b28565b808652610bfc565b9589602185870197601f19809a01368a37870101905b610314575b505050865195809861025e83610ac0565b928181169081156102f357506001146102ab575b50505050856102a79661028e61029b9594879451938491610b4a565b0103908101835282610b28565b905b5191829182610b6b565b0390f35b9091929850600882525f8051602061100f8339815191525b8383106102e057505050840190950194818161028e6102a7610272565b80548884018b01529189019181016102c3565b60ff191689860152505050801515028501019550818161028e6102a7610272565b5f19019082906f181899199a1a9b1b9c1cb0b131b232b360811b8282061a835304908a82610248575061024d565b916001019161020a565b91906064600291049101916101ff565b9301929091049087806101f3565b600891949304920192886101e6565b601091949304920192886101d7565b8291949304920192886101c5565b88955004925088806101ab565b5050506102a792508151906103b782610af8565b81529061029d565b80fd5b839034610134576080366003190112610134576103dd610b97565b6103e5610bb1565b9060643567ffffffffffffffff81116104265736602382011215610426576104239381602461041993369301359101610c18565b9160443591610f4f565b80f35b8480fd5b90503461045d57602036600319011261045d5735825260066020908152918190205490516001600160a01b039091168152f35b8280fd5b5050346101345781600319360112610134576020906003549051908152f35b50503461013457806003193601126101345761049a610b97565b90602435908115158092036105015733845260076020528084209260018060a01b03169283855260205280842060ff1981541660ff8416179055519081527f17307eab39ab6107e8899845ad3d59bd9653f200f220920489ca2b5937696c3160203392a380f35b8380fd5b5050346101345781600319360112610134578051908260019081549161052a83610ac0565b9182865260209382811690815f146105ae5750600114610556575b6102a7868661029d828b0383610b28565b9295508083527fb10e2d527612073b26eecdfd717e6a320cf44b4afac2b0732d9fcbe2b7fa0cf65b82841061059b57505050826102a79461029d92820101945f610545565b805486850188015292860192810161057e565b60ff191687860152505050151560051b830101925061029d826102a75f610545565b90503461045d57602036600319011261045d5760209282916001600160a01b036105f8610b97565b168252845220549051908152f35b5050346101345781600319360112610134578051908260085461062881610ac0565b9081855260209260019182811690815f146105ae5750600114610656576102a7868661029d828b0383610b28565b929550600883525f8051602061100f8339815191525b82841061068957505050826102a79461029d92820101945f610545565b805486850188015292860192810161066c565b90503461045d57602036600319011261045d5735825260056020908152918190205490516001600160a01b039091168152f35b83346103bf576020806003193601126101345767ffffffffffffffff9083358281116105015736602382011215610501576107139036906024818801359101610c18565b9384519283116108285750610729600854610ac0565b601f81116107d9575b5080601f831160011461076c57508293829392610761575b50508160011b915f199060031b1c19161760085580f35b01519050838061074a565b60088452601f198316945f8051602061100f833981519152929185905b8782106107c15750508360019596106107a9575b505050811b0160085580f35b01515f1960f88460031b161c1916905583808061079d565b80600185968294968601518155019501930190610789565b600884525f8051602061100f833981519152601f840160051c81019183851061081e575b601f0160051c01905b8181106108135750610732565b848155600101610806565b90915081906107fd565b634e487b7160e01b845260419052602483fd5b505034610134576104239061084f36610bc7565b9192519261085c84610af8565b858452610f4f565b83346103bf5761042361087636610bc7565b91610ccf565b5050346101345781600319360112610134576020906002549051908152f35b90503461045d578160031936011261045d576108b5610b97565b906024359283855260206005815260018060a01b0392838388205416338114908115610982575b501561093057508486526006815281862080546001600160a01b031916948416948517905560059052842054167f8c5be1e5ebec7d5bd14f71427d1e84f3dd0314c0f7b2291e5b200ac8c7c3b9258480a480f35b915162461bcd60e51b815291820152602860248201527f43616c6c6572206973206e6f74206f776e6572206e6f7220617070726f76656460448201526708199bdc88185b1b60c21b6064820152608490fd5b8852506007825282872033885282528287205460ff165f6108dc565b8284346103bf5760203660031901126103bf57506109be60209235610c9a565b90516001600160a01b039091168152f35b5050346101345781600319360112610134578051908280546109f081610ac0565b9081855260209260019182811690815f146105ae5750600114610a1e576102a7868661029d828b0383610b28565b8080949750527f290decd9548b62a8d60345a988386fc84ba6bc95484008f6362f93160ef3e5635b828410610a6357505050826102a79461029d92820101945f610545565b8054868501880152928601928101610a46565b84913461045d57602036600319011261045d57356001600160e01b03198116810361045d576020925060e01c635b5e139f8114906301ffc9a76380ac58cd82149114171715158152f35b90600182811c92168015610aee575b6020831014610ada57565b634e487b7160e01b5f52602260045260245ffd5b91607f1691610acf565b6020810190811067ffffffffffffffff821117610b1457604052565b634e487b7160e01b5f52604160045260245ffd5b90601f8019910116810190811067ffffffffffffffff821117610b1457604052565b5f5b838110610b5b5750505f910152565b8181015183820152602001610b4c565b60409160208252610b8b8151809281602086015260208686019101610b4a565b601f01601f1916010190565b600435906001600160a01b0382168203610bad57565b5f80fd5b602435906001600160a01b0382168203610bad57565b6060906003190112610bad576001600160a01b03906004358281168103610bad57916024359081168103610bad579060443590565b67ffffffffffffffff8111610b1457601f01601f191660200190565b929192610c2482610bfc565b91610c326040519384610b28565b829481845281830111610bad578281602093845f960137010152565b15610c5557565b60405162461bcd60e51b815260206004820152601c60248201527f546f6b656e206973206e6f74206f776e656420627920616e796f6e65000000006044820152606490fd5b5f818152600560205260409020546001600160a01b039190610cbf9083161515610c4e565b5f52600660205260405f20541690565b5f8381526005602081815260408084205494956001600160a01b039591939291861615610f1457878552828252858486205416803314908115610eff575b8115610ee3575b5015610ea1578516958615610e6a5787855282825285808587205416911603610e155790839291877fddf252ad1be2c89b69c2b068fc378daa952ba7f163c4a11628f55a4df523b3ef955281815287848785822054169788155f14610dbe57505050610d81600254610fec565b600255610d8f600354610fec565b6003555b868452600481528284208054600101905587845252812080546001600160a01b0319168517905580a4565b6006845285822080546001600160a01b031916905584845285822054167f8c5be1e5ebec7d5bd14f71427d1e84f3dd0314c0f7b2291e5b200ac8c7c3b9258280a48584526004815282842080545f19019055610d93565b60849083519062461bcd60e51b82526004820152602960248201527f4552433732313a207472616e73666572206f6620746f6b656e2074686174206960448201526839903737ba1037bbb760b91b6064820152fd5b835162461bcd60e51b815260048101839052601060248201526f24b73b30b634b2103932b1b2b4bb32b960811b6044820152606490fd5b60648285519062461bcd60e51b825280600483015260248201527f43616c6c6572206973206e6f74206f776e6572206e6f7220617070726f7665646044820152fd5b8652506007825283852033865282528385205460ff165f610d14565b90503387610f0c8b610c9a565b161490610d0d565b835162461bcd60e51b8152600481018390526014602482015273151bdad95b88191bd95cc81b9bdd08195e1a5cdd60621b6044820152606490fd5b9060a460209394610f61868486610ccf565b60405195869463150b7a028652338787015260018060a01b03166040860152606085015260808085015280518091818060a0880152610fd8575b505001905f601c8401915af115610fca575b5163757a42ff60e11b01610fbd57565b63d1a57ed65f526004601cfd5b3d15610fad573d5f823e3d90fd5b818760c08801920160045afa50805f610f9b565b5f198114610ffa5760010190565b634e487b7160e01b5f52601160045260245ffdfef3f7a9fe364faab93b216da50a3214154f22a0a2b415b23a84c8169e8b636ee3a264697066735822122072862e6cee6f91b7e890097b8c2d358d07b5a522cc36110060e058b8b4b0889164736f6c63430008150033","linkReferences":{}},"methodIdentifiers":{"approve(address,uint256)":"095ea7b3","balanceOf(address)":"70a08231","baseURI()":"6c0360eb","getApproved(uint256)":"081812fc","isApprovedForAll(address,address)":"e985e9c5","name()":"06fdde03","ownerOf(uint256)":"6352211e","safeTransferFrom(address,address,uint256)":"42842e0e","safeTransferFrom(address,address,uint256,bytes)":"b88d4fde","setApprovalForAll(address,bool)":"a22cb465","setBaseURI(string)":"55f804b3","supportsInterface(bytes4)":"01ffc9a7","symbol()":"95d89b41","tokenApprovals(uint256)":"acdeb5b9","tokenURI(uint256)":"c87b56dd","totalMinted()":"a2309ff8","totalSupply()":"18160ddd","transferFrom(address,address,uint256)":"23b872dd"},"id":34}