{
  "abi": [
    {
      "inputs": [
        {
          "internalType": "string",
          "name": "name",
          "type": "string"
        },
        {
          "internalType": "string",
          "name": "symbol",
          "type": "string"
        }
      ],
      "stateMutability": "nonpayable",
      "type": "constructor"
    },
    {
      "inputs": [
        {
          "internalType": "address",
          "name": "spender",
          "type": "address"
        },
        {
          "internalType": "uint256",
          "name": "allowance",
          "type": "uint256"
        },
        {
          "internalType": "uint256",
          "name": "needed",
          "type": "uint256"
        }
      ],
      "name": "ERC20InsufficientAllowance",
      "type": "error"
    },
    {
      "inputs": [
        {
          "internalType": "address",
          "name": "sender",
          "type": "address"
        },
        {
          "internalType": "uint256",
          "name": "balance",
          "type": "uint256"
        },
        {
          "internalType": "uint256",
          "name": "needed",
          "type": "uint256"
        }
      ],
      "name": "ERC20InsufficientBalance",
      "type": "error"
    },
    {
      "inputs": [
        {
          "internalType": "address",
          "name": "approver",
          "type": "address"
        }
      ],
      "name": "ERC20InvalidApprover",
      "type": "error"
    },
    {
      "inputs": [
        {
          "internalType": "address",
          "name": "receiver",
          "type": "address"
        }
      ],
      "name": "ERC20InvalidReceiver",
      "type": "error"
    },
    {
      "inputs": [
        {
          "internalType": "address",
          "name": "sender",
          "type": "address"
        }
      ],
      "name": "ERC20InvalidSender",
      "type": "error"
    },
    {
      "inputs": [
        {
          "internalType": "address",
          "name": "spender",
          "type": "address"
        }
      ],
      "name": "ERC20InvalidSpender",
      "type": "error"
    },
    {
      "inputs": [
        {
          "internalType": "address",
          "name": "owner",
          "type": "address"
        }
      ],
      "name": "OwnableInvalidOwner",
      "type": "error"
    },
    {
      "inputs": [
        {
          "internalType": "address",
          "name": "account",
          "type": "address"
        }
      ],
      "name": "OwnableUnauthorizedAccount",
      "type": "error"
    },
    {
      "anonymous": false,
      "inputs": [
        {
          "indexed": true,
          "internalType": "address",
          "name": "owner",
          "type": "address"
        },
        {
          "indexed": true,
          "internalType": "address",
          "name": "spender",
          "type": "address"
        },
        {
          "indexed": false,
          "internalType": "uint256",
          "name": "value",
          "type": "uint256"
        }
      ],
      "name": "Approval",
      "type": "event"
    },
    {
      "anonymous": false,
      "inputs": [
        {
          "indexed": true,
          "internalType": "address",
          "name": "previousOwner",
          "type": "address"
        },
        {
          "indexed": true,
          "internalType": "address",
          "name": "newOwner",
          "type": "address"
        }
      ],
      "name": "OwnershipTransferred",
      "type": "event"
    },
    {
      "anonymous": false,
      "inputs": [
        {
          "indexed": true,
          "internalType": "address",
          "name": "from",
          "type": "address"
        },
        {
          "indexed": true,
          "internalType": "address",
          "name": "to",
          "type": "address"
        },
        {
          "indexed": false,
          "internalType": "uint256",
          "name": "value",
          "type": "uint256"
        }
      ],
      "name": "Transfer",
      "type": "event"
    },
    {
      "inputs": [
        {
          "internalType": "address",
          "name": "owner",
          "type": "address"
        },
        {
          "internalType": "address",
          "name": "spender",
          "type": "address"
        }
      ],
      "name": "allowance",
      "outputs": [
        {
          "internalType": "uint256",
          "name": "",
          "type": "uint256"
        }
      ],
      "stateMutability": "view",
      "type": "function"
    },
    {
      "inputs": [
        {
          "internalType": "address",
          "name": "spender",
          "type": "address"
        },
        {
          "internalType": "uint256",
          "name": "value",
          "type": "uint256"
        }
      ],
      "name": "approve",
      "outputs": [
        {
          "internalType": "bool",
          "name": "",
          "type": "bool"
        }
      ],
      "stateMutability": "nonpayable",
      "type": "function"
    },
    {
      "inputs": [
        {
          "internalType": "address",
          "name": "account",
          "type": "address"
        }
      ],
      "name": "balanceOf",
      "outputs": [
        {
          "internalType": "uint256",
          "name": "",
          "type": "uint256"
        }
      ],
      "stateMutability": "view",
      "type": "function"
    },
    {
      "inputs": [
        {
          "internalType": "address",
          "name": "_account",
          "type": "address"
        },
        {
          "internalType": "uint256",
          "name": "_amount",
          "type": "uint256"
        }
      ],
      "name": "burn",
      "outputs": [],
      "stateMutability": "nonpayable",
      "type": "function"
    },
    {
      "inputs": [],
      "name": "decimals",
      "outputs": [
        {
          "internalType": "uint8",
          "name": "",
          "type": "uint8"
        }
      ],
      "stateMutability": "view",
      "type": "function"
    },
    {
      "inputs": [
        {
          "internalType": "address",
          "name": "_account",
          "type": "address"
        },
        {
          "internalType": "uint256",
          "name": "_amount",
          "type": "uint256"
        }
      ],
      "name": "mint",
      "outputs": [],
      "stateMutability": "nonpayable",
      "type": "function"
    },
    {
      "inputs": [],
      "name": "name",
      "outputs": [
        {
          "internalType": "string",
          "name": "",
          "type": "string"
        }
      ],
      "stateMutability": "view",
      "type": "function"
    },
    {
      "inputs": [],
      "name": "owner",
      "outputs": [
        {
          "internalType": "address",
          "name": "",
          "type": "address"
        }
      ],
      "stateMutability": "view",
      "type": "function"
    },
    {
      "inputs": [],
      "name": "renounceOwnership",
      "outputs": [],
      "stateMutability": "nonpayable",
      "type": "function"
    },
    {
      "inputs": [],
      "name": "symbol",
      "outputs": [
        {
          "internalType": "string",
          "name": "",
          "type": "string"
        }
      ],
      "stateMutability": "view",
      "type": "function"
    },
    {
      "inputs": [],
      "name": "totalMinted",
      "outputs": [
        {
          "internalType": "uint256",
          "name": "",
          "type": "uint256"
        }
      ],
      "stateMutability": "view",
      "type": "function"
    },
    {
      "inputs": [],
      "name": "totalSupply",
      "outputs": [
        {
          "internalType": "uint256",
          "name": "",
          "type": "uint256"
        }
      ],
      "stateMutability": "view",
      "type": "function"
    },
    {
      "inputs": [
        {
          "internalType": "address",
          "name": "to",
          "type": "address"
        },
        {
          "internalType": "uint256",
          "name": "value",
          "type": "uint256"
        }
      ],
      "name": "transfer",
      "outputs": [
        {
          "internalType": "bool",
          "name": "",
          "type": "bool"
        }
      ],
      "stateMutability": "nonpayable",
      "type": "function"
    },
    {
      "inputs": [
        {
          "internalType": "address",
          "name": "from",
          "type": "address"
        },
        {
          "internalType": "address",
          "name": "to",
          "type": "address"
        },
        {
          "internalType": "uint256",
          "name": "value",
          "type": "uint256"
        }
      ],
      "name": "transferFrom",
      "outputs": [
        {
          "internalType": "bool",
          "name": "",
          "type": "bool"
        }
      ],
      "stateMutability": "nonpayable",
      "type": "function"
    },
    {
      "inputs": [
        {
          "internalType": "address",
          "name": "newOwner",
          "type": "address"
        }
      ],
      "name": "transferOwnership",
      "outputs": [],
      "stateMutability": "nonpayable",
      "type": "function"
    }
  ],
  "bytecode": {
    "object": "0x608060405234620003815762000e25803803806200001d8162000386565b928339810190604081830312620003815780516001600160401b03908181116200038157836200004f918401620003ac565b916020938482015183811162000381576200006b9201620003ac565b825182811162000281576003918254916001958684811c9416801562000376575b8885101462000360578190601f948581116200030a575b508890858311600114620002a35760009262000297575b505060001982861b1c191690861b1783555b8051938411620002815760049586548681811c9116801562000276575b82821014620002615783811162000216575b5080928511600114620001a857509383949184926000956200019c575b50501b92600019911b1c19161781555b3315620001845760058054336001600160a01b03198216811790925560405191906001600160a01b03167f8be0079c531659141344cd1fd0a4f28419497f9722a3daafe3b4186f6b6457e0600080a3610a0690816200041f8239f35b602490600060405191631e4fbdf760e01b8352820152fd5b01519350388062000118565b92919084601f1981168860005285600020956000905b89838310620001fb5750505010620001e0575b50505050811b01815562000128565b01519060f884600019921b161c1916905538808080620001d1565b858701518955909701969485019488935090810190620001be565b87600052816000208480880160051c82019284891062000257575b0160051c019087905b8281106200024a575050620000fb565b600081550187906200023a565b9250819262000231565b602288634e487b7160e01b6000525260246000fd5b90607f1690620000e9565b634e487b7160e01b600052604160045260246000fd5b015190503880620000ba565b90889350601f19831691876000528a6000209260005b8c828210620002f35750508411620002da575b505050811b018355620000cc565b015160001983881b60f8161c19169055388080620002cc565b8385015186558c97909501949384019301620002b9565b90915085600052886000208580850160051c8201928b861062000356575b918a91869594930160051c01915b82811062000346575050620000a3565b600081558594508a910162000336565b9250819262000328565b634e487b7160e01b600052602260045260246000fd5b93607f16936200008c565b600080fd5b6040519190601f01601f191682016001600160401b038111838210176200028157604052565b919080601f84011215620003815782516001600160401b0381116200028157602090620003e2601f8201601f1916830162000386565b92818452828287010111620003815760005b8181106200040a57508260009394955001015290565b8581018301518482018401528201620003f456fe6080604081815260048036101561001557600080fd5b600092833560e01c90816306fdde031461073457508063095ea7b31461068b57806318160ddd1461066c57806323b872dd14610579578063313ce5671461055d57806340c10f19146104b357806370a082311461047c578063715018a61461041c5780638da5cb5b146103f357806395d89b41146102d35780639dc29fac146101f7578063a2309ff8146101d8578063a9059cbb146101a7578063dd62ed3e1461015a5763f2fde38b146100c857600080fd5b34610156576020366003190112610156576100e1610872565b906100ea6108a3565b6001600160a01b03918216928315610140575050600554826bffffffffffffffffffffffff60a01b821617600555167f8be0079c531659141344cd1fd0a4f28419497f9722a3daafe3b4186f6b6457e08380a380f35b51631e4fbdf760e01b8152908101849052602490fd5b8280fd5b5050346101a357806003193601126101a35780602092610178610872565b61018061088d565b6001600160a01b0391821683526001865283832091168252845220549051908152f35b5080fd5b5050346101a357806003193601126101a3576020906101d16101c7610872565b60243590336108cf565b5160018152f35b5050346101a357816003193601126101a3576020906006549051908152f35b508290346101a357826003193601126101a357610212610872565b906024359061021f6108a3565b6001600160a01b0383169283156102bc578385528460205285852054918383106102885750508184957fddf252ad1be2c89b69c2b068fc378daa952ba7f163c4a11628f55a4df523b3ef936020938688528785520381872055816002540360025551908152a380f35b865163391434e360e21b81526001600160a01b03909216908201908152602081018390526040810184905281906060010390fd5b8551634b637e8f60e11b8152808301869052602490fd5b509190346101a357816003193601126101a357805190828454600181811c908083169283156103e9575b60209384841081146103d6578388529081156103ba5750600114610365575b505050829003601f01601f191682019267ffffffffffffffff841183851017610352575082918261034e925282610829565b0390f35b634e487b7160e01b815260418552602490fd5b8787529192508591837f8a35acfbc15ff81a39ae7d344fd709f28e8600b4aa8c65c6b64bfe7fe36bd19b5b8385106103a6575050505083010138808061031c565b805488860183015293019284908201610390565b60ff1916878501525050151560051b840101905038808061031c565b634e487b7160e01b895260228a52602489fd5b91607f16916102fd565b5050346101a357816003193601126101a35760055490516001600160a01b039091168152602090f35b83346104795780600319360112610479576104356108a3565b600580546001600160a01b0319811690915581906001600160a01b03167f8be0079c531659141344cd1fd0a4f28419497f9722a3daafe3b4186f6b6457e08280a380f35b80fd5b5050346101a35760203660031901126101a35760209181906001600160a01b036104a4610872565b16815280845220549051908152f35b508290346101a357826003193601126101a3576104ce610872565b90602435916104db6108a3565b6001600160a01b03169081156105465750827fddf252ad1be2c89b69c2b068fc378daa952ba7f163c4a11628f55a4df523b3ef60206105409596610521866002546109ad565b60025584845283825280842086815401905551858152a36006546109ad565b60065580f35b845163ec442f0560e01b8152908101849052602490fd5b5050346101a357816003193601126101a3576020905160128152f35b50823461047957606036600319011261047957610594610872565b61059c61088d565b916044359360018060a01b0383168083526001602052868320338452602052868320549160001983036105d8575b6020886101d18989896108cf565b868310610640578115610629573315610612575082526001602090815286832033845281529186902090859003905582906101d1876105ca565b8751634a1406b160e11b8152908101849052602490fd5b875163e602df0560e01b8152908101849052602490fd5b8751637dc7a0d960e11b8152339181019182526020820193909352604081018790528291506060010390fd5b5050346101a357816003193601126101a3576020906002549051908152f35b50346101565781600319360112610156576106a4610872565b60243590331561071d576001600160a01b031691821561070657508083602095338152600187528181208582528752205582519081527f8c5be1e5ebec7d5bd14f71427d1e84f3dd0314c0f7b2291e5b200ac8c7c3b925843392a35160018152f35b8351634a1406b160e11b8152908101859052602490fd5b835163e602df0560e01b8152808401869052602490fd5b849150833461015657826003193601126101565782600354600181811c9080831692831561081f575b60209384841081146103d65783885290811561080357506001146107ad57505050829003601f01601f191682019267ffffffffffffffff841183851017610352575082918261034e925282610829565b600387529192508591837fc2575a0e9e593c00f959f8c92f12db2869c3395a3b0502d05e2516446f71f85b5b8385106107ef575050505083010185808061031c565b8054888601830152930192849082016107d9565b60ff1916878501525050151560051b840101905085808061031c565b91607f169161075d565b6020808252825181830181905290939260005b82811061085e57505060409293506000838284010152601f8019910116010190565b81810186015184820160400152850161083c565b600435906001600160a01b038216820361088857565b600080fd5b602435906001600160a01b038216820361088857565b6005546001600160a01b031633036108b757565b60405163118cdaa760e01b8152336004820152602490fd5b916001600160a01b03808416928315610994571692831561097b5760009083825281602052604082205490838210610949575091604082827fddf252ad1be2c89b69c2b068fc378daa952ba7f163c4a11628f55a4df523b3ef958760209652828652038282205586815220818154019055604051908152a3565b60405163391434e360e21b81526001600160a01b03919091166004820152602481019190915260448101839052606490fd5b60405163ec442f0560e01b815260006004820152602490fd5b604051634b637e8f60e11b815260006004820152602490fd5b919082018092116109ba57565b634e487b7160e01b600052601160045260246000fdfea2646970667358221220e4b9db63b454b462baa5ef15ed45070ecdd7274888d6229a7144081cd121678664736f6c63430008140033",
    "linkReferences": {}
  },
  "methodIdentifiers": {
    "allowance(address,address)": "dd62ed3e",
    "approve(address,uint256)": "095ea7b3",
    "balanceOf(address)": "70a08231",
    "burn(address,uint256)": "9dc29fac",
    "decimals()": "313ce567",
    "mint(address,uint256)": "40c10f19",
    "name()": "06fdde03",
    "owner()": "8da5cb5b",
    "renounceOwnership()": "715018a6",
    "symbol()": "95d89b41",
    "totalMinted()": "a2309ff8",
    "totalSupply()": "18160ddd",
    "transfer(address,uint256)": "a9059cbb",
    "transferFrom(address,address,uint256)": "23b872dd",
    "transferOwnership(address)": "f2fde38b"
  },
  "id": 46
}