{
  "abi": [
    {
      "inputs": [],
      "stateMutability": "nonpayable",
      "type": "constructor"
    },
    {
      "anonymous": false,
      "inputs": [
        {
          "indexed": true,
          "internalType": "address",
          "name": "owner",
          "type": "address"
        },
        {
          "indexed": true,
          "internalType": "address",
          "name": "spender",
          "type": "address"
        },
        {
          "indexed": false,
          "internalType": "uint256",
          "name": "value",
          "type": "uint256"
        }
      ],
      "name": "Approval",
      "type": "event"
    },
    {
      "anonymous": false,
      "inputs": [
        {
          "indexed": true,
          "internalType": "address",
          "name": "sender",
          "type": "address"
        },
        {
          "indexed": false,
          "internalType": "uint256",
          "name": "amount0",
          "type": "uint256"
        },
        {
          "indexed": false,
          "internalType": "uint256",
          "name": "amount1",
          "type": "uint256"
        },
        {
          "indexed": true,
          "internalType": "address",
          "name": "to",
          "type": "address"
        }
      ],
      "name": "Burn",
      "type": "event"
    },
    {
      "anonymous": false,
      "inputs": [
        {
          "indexed": true,
          "internalType": "address",
          "name": "sender",
          "type": "address"
        },
        {
          "indexed": false,
          "internalType": "uint256",
          "name": "amount0",
          "type": "uint256"
        },
        {
          "indexed": false,
          "internalType": "uint256",
          "name": "amount1",
          "type": "uint256"
        }
      ],
      "name": "Mint",
      "type": "event"
    },
    {
      "anonymous": false,
      "inputs": [
        {
          "indexed": true,
          "internalType": "address",
          "name": "sender",
          "type": "address"
        },
        {
          "indexed": false,
          "internalType": "uint256",
          "name": "amount0In",
          "type": "uint256"
        },
        {
          "indexed": false,
          "internalType": "uint256",
          "name": "amount1In",
          "type": "uint256"
        },
        {
          "indexed": false,
          "internalType": "uint256",
          "name": "amount0Out",
          "type": "uint256"
        },
        {
          "indexed": false,
          "internalType": "uint256",
          "name": "amount1Out",
          "type": "uint256"
        },
        {
          "indexed": true,
          "internalType": "address",
          "name": "to",
          "type": "address"
        }
      ],
      "name": "Swap",
      "type": "event"
    },
    {
      "anonymous": false,
      "inputs": [
        {
          "indexed": false,
          "internalType": "uint112",
          "name": "reserve0",
          "type": "uint112"
        },
        {
          "indexed": false,
          "internalType": "uint112",
          "name": "reserve1",
          "type": "uint112"
        }
      ],
      "name": "Sync",
      "type": "event"
    },
    {
      "anonymous": false,
      "inputs": [
        {
          "indexed": true,
          "internalType": "address",
          "name": "from",
          "type": "address"
        },
        {
          "indexed": true,
          "internalType": "address",
          "name": "to",
          "type": "address"
        },
        {
          "indexed": false,
          "internalType": "uint256",
          "name": "value",
          "type": "uint256"
        }
      ],
      "name": "Transfer",
      "type": "event"
    },
    {
      "inputs": [],
      "name": "DOMAIN_SEPARATOR",
      "outputs": [
        {
          "internalType": "bytes32",
          "name": "",
          "type": "bytes32"
        }
      ],
      "stateMutability": "view",
      "type": "function"
    },
    {
      "inputs": [],
      "name": "MINIMUM_LIQUIDITY",
      "outputs": [
        {
          "internalType": "uint256",
          "name": "",
          "type": "uint256"
        }
      ],
      "stateMutability": "view",
      "type": "function"
    },
    {
      "inputs": [],
      "name": "PERMIT_TYPEHASH",
      "outputs": [
        {
          "internalType": "bytes32",
          "name": "",
          "type": "bytes32"
        }
      ],
      "stateMutability": "view",
      "type": "function"
    },
    {
      "inputs": [
        {
          "internalType": "address",
          "name": "",
          "type": "address"
        },
        {
          "internalType": "address",
          "name": "",
          "type": "address"
        }
      ],
      "name": "allowance",
      "outputs": [
        {
          "internalType": "uint256",
          "name": "",
          "type": "uint256"
        }
      ],
      "stateMutability": "view",
      "type": "function"
    },
    {
      "inputs": [
        {
          "internalType": "address",
          "name": "spender",
          "type": "address"
        },
        {
          "internalType": "uint256",
          "name": "value",
          "type": "uint256"
        }
      ],
      "name": "approve",
      "outputs": [
        {
          "internalType": "bool",
          "name": "",
          "type": "bool"
        }
      ],
      "stateMutability": "nonpayable",
      "type": "function"
    },
    {
      "inputs": [
        {
          "internalType": "address",
          "name": "",
          "type": "address"
        }
      ],
      "name": "balanceOf",
      "outputs": [
        {
          "internalType": "uint256",
          "name": "",
          "type": "uint256"
        }
      ],
      "stateMutability": "view",
      "type": "function"
    },
    {
      "inputs": [
        {
          "internalType": "address",
          "name": "to",
          "type": "address"
        }
      ],
      "name": "burn",
      "outputs": [
        {
          "internalType": "uint256",
          "name": "amount0",
          "type": "uint256"
        },
        {
          "internalType": "uint256",
          "name": "amount1",
          "type": "uint256"
        }
      ],
      "stateMutability": "nonpayable",
      "type": "function"
    },
    {
      "inputs": [],
      "name": "decimals",
      "outputs": [
        {
          "internalType": "uint8",
          "name": "",
          "type": "uint8"
        }
      ],
      "stateMutability": "view",
      "type": "function"
    },
    {
      "inputs": [],
      "name": "factory",
      "outputs": [
        {
          "internalType": "address",
          "name": "",
          "type": "address"
        }
      ],
      "stateMutability": "view",
      "type": "function"
    },
    {
      "inputs": [],
      "name": "getReserves",
      "outputs": [
        {
          "internalType": "uint112",
          "name": "_reserve0",
          "type": "uint112"
        },
        {
          "internalType": "uint112",
          "name": "_reserve1",
          "type": "uint112"
        },
        {
          "internalType": "uint32",
          "name": "_blockTimestampLast",
          "type": "uint32"
        }
      ],
      "stateMutability": "view",
      "type": "function"
    },
    {
      "inputs": [
        {
          "internalType": "address",
          "name": "_token0",
          "type": "address"
        },
        {
          "internalType": "address",
          "name": "_token1",
          "type": "address"
        }
      ],
      "name": "initialize",
      "outputs": [],
      "stateMutability": "nonpayable",
      "type": "function"
    },
    {
      "inputs": [],
      "name": "kLast",
      "outputs": [
        {
          "internalType": "uint256",
          "name": "",
          "type": "uint256"
        }
      ],
      "stateMutability": "view",
      "type": "function"
    },
    {
      "inputs": [
        {
          "internalType": "address",
          "name": "to",
          "type": "address"
        }
      ],
      "name": "mint",
      "outputs": [
        {
          "internalType": "uint256",
          "name": "liquidity",
          "type": "uint256"
        }
      ],
      "stateMutability": "nonpayable",
      "type": "function"
    },
    {
      "inputs": [],
      "name": "name",
      "outputs": [
        {
          "internalType": "string",
          "name": "",
          "type": "string"
        }
      ],
      "stateMutability": "view",
      "type": "function"
    },
    {
      "inputs": [
        {
          "internalType": "address",
          "name": "",
          "type": "address"
        }
      ],
      "name": "nonces",
      "outputs": [
        {
          "internalType": "uint256",
          "name": "",
          "type": "uint256"
        }
      ],
      "stateMutability": "view",
      "type": "function"
    },
    {
      "inputs": [
        {
          "internalType": "address",
          "name": "owner",
          "type": "address"
        },
        {
          "internalType": "address",
          "name": "spender",
          "type": "address"
        },
        {
          "internalType": "uint256",
          "name": "value",
          "type": "uint256"
        },
        {
          "internalType": "uint256",
          "name": "deadline",
          "type": "uint256"
        },
        {
          "internalType": "uint8",
          "name": "v",
          "type": "uint8"
        },
        {
          "internalType": "bytes32",
          "name": "r",
          "type": "bytes32"
        },
        {
          "internalType": "bytes32",
          "name": "s",
          "type": "bytes32"
        }
      ],
      "name": "permit",
      "outputs": [],
      "stateMutability": "nonpayable",
      "type": "function"
    },
    {
      "inputs": [],
      "name": "price0CumulativeLast",
      "outputs": [
        {
          "internalType": "uint256",
          "name": "",
          "type": "uint256"
        }
      ],
      "stateMutability": "view",
      "type": "function"
    },
    {
      "inputs": [],
      "name": "price1CumulativeLast",
      "outputs": [
        {
          "internalType": "uint256",
          "name": "",
          "type": "uint256"
        }
      ],
      "stateMutability": "view",
      "type": "function"
    },
    {
      "inputs": [
        {
          "internalType": "address",
          "name": "to",
          "type": "address"
        }
      ],
      "name": "skim",
      "outputs": [],
      "stateMutability": "nonpayable",
      "type": "function"
    },
    {
      "inputs": [
        {
          "internalType": "uint256",
          "name": "amount0Out",
          "type": "uint256"
        },
        {
          "internalType": "uint256",
          "name": "amount1Out",
          "type": "uint256"
        },
        {
          "internalType": "address",
          "name": "to",
          "type": "address"
        },
        {
          "internalType": "bytes",
          "name": "data",
          "type": "bytes"
        },
        {
          "internalType": "uint256",
          "name": "fee",
          "type": "uint256"
        }
      ],
      "name": "swap",
      "outputs": [],
      "stateMutability": "nonpayable",
      "type": "function"
    },
    {
      "inputs": [],
      "name": "symbol",
      "outputs": [
        {
          "internalType": "string",
          "name": "",
          "type": "string"
        }
      ],
      "stateMutability": "view",
      "type": "function"
    },
    {
      "inputs": [],
      "name": "sync",
      "outputs": [],
      "stateMutability": "nonpayable",
      "type": "function"
    },
    {
      "inputs": [],
      "name": "token0",
      "outputs": [
        {
          "internalType": "address",
          "name": "",
          "type": "address"
        }
      ],
      "stateMutability": "view",
      "type": "function"
    },
    {
      "inputs": [],
      "name": "token1",
      "outputs": [
        {
          "internalType": "address",
          "name": "",
          "type": "address"
        }
      ],
      "stateMutability": "view",
      "type": "function"
    },
    {
      "inputs": [],
      "name": "totalSupply",
      "outputs": [
        {
          "internalType": "uint256",
          "name": "",
          "type": "uint256"
        }
      ],
      "stateMutability": "view",
      "type": "function"
    },
    {
      "inputs": [
        {
          "internalType": "address",
          "name": "to",
          "type": "address"
        },
        {
          "internalType": "uint256",
          "name": "value",
          "type": "uint256"
        }
      ],
      "name": "transfer",
      "outputs": [
        {
          "internalType": "bool",
          "name": "",
          "type": "bool"
        }
      ],
      "stateMutability": "nonpayable",
      "type": "function"
    },
    {
      "inputs": [
        {
          "internalType": "address",
          "name": "from",
          "type": "address"
        },
        {
          "internalType": "address",
          "name": "to",
          "type": "address"
        },
        {
          "internalType": "uint256",
          "name": "value",
          "type": "uint256"
        }
      ],
      "name": "transferFrom",
      "outputs": [
        {
          "internalType": "bool",
          "name": "",
          "type": "bool"
        }
      ],
      "stateMutability": "nonpayable",
      "type": "function"
    }
  ],
  "bytecode": {
    "object": "0x60808060405234620000f6576020816200001b600f93620000fb565b828152016e2137b73232b92b1896a6282830b4b960891b815220600160206040516200004781620000fb565b82815201603160f81b815220906040519160208301917f8b73c3c69bb8fe3d512ecc4cf759cc79239f7b179b0ffacaa9a75d522b39400f8352604084015260608301524660808301523060a083015260a0825260c082019180831060018060401b03841117620000e05760408390525190206003556001600c55600580546001600160a01b031916331790556122b49081620001188239f35b634e487b7160e01b600052604160045260246000fd5b600080fd5b604081019081106001600160401b03821117620000e05760405256fe6080604052600436101561001257600080fd5b6000803560e01c806306fdde03146106b05780630902f1ac146118b5578063095ea7b31461188e5780630dfe16811461186557806318160ddd1461184857806323b872dd146117ab57806330adf81f14611770578063313ce567146117545780633644e5151461173657806345bb14fe14610e6e578063485cc95514610dbb5780635909c0d514610d9d5780635a3d549314610d7f5780636a62784214610aa457806370a0823114610a6b5780637464fc3d14610a4d5780637ecebe0014610a1457806389afcb44146106b557806395d89b41146106b0578063a9059cbb1461067e578063ba9a7a5614610661578063bc25cf7714610518578063c45a0155146104ef578063d21220a7146104c6578063d505accf146102c9578063dd62ed3e1461027a5763fff6cae91461014657600080fd5b346102775780600319360112610277576101646001600c5414611a44565b600c8190556006546040516370a0823160e01b808252306004830152916020916001600160a01b039183908290602490829086165afa91821561026c578391869361023b575b50600754169360246040518096819382523060048301525afa9182156102305784926101f9575b506101f19250600854916001600160701b03808460701c16931691611bc8565b6001600c5580f35b90915082813d8311610229575b6102108183611962565b81010312610224576101f1915190386101d1565b600080fd5b503d610206565b6040513d86823e3d90fd5b8281939294503d8311610265575b6102538183611962565b810103126102245782905191386101aa565b503d610249565b6040513d87823e3d90fd5b80fd5b503461027757604036600319011261027757610294611a18565b604061029e611a2e565b9260018060a01b03809316815260026020522091166000526020526020604060002054604051908152f35b50346102775760e0366003190112610277576102e3611a18565b6102eb611a2e565b604435906064356084359060ff82168092036104c25742811061048e576003546001600160a01b038681168089526004602052604089208054919592949290600019831461047a576001830190556040519260208401927f6e71edae12b1b97f4d1f60370fef10105fa2faae0126114a169c64845d6126c98452876040860152868916606086015289608086015260a085015260c084015260c0835260e083019383851067ffffffffffffffff86111761046457848b94610122608095602098604052825190209161010081019461190160f01b86526101028201520152604281526103d68161192a565b519020906040519182528482015260a435604082015260c435606082015282805260015afa1561026c5785511690811515918261045a575b5050156104215761041e9261219d565b80f35b60405162461bcd60e51b8152602060048201526011602482015270496e76616c6964207369676e617475726560781b6044820152606490fd5b149050388061040e565b634e487b7160e01b600052604160045260246000fd5b634e487b7160e01b8b52601160045260248bfd5b60405162461bcd60e51b815260206004820152600c60248201526b151a5b5948195e1c1a5c995960a21b6044820152606490fd5b8580fd5b50346102775780600319360112610277576007546040516001600160a01b039091168152602090f35b50346102775780600319360112610277576005546040516001600160a01b039091168152602090f35b50346102775760208060031936011261065d57610533611a18565b906105426001600c5414611a44565b600c8390556006546007546040516370a0823160e01b80825230600483015290946001600160a01b039283169490939092168286602481845afa958615610652578796610621575b506105ad90846105a76001600160701b0398896008541690611b0d565b91611f1e565b6040519081523060048201528181602481875afa9182156106165786926105e6575b50506105a7906101f19460085460701c1690611b0d565b90809250813d831161060f575b6105fd8183611962565b810103126102245751836105a76105cf565b503d6105f3565b6040513d88823e3d90fd5b9095508281813d831161064b575b6106398183611962565b810103126102245751946105ad61058a565b503d61062f565b6040513d89823e3d90fd5b5080fd5b503461027757806003193601126102775760206040516103e88152f35b5034610277576040366003190112610277576106a561069b611a18565b60243590336121f4565b602060405160018152f35b6119c4565b50346102775760209081600319360112610277576106d1611a18565b906106e06001600c5414611a44565b80600c556107036008546001600160701b0391828216928260701c169160e01c90565b506006546007546040516370a0823160e01b8082523060048301529794966001600160a01b039384169690949192841686846024818b5afa938415610a095782946109da575b5060405199808b523060048c0152878b602481855afa9889156109cf578a9b849b9a61099c575b50308452600189526107ab61078a8660408720549c611d70565b9661079f6107a48d61079f8954948592611b91565b611a79565b9d8d611b91565b998b151580610993575b1561094e576024939291858b92308252600184526107d7816040842054611b0d565b3083526001855260408320556107ee818354611b0d565b825560405190815260008051602061225f833981519152843092a36108148d8b83611f1e565b61081f8c8b86611f1e565b604051948580928582523060048301525afa92831561023057908991859461091d575b5060246040518094819382523060048301525afa92831561091157926108db575b5098610872929160409a611bc8565b6108b8575b855191858352848484015216907fdccd412f0b1252819cb1fd330b93224ca42612892bb3f4f789976e6d81936496863392a36001600c558351928352820152f35b6108d36008546001600160701b03808260701c169116611b91565b600b55610877565b929150988683813d831161090a575b6108f48183611962565b8101031261022457915191989091906040610863565b503d6108ea565b604051903d90823e3d90fd5b8281939295503d8311610947575b6109358183611962565b81010312610224578890519238610842565b503d61092b565b60405162461bcd60e51b8152600481018b9052601d60248201527f496e73756666696369656e74206c6971756964697479206275726e65640000006044820152606490fd5b508a15156107b5565b8980929c50819b503d83116109c8575b6109b68183611962565b81010312610224578a98519938610770565b503d6109ac565b6040513d85823e3d90fd5b9093508681813d8311610a02575b6109f28183611962565b8101031261022457519238610749565b503d6109e8565b6040513d84823e3d90fd5b5034610277576020366003190112610277576020906040906001600160a01b03610a3c611a18565b168152600483522054604051908152f35b50346102775780600319360112610277576020600b54604051908152f35b5034610277576020366003190112610277576020906040906001600160a01b03610a93611a18565b168152600183522054604051908152f35b5034610277576020908160031936011261027757610ac0611a18565b90610acf6001600c5414611a44565b80600c55610af26008546001600160701b0391828216928260701c169160e01c90565b506006546040516370a0823160e01b8082523060048301529094939290916001600160a01b039088908790602490829085165afa95861561026c579088918697610d4e575b50600754169260246040518095819382523060048301525afa918215610230578492610d1f575b506001600160701b039283811692610b768488611b0d565b9685841694610b858684611b0d565b9789610b918787611d70565b978254938415600014610ceb575050610bb69250610bb191508990611b91565b611aa6565b6103e7198101908111610cd55798610bcf600054611eb7565b6000556000805260018b52610be8604060002054611eb7565b6000805260018c5260406000205560008060008051602061225f8339815191528d6040516103e88152a35b8915610c905790610c2a8a610c2f96959493612149565b611bc8565b610c72575b50604051918252838201527f4c209b5fc8ad50758f13e2e1088ba56a560dff690a1c6fef26394f4c03821c4f60403392a26001600c55604051908152f35b610c879060085490808260701c169116611b91565b600b5538610c34565b60405162461bcd60e51b8152600481018c9052601c60248201527f496e73756666696369656e74206c6971756964697479206d696e6564000000006044820152606490fd5b634e487b7160e01b600052601160045260246000fd5b610cff61079f9161079f87610d0696611b91565b948c611b91565b905080821015610d1857505b98610c13565b9050610d12565b9091508681813d8311610d47575b610d378183611962565b8101031261022457519038610b5e565b503d610d2d565b8281939298503d8311610d78575b610d668183611962565b81010312610224578790519538610b37565b503d610d5c565b50346102775780600319360112610277576020600a54604051908152f35b50346102775780600319360112610277576020600954604051908152f35b503461027757604036600319011261027757610dd5611a18565b610ddd611a2e565b6005546001600160a01b03919082163303610e1b57816bffffffffffffffffffffffff60a01b93168360065416176006551690600754161760075580f35b60405162461bcd60e51b815260206004820152602560248201527f4f6e6c79204c50466163746f72792063616e2063616c6c20746869732066756e60448201526431ba34b7b760d91b6064820152608490fd5b50346102775760a0366003190112610277576044356001600160a01b03811690036102775767ffffffffffffffff60643511610277573660236064350112156102775767ffffffffffffffff6064356004013511610277573660246064356004013560643501011161027757610ee86001600c5414611a44565b80600c55600435158015809161172b575b156116e657610f1d6008546001600160701b0391828216928260701c169160e01c90565b506001600160701b038293921660043510806116d2575b15611694576006546007546040516001600160a01b03918216949190921691610f8a90610f608161190e565b600a815269185b5bdd5b9d0c13dd5d60b21b6020820152670de0b6b3a76400006004350490612104565b610fc3604051610f998161190e565b600a815269185b5bdd5b9d0c53dd5d60b21b6020820152670de0b6b3a76400006024350490612104565b610fea604051610fd28161190e565b60068152650746f6b656e360d41b60208201526120c8565b610ff38261205d565b61101a6040516110028161190e565b6006815265746f6b656e3160d01b60208201526120c8565b6110238461205d565b6044356001600160a01b03168214158061167f575b1561164557611631575b6110766040516110518161190e565b601381527207472616e7366657272656420616d6f756e743606c1b60208201526120c8565b60243561161d575b6110b260405161108d8161190e565b60138152727472616e7366657272656420616d6f756e743160681b60208201526120c8565b60643560040135611549575b906020602492604051938480926370a0823160e01b82523060048301525afa91821561026c578592611512575b506020602493604051948580926370a0823160e01b82523060048301525afa92831561026c5785936114de575b5061112e6004356001600160701b038616611b00565b8211156114d75761115361114d6004356001600160701b038716611b00565b83611b00565b935b611181856040516111658161190e565b600a81526930b6b7bab73a1824b71d60b11b6020820152612104565b6111966024356001600160701b038416611b00565b8411156114d0576111bb6111b56024356001600160701b038516611b00565b85611b00565b935b6111e9856040516111cd8161190e565b600a81526930b6b7bab73a18a4b71d60b11b6020820152612104565b85158015906114c7575b156114825761133861120485611b72565b61123261121e60843592611218848c611b91565b90611b0d565b9161121861122b86611b72565b918a611b91565b906112716040516112428161190e565b60118152703130b630b731b29820b2353ab9ba32b21d60791b6020820152670de0b6b3a7640000830490612104565b6112af6040516112808161190e565b60118152703130b630b731b298a0b2353ab9ba32b21d60791b6020820152670de0b6b3a7640000840490612104565b6112f16040516112be8161190e565b600a8152692fb932b9b2b93b32981d60b11b60208201526001600160701b03670de0b6b3a7640000818916041690612104565b6113336040516113008161190e565b600a8152692fb932b9b2b93b32989d60b11b60208201526001600160701b03670de0b6b3a7640000818a16041690612104565b611b91565b6113546001600160701b0385166001600160701b038516611b91565b906305f5e1009182810292818404811482151715610cd55783040361144657106114125761138193611bc8565b61138a3361205d565b611393826120a0565b61139c816120a0565b6113a76004356120a0565b6113b26024356120a0565b6113bd60443561205d565b60405191825260208201526004356040820152602435606082015260018060a01b0360443516907fd78ad95fa46c994b6551d0da85fc275fe613ce37657fb8d5e3d130840159d82260803392a36001600c5580f35b60405162461bcd60e51b815260206004820152600c60248201526b556e697377617056323a204b60a01b6044820152606490fd5b60405162461bcd60e51b815260206004820152601460248201527364732d6d6174682d6d756c2d6f766572666c6f7760601b6044820152606490fd5b60405162461bcd60e51b815260206004820152601960248201527f496e73756666696369656e7420696e70757420616d6f756e74000000000000006044820152606490fd5b508415156111f3565b85936111bd565b8493611155565b9092506020813d60201161150a575b816114fa60209383611962565b8101031261022457519138611118565b3d91506114ed565b9291506020833d602011611541575b8161152e60209383611962565b81010312610224579151909160206110eb565b3d9150611521565b6044356001600160a01b03163b15611619576040516304347a1760e21b815233600482015260043560248201526024356044820152608060648201526064356004013560848201526064356004013560246064350160a483013760a460643560040135828101820188905287918391601f19601f9091011682018290030181836001600160a01b03604435165af18015610616576115e8575b506110be565b67ffffffffffffffff8196929611611605576040529360206115e2565b634e487b7160e01b82526041600452602482fd5b8480fd5b61162c60243560443585611f1e565b61107e565b61164060043560443583611f1e565b611042565b60405162461bcd60e51b8152602060048201526012602482015271496e76616c696420546f206164647265737360701b6044820152606490fd5b506044356001600160a01b0316841415611038565b60405162461bcd60e51b8152602060048201526016602482015275496e73756666696369656e74206c697175696469747960501b6044820152606490fd5b506001600160701b03811660243510610f34565b60405162461bcd60e51b815260206004820152601a60248201527f496e73756666696369656e74206f757470757420616d6f756e740000000000006044820152606490fd5b506024351515610ef9565b50346102775780600319360112610277576020600354604051908152f35b5034610277578060031936011261027757602060405160128152f35b503461027757806003193601126102775760206040517f6e71edae12b1b97f4d1f60370fef10105fa2faae0126114a169c64845d6126c98152f35b5034610277576060366003190112610277576118086117c8611a18565b6117d0611a2e565b6001600160a01b03821680855260026020908152604080872033885282528620549095604435949291600101611811575b50506121f4565b60405160018152f35b8082604092526002885281812033825288526118308683832054611b0d565b92815260028852818120338252885220553880611801565b503461027757806003193601126102775760209054604051908152f35b50346102775780600319360112610277576006546040516001600160a01b039091168152602090f35b5034610277576040366003190112610277576106a56118ab611a18565b602435903361219d565b5034610277578060031936011261027757606063ffffffff6118ec6008546001600160701b0391828216928260701c169160e01c90565b909291604051936001600160701b038092168552166020840152166040820152f35b6040810190811067ffffffffffffffff82111761046457604052565b6080810190811067ffffffffffffffff82111761046457604052565b6060810190811067ffffffffffffffff82111761046457604052565b90601f8019910116810190811067ffffffffffffffff82111761046457604052565b919082519283825260005b8481106119b0575050826000602080949584010152601f8019910116010190565b60208183018101518483018201520161198f565b3461022457600036600319011261022457611a146040516119e48161190e565b600f81526e2137b73232b92b1896a6282830b4b960891b6020820152604051918291602083526020830190611984565b0390f35b600435906001600160a01b038216820361022457565b602435906001600160a01b038216820361022457565b15611a4b57565b60405162461bcd60e51b81526020600482015260066024820152651b1bd8dad95960d21b6044820152606490fd5b8115611a83570490565b634e487b7160e01b600052601260045260246000fd5b91908201809211610cd557565b9060006003831115611af357508160019080821c828101809111610cd55791905b848310611ad357505050565b90919350611aea84611ae58184611a79565b611a99565b821c9190611ac7565b91611afa57565b60019150565b91908203918211610cd557565b9190611b199083611b00565b918211611b2257565b60405162461bcd60e51b815260206004820152601560248201527464732d6d6174682d7375622d756e646572666c6f7760581b6044820152606490fd5b81810292918115918404141715610cd557565b906127109182810292818404811482151715610cd55783040361144657565b600092918015918215611ba8575b50501561144657565b91509250611bc0611bb98483611b5f565b9384611a79565b143880611b9f565b916001600160701b03908184111580611d19575b15611ce3576008549363ffffffff9460e01c8542160391858311610cd5577f1c411e9a96e071241c2f21f7726b17ae89e3cab4c78be50e062b03a9fffbbad19660409685941680151580611cd8575b80611ccd575b611c74575b505050607093841b600160701b600160e01b031691169081174260e01b6001600160e01b031916176008819055845191825290921c166020820152a1565b611cc292611cba926001600160e01b0391611ca49190611c9f90611cb2611caa878787858789611d23565b611d52565b16611b5f565b600954611a99565b600955611d23565b600a54611a99565b600a55388080611c36565b508482161515611c31565b508483161515611c2b565b60405162461bcd60e51b815260206004820152600e60248201526d27bb32b9333637bb9032b93937b960911b6044820152606490fd5b5081831115611bdc565b600160701b600160e01b03607082901b16906001600160701b0316808204600160701b1490151715610cd55790565b906001600160701b0316908115611a83576001600160e01b03160490565b600554604051622fcfcb60e31b815292939291906001600160a01b03906020908490600490829085165afa928315611eab57600093611e6d575b508216151593600b549185600014611e5c5782611dc8575b50505050565b610bb1611de591611deb936001600160701b038091169116611b91565b91611aa6565b90818111611dfa575b80611dc2565b611e10600054611e0a8484611b0d565b90611b91565b90600581029080820460051481151715610cd557600582040361144657611e4092611e3a91611f09565b90611a79565b80611e4c575b80611df4565b611e5591612149565b3880611e46565b50509050611e6657565b6000600b55565b6020939193813d8211611ea3575b81611e8860209383611962565b8101031261065d575190838216820361027757509138611daa565b3d9150611e7b565b6040513d6000823e3d90fd5b906103e8820191828111610cd5578210611ecd57565b60405162461bcd60e51b815260206004820152601460248201527364732d6d6174682d6164642d6f766572666c6f7760601b6044820152606490fd5b9190611f159083611a99565b918210611ecd57565b9060405192611f2c8461190e565b601984527f7472616e7366657228616464726573732c75696e74323536290000000000000060209485015260405163a9059cbb60e01b8186019081526001600160a01b039093166024820152604480820192909252908152611f8d8161192a565b600092839283809351925af1903d15612056573d67ffffffffffffffff81116116055760405190611fc7601f8201601f1916860183611962565b81523d828583013e5b82612016575b505015611fe05750565b6064906040519062461bcd60e51b82526004820152600f60248201526e151c985b9cd9995c8819985a5b1959608a1b6044820152fd5b8051925082159190848315612032575b50505090503880611fd6565b91938180945001031261065d57820151908115158203610277575080388084612026565b6060611fd0565b60008091604051602081019163161765e160e11b835260018060a01b031660248201526024815261208d81611946565b51906a636f6e736f6c652e6c6f675afa50565b60008091604051602081019163f5b1bba960e01b835260248201526024815261208d81611946565b6000809160405161208d816120f6602082019463104c13eb60e21b8652602060248401526044830190611984565b03601f198101835282611962565b60009190829161208d604051809261213560208301956309710a9d60e41b8752604060248501526064840190611984565b90604483015203601f198101835282611962565b60008051602061225f8339815191526020600092612168858554611f09565b845560018060a01b03169384845260018252612188816040862054611f09565b858552600183526040852055604051908152a3565b909160207f8c5be1e5ebec7d5bd14f71427d1e84f3dd0314c0f7b2291e5b200ac8c7c3b9259160018060a01b03809416938460005260028352604060002095169485600052825280604060002055604051908152a3565b9091602060008051602061225f8339815191529160018060a01b03809416936000958587526001845261222b836040892054611b0d565b8688526001855260408820551694858152604061224b8382842054611f09565b91878152600185522055604051908152a356feddf252ad1be2c89b69c2b068fc378daa952ba7f163c4a11628f55a4df523b3efa26469706673582212201c452735968c7a679620272277d85a70467ce391b43d1786239b370c2339bf8364736f6c63430008140033",
    "linkReferences": {}
  },
  "methodIdentifiers": {
    "DOMAIN_SEPARATOR()": "3644e515",
    "MINIMUM_LIQUIDITY()": "ba9a7a56",
    "PERMIT_TYPEHASH()": "30adf81f",
    "allowance(address,address)": "dd62ed3e",
    "approve(address,uint256)": "095ea7b3",
    "balanceOf(address)": "70a08231",
    "burn(address)": "89afcb44",
    "decimals()": "313ce567",
    "factory()": "c45a0155",
    "getReserves()": "0902f1ac",
    "initialize(address,address)": "485cc955",
    "kLast()": "7464fc3d",
    "mint(address)": "6a627842",
    "name()": "06fdde03",
    "nonces(address)": "7ecebe00",
    "permit(address,address,uint256,uint256,uint8,bytes32,bytes32)": "d505accf",
    "price0CumulativeLast()": "5909c0d5",
    "price1CumulativeLast()": "5a3d5493",
    "skim(address)": "bc25cf77",
    "swap(uint256,uint256,address,bytes,uint256)": "45bb14fe",
    "symbol()": "95d89b41",
    "sync()": "fff6cae9",
    "token0()": "0dfe1681",
    "token1()": "d21220a7",
    "totalSupply()": "18160ddd",
    "transfer(address,uint256)": "a9059cbb",
    "transferFrom(address,address,uint256)": "23b872dd"
  },
  "id": 52
}