{
  "abi": [
    {
      "inputs": [
        {
          "internalType": "address",
          "name": "_baseUSDCAddr",
          "type": "address"
        },
        {
          "internalType": "address",
          "name": "_bonderTokenAddr",
          "type": "address"
        },
        {
          "internalType": "address",
          "name": "_lpFactoryAddr",
          "type": "address"
        }
      ],
      "stateMutability": "nonpayable",
      "type": "constructor"
    },
    {
      "inputs": [],
      "name": "EnforcedPause",
      "type": "error"
    },
    {
      "inputs": [],
      "name": "ExpectedPause",
      "type": "error"
    },
    {
      "inputs": [
        {
          "internalType": "address",
          "name": "owner",
          "type": "address"
        }
      ],
      "name": "OwnableInvalidOwner",
      "type": "error"
    },
    {
      "inputs": [
        {
          "internalType": "address",
          "name": "account",
          "type": "address"
        }
      ],
      "name": "OwnableUnauthorizedAccount",
      "type": "error"
    },
    {
      "anonymous": false,
      "inputs": [
        {
          "indexed": true,
          "internalType": "uint256",
          "name": "betId",
          "type": "uint256"
        },
        {
          "indexed": true,
          "internalType": "address",
          "name": "creator",
          "type": "address"
        },
        {
          "indexed": false,
          "internalType": "uint256",
          "name": "time",
          "type": "uint256"
        }
      ],
      "name": "BetCreated",
      "type": "event"
    },
    {
      "anonymous": false,
      "inputs": [
        {
          "indexed": true,
          "internalType": "uint256",
          "name": "betId",
          "type": "uint256"
        },
        {
          "indexed": false,
          "internalType": "uint256",
          "name": "time",
          "type": "uint256"
        }
      ],
      "name": "BetEnd",
      "type": "event"
    },
    {
      "anonymous": false,
      "inputs": [
        {
          "indexed": true,
          "internalType": "uint256",
          "name": "betId",
          "type": "uint256"
        },
        {
          "indexed": true,
          "internalType": "address",
          "name": "bettor",
          "type": "address"
        },
        {
          "indexed": false,
          "internalType": "uint256",
          "name": "betAmount",
          "type": "uint256"
        },
        {
          "indexed": false,
          "internalType": "uint256",
          "name": "time",
          "type": "uint256"
        }
      ],
      "name": "BuyNo",
      "type": "event"
    },
    {
      "anonymous": false,
      "inputs": [
        {
          "indexed": true,
          "internalType": "uint256",
          "name": "betId",
          "type": "uint256"
        },
        {
          "indexed": true,
          "internalType": "address",
          "name": "bettor",
          "type": "address"
        },
        {
          "indexed": false,
          "internalType": "uint256",
          "name": "betAmount",
          "type": "uint256"
        },
        {
          "indexed": false,
          "internalType": "uint256",
          "name": "time",
          "type": "uint256"
        }
      ],
      "name": "BuyYes",
      "type": "event"
    },
    {
      "anonymous": false,
      "inputs": [
        {
          "indexed": true,
          "internalType": "uint256",
          "name": "betId",
          "type": "uint256"
        },
        {
          "indexed": true,
          "internalType": "address",
          "name": "bettor",
          "type": "address"
        },
        {
          "indexed": false,
          "internalType": "uint256",
          "name": "result",
          "type": "uint256"
        },
        {
          "indexed": false,
          "internalType": "uint256",
          "name": "winningClaim",
          "type": "uint256"
        },
        {
          "indexed": false,
          "internalType": "uint256",
          "name": "time",
          "type": "uint256"
        }
      ],
      "name": "Claim",
      "type": "event"
    },
    {
      "anonymous": false,
      "inputs": [
        {
          "indexed": false,
          "internalType": "uint256",
          "name": "time",
          "type": "uint256"
        }
      ],
      "name": "NewSettings",
      "type": "event"
    },
    {
      "anonymous": false,
      "inputs": [
        {
          "indexed": true,
          "internalType": "address",
          "name": "previousOwner",
          "type": "address"
        },
        {
          "indexed": true,
          "internalType": "address",
          "name": "newOwner",
          "type": "address"
        }
      ],
      "name": "OwnershipTransferred",
      "type": "event"
    },
    {
      "anonymous": false,
      "inputs": [
        {
          "indexed": false,
          "internalType": "address",
          "name": "account",
          "type": "address"
        }
      ],
      "name": "Paused",
      "type": "event"
    },
    {
      "anonymous": false,
      "inputs": [
        {
          "indexed": false,
          "internalType": "address",
          "name": "account",
          "type": "address"
        }
      ],
      "name": "Unpaused",
      "type": "event"
    },
    {
      "inputs": [],
      "name": "betSettings",
      "outputs": [
        {
          "internalType": "address",
          "name": "treasuryAddr",
          "type": "address"
        },
        {
          "internalType": "uint256",
          "name": "treasuryFee",
          "type": "uint256"
        },
        {
          "internalType": "uint256",
          "name": "poolFee",
          "type": "uint256"
        },
        {
          "internalType": "uint256",
          "name": "creatorFee",
          "type": "uint256"
        }
      ],
      "stateMutability": "view",
      "type": "function"
    },
    {
      "inputs": [
        {
          "internalType": "uint256",
          "name": "_betId",
          "type": "uint256"
        },
        {
          "internalType": "uint256",
          "name": "_amount",
          "type": "uint256"
        }
      ],
      "name": "buyNo",
      "outputs": [],
      "stateMutability": "nonpayable",
      "type": "function"
    },
    {
      "inputs": [
        {
          "internalType": "uint256",
          "name": "_betId",
          "type": "uint256"
        },
        {
          "internalType": "uint256",
          "name": "_amount",
          "type": "uint256"
        }
      ],
      "name": "buyYes",
      "outputs": [],
      "stateMutability": "nonpayable",
      "type": "function"
    },
    {
      "inputs": [
        {
          "internalType": "uint256",
          "name": "_betId",
          "type": "uint256"
        }
      ],
      "name": "claim",
      "outputs": [],
      "stateMutability": "nonpayable",
      "type": "function"
    },
    {
      "inputs": [
        {
          "internalType": "string",
          "name": "_betDescription",
          "type": "string"
        },
        {
          "internalType": "uint256",
          "name": "_expiryTime",
          "type": "uint256"
        },
        {
          "internalType": "uint256",
          "name": "_creatorFee",
          "type": "uint256"
        }
      ],
      "name": "createPrivateBet",
      "outputs": [],
      "stateMutability": "nonpayable",
      "type": "function"
    },
    {
      "inputs": [
        {
          "internalType": "uint256",
          "name": "_betId",
          "type": "uint256"
        },
        {
          "internalType": "uint256",
          "name": "_result",
          "type": "uint256"
        }
      ],
      "name": "endPrivateBet",
      "outputs": [],
      "stateMutability": "nonpayable",
      "type": "function"
    },
    {
      "inputs": [
        {
          "internalType": "uint256",
          "name": "_betId",
          "type": "uint256"
        }
      ],
      "name": "getBetStruct",
      "outputs": [
        {
          "components": [
            {
              "internalType": "uint256",
              "name": "id",
              "type": "uint256"
            },
            {
              "internalType": "string",
              "name": "betDescription",
              "type": "string"
            },
            {
              "internalType": "address",
              "name": "creator",
              "type": "address"
            },
            {
              "internalType": "uint256",
              "name": "expiryTime",
              "type": "uint256"
            },
            {
              "internalType": "enum BonderV1PrivateBetFactory.Stages",
              "name": "stage",
              "type": "uint8"
            },
            {
              "internalType": "uint256",
              "name": "result",
              "type": "uint256"
            },
            {
              "internalType": "uint256",
              "name": "claimAmt",
              "type": "uint256"
            },
            {
              "internalType": "uint256",
              "name": "totalDeposited",
              "type": "uint256"
            },
            {
              "internalType": "uint256",
              "name": "yesBonds",
              "type": "uint256"
            },
            {
              "internalType": "uint256",
              "name": "noBonds",
              "type": "uint256"
            },
            {
              "internalType": "address",
              "name": "yesToken",
              "type": "address"
            },
            {
              "internalType": "address",
              "name": "noToken",
              "type": "address"
            },
            {
              "internalType": "address",
              "name": "yesLp",
              "type": "address"
            },
            {
              "internalType": "address",
              "name": "noLp",
              "type": "address"
            }
          ],
          "internalType": "struct BonderV1PrivateBetFactory.PrivateBet",
          "name": "betStruct",
          "type": "tuple"
        }
      ],
      "stateMutability": "view",
      "type": "function"
    },
    {
      "inputs": [
        {
          "internalType": "uint256",
          "name": "_betId",
          "type": "uint256"
        }
      ],
      "name": "getEnumValue",
      "outputs": [
        {
          "internalType": "enum BonderV1PrivateBetFactory.Stages",
          "name": "",
          "type": "uint8"
        }
      ],
      "stateMutability": "view",
      "type": "function"
    },
    {
      "inputs": [
        {
          "internalType": "uint256",
          "name": "",
          "type": "uint256"
        }
      ],
      "name": "idToBet",
      "outputs": [
        {
          "internalType": "uint256",
          "name": "id",
          "type": "uint256"
        },
        {
          "internalType": "string",
          "name": "betDescription",
          "type": "string"
        },
        {
          "internalType": "address",
          "name": "creator",
          "type": "address"
        },
        {
          "internalType": "uint256",
          "name": "expiryTime",
          "type": "uint256"
        },
        {
          "internalType": "enum BonderV1PrivateBetFactory.Stages",
          "name": "stage",
          "type": "uint8"
        },
        {
          "internalType": "uint256",
          "name": "result",
          "type": "uint256"
        },
        {
          "internalType": "uint256",
          "name": "claimAmt",
          "type": "uint256"
        },
        {
          "internalType": "uint256",
          "name": "totalDeposited",
          "type": "uint256"
        },
        {
          "internalType": "uint256",
          "name": "yesBonds",
          "type": "uint256"
        },
        {
          "internalType": "uint256",
          "name": "noBonds",
          "type": "uint256"
        },
        {
          "internalType": "address",
          "name": "yesToken",
          "type": "address"
        },
        {
          "internalType": "address",
          "name": "noToken",
          "type": "address"
        },
        {
          "internalType": "address",
          "name": "yesLp",
          "type": "address"
        },
        {
          "internalType": "address",
          "name": "noLp",
          "type": "address"
        }
      ],
      "stateMutability": "view",
      "type": "function"
    },
    {
      "inputs": [],
      "name": "owner",
      "outputs": [
        {
          "internalType": "address",
          "name": "",
          "type": "address"
        }
      ],
      "stateMutability": "view",
      "type": "function"
    },
    {
      "inputs": [],
      "name": "paused",
      "outputs": [
        {
          "internalType": "bool",
          "name": "",
          "type": "bool"
        }
      ],
      "stateMutability": "view",
      "type": "function"
    },
    {
      "inputs": [],
      "name": "privateBetId",
      "outputs": [
        {
          "internalType": "uint256",
          "name": "",
          "type": "uint256"
        }
      ],
      "stateMutability": "view",
      "type": "function"
    },
    {
      "inputs": [],
      "name": "renounceOwnership",
      "outputs": [],
      "stateMutability": "nonpayable",
      "type": "function"
    },
    {
      "inputs": [
        {
          "internalType": "address",
          "name": "_treasuryAddr",
          "type": "address"
        },
        {
          "internalType": "uint256",
          "name": "_treasuryFee",
          "type": "uint256"
        },
        {
          "internalType": "uint256",
          "name": "_poolFee",
          "type": "uint256"
        }
      ],
      "name": "setBetSettings",
      "outputs": [],
      "stateMutability": "nonpayable",
      "type": "function"
    },
    {
      "inputs": [
        {
          "internalType": "bool",
          "name": "_setPause",
          "type": "bool"
        }
      ],
      "name": "setPause",
      "outputs": [],
      "stateMutability": "nonpayable",
      "type": "function"
    },
    {
      "inputs": [
        {
          "internalType": "address",
          "name": "newOwner",
          "type": "address"
        }
      ],
      "name": "transferOwnership",
      "outputs": [],
      "stateMutability": "nonpayable",
      "type": "function"
    }
  ],
  "bytecode": {
    "object": "0x6080346200012357601f6200358338819003918201601f19168301916001600160401b03831184841017620001285780849260609460405283398101031262000123576200004d816200013e565b62000069604062000061602085016200013e565b93016200013e565b916000549233156200010a576001600160a81b0319841633600881811b610100600160a81b0316929092176000908155604051966001600160a01b0395869490939291901c8416907f8be0079c531659141344cd1fd0a4f28419497f9722a3daafe3b4186f6b6457e09080a38160018060a01b03199516856002541617600255168360035416176003551690600454161760045561342f9081620001548239f35b604051631e4fbdf760e01b815260006004820152602490fd5b600080fd5b634e487b7160e01b600052604160045260246000fd5b51906001600160a01b0382168203620001235756fe608060405260043610156200001357600080fd5b6000803560e01c80631298d2a51462001adc57806314fe6c9d1462001888578063379607f51462001081578063399af5021462000dce5780634539588e1462000cd257806346aa1bdc1462000cb25780635c975abb1462000c8e578063715018a61462000c2c5780637bd172b21462000bab578063869dc3361462000b6a5780638da5cb5b1462000b3d578063a9f6b0581462000791578063b56202c81462000757578063bedb86fb146200072a578063e10f60e114620001855763f2fde38b14620000de57600080fd5b34620001825760203660031901126200018257620000fb62002464565b620001056200247b565b6001600160a01b03818116918215620001695760008054610100600160a81b03198116600893841b610100600160a81b031617825590911c91909116907f8be0079c531659141344cd1fd0a4f28419497f9722a3daafe3b4186f6b6457e09080a380f35b604051631e4fbdf760e01b815260048101859052602490fd5b80fd5b5034620001825762000197366200235e565b620001a1620024ab565b818352600960205260408320600201546001600160a01b03163314801562000710575b15620006bd57818352600960205260ff6004604085200154166002811015620006a9576200066d57818352600960205260036040842001544211156200063657600181148080156200062b575b801562000620575b15620005ea5783918383526009602052604083209181600584015560038214600014620002a157505050819052600960205260408220600660078201549101555b808252600960205260046040832001600160ff198254161790557f285819bac888005bb9556ea949adc13c42065486d7c4528caf2fbabcca564d8f6020604051428152a280f35b156200057057505060035482825260096020819052604083200154906001600160a01b0316803b156200056c57604051636819cd1960e01b8152306004820152602481019290925282908290604490829084905af18015620005615762000545575b50505b612710620003276006548385526009602052600760408620015490620024ca565b60025460055460405163a9059cbb60e01b8082526001600160a01b0392831660048301529490930460248401819052939291602091839160449183918a91165af180156200053a5762000516575b50620003e86127106200039b6008548688526009602052600760408920015490620024ca565b60028054878952600960209081526040808b209093015492518781526001600160a01b039384166004820152949093046024850181905295939485929091169082908a9082906044820190565b03925af1918215620004e7576200045e92620004f2575b50602061271062000422600754888a5260098452600760408b20015490620024ca565b6002546003546040519586526001600160a01b0390811660048701529290910460248501819052939485929091169082908a9082906044820190565b03925af18015620004e7576200049b9462000495936200049592620004b1575b50868852600960205260076040892001546200252f565b6200252f565b818352600960205260066040842001556200025a565b620004d79060203d602011620004df575b620004ce8183620022c4565b81019062002515565b50386200047e565b503d620004c2565b6040513d88823e3d90fd5b6200050e9060203d602011620004df57620004ce8183620022c4565b5038620003ff565b620005329060203d602011620004df57620004ce8183620022c4565b503862000375565b6040513d87823e3d90fd5b6200055090620022af565b6200055d57813862000303565b5080fd5b6040513d84823e3d90fd5b8280fd5b60021462000581575b505062000306565b60035460089190910154906001600160a01b0316803b156200056c57604051636819cd1960e01b8152306004820152602481019290925282908290604490829084905af180156200056157156200057957620005dd90620022af565b6200055d57813862000579565b60405162461bcd60e51b815260206004820152600e60248201526d125b9d985b1a59081c995cdd5b1d60921b6044820152606490fd5b506003821462000219565b506002821462000211565b60405162461bcd60e51b815260206004820152600f60248201526e10995d081a185cc81b9bdd08195b99608a1b6044820152606490fd5b60405162461bcd60e51b815260206004820152601460248201527313db9b1e481dda195b8818995d081a5cc810995d60621b6044820152606490fd5b634e487b7160e01b84526021600452602484fd5b60405162461bcd60e51b815260206004820152602560248201527f4f6e6c79206265742063726561746f722063616e20656e642070726976617465604482015264206265747360d81b6064820152608490fd5b5082543360089190911c6001600160a01b031614620001c4565b5034620001825760203660031901126200018257600435801515036200018257620007546200247b565b80f35b503462000182576020366003190112620001825760ff600460406020938235815260098552200154166200078f604051809262002350565bf35b50346200018257620007a3366200235e565b9080600052602060098152604060002060018060a01b039081600b820154169160ff600482600a8501541693015416600281101562000b275762000ad857600254166040516370a0823160e01b81523360048201528481602481855afa80156200096357879160009162000aa2575b501062000a6857836000916064604051809481936323b872dd60e01b83523360048401523060248401528b60448401525af1908115620009635760009162000a46575b501562000a0f576040516318160ddd60e01b80825291908481600481875afa92831562000963578591600094620009d7575b5060046040518094819382525afa9081156200096357600091620009a1575b50620008b291620025c6565b6000816200097457505083905b83600052600983526007604060002001620008dc868254620025c6565b9055803b156200096f576040516340c10f1960e01b815233600482015260248101929092526000908290604490829084905af18015620009635762000951575b5060405192835242908301527f4993ce8bad3916a202677d39668bcb278cf25cece8459dd4aaf022ae76656dca60403393a380f35b6200095c90620022af565b386200091c565b6040513d6000823e3d90fd5b600080fd5b60076040620009886200099a9489620024ca565b928781526009875220015490620024f4565b90620008bf565b908482813d8311620009cf575b620009ba8183620022c4565b8101031262000182575051620008b2620008a6565b503d620009ae565b9182819592953d831162000a07575b620009f28183620022c4565b81010312620001825750849051923862000887565b503d620009e6565b60405162461bcd60e51b815260048101849052600f60248201526e151c985b9cd9995c8819985a5b1959608a1b6044820152606490fd5b62000a619150843d8611620004df57620004ce8183620022c4565b3862000855565b60405162461bcd60e51b81526004810185905260126024820152714e6f7420656e6f7567682062616c616e636560701b6044820152606490fd5b91508582813d831162000ad0575b62000abc8183620022c4565b810103126200018257508690513862000812565b503d62000ab0565b60405162461bcd60e51b815260048101859052602160248201527f43616e206f6e6c792062657420647572696e67207468652042657420737461676044820152606560f81b6064820152608490fd5b634e487b7160e01b600052602160045260246000fd5b503462000182578060031936011262000182575460405160089190911c6001600160a01b03168152602090f35b50346200018257806003193601126200018257608060018060a01b036005541660065460075460085491604051938452602084015260408301526060820152f35b503462000182576060366003190112620001825762000bc962002464565b62000bd36200247b565b60018060a01b03166bffffffffffffffffffffffff60a01b60055416176005556024356006556044356007557f93b95213e7556db6d3ccd592f3cf56417142dc70c80ee046725a2767c57291c76020604051428152a180f35b5034620001825780600319360112620001825762000c496200247b565b60008054610100600160a81b03198116825560081c6001600160a01b03167f8be0079c531659141344cd1fd0a4f28419497f9722a3daafe3b4186f6b6457e08280a380f35b5034620001825780600319360112620001825760ff60209154166040519015158152f35b503462000182578060031936011262000182576020600154604051908152f35b50346200018257602036600319011262000182576004358152600960205260409020805462000d0460018301620023b2565b90600160a01b600190038060028501541693600381015491600482015460ff1660058301546006840154600785015460088601549160098701549386600a890154169587600b8a0154169780600c8b01541699600d015416996040519d8e9d8e9d8e528d6101c0908160208201520162000d7e9162002329565b9c6040015260608d015260808c0162000d979162002350565b60a08b015260c08a015260e08901526101008801526101208701526101408601526101608501526101808401526101a08301520390f35b5034620001825762000de0366200235e565b9080600052602060098152604060002060018060a01b039081600a820154169160ff600482600b8501541693015416600281101562000b275762000ad857600254166040516370a0823160e01b81523360048201528481602481855afa8015620009635787916000916200104b575b501062000a6857836000916064604051809481936323b872dd60e01b83523360048401523060248401528b60448401525af1908115620009635760009162001029575b501562000a0f576040516318160ddd60e01b80825291908481600481875afa9283156200096357859160009462000ff1575b5060046040518094819382525afa908115620009635760009162000fbb575b5062000eef91620025c6565b60008162000fa057505083905b8360005260098352600760406000200162000f19868254620025c6565b9055803b156200096f576040516340c10f1960e01b815233600482015260248101929092526000908290604490829084905af18015620009635762000f8e575b5060405192835242908301527f098c0b2f7af65ae8b055de365f8630f8a0aa432dd785391cc5c358b9890050a560403393a380f35b62000f9990620022af565b3862000f59565b600760406200098862000fb49489620024ca565b9062000efc565b908482813d831162000fe9575b62000fd48183620022c4565b810103126200018257505162000eef62000ee3565b503d62000fc8565b9182819592953d831162001021575b6200100c8183620022c4565b81010312620001825750849051923862000ec4565b503d62001000565b620010449150843d8611620004df57620004ce8183620022c4565b3862000e92565b91508582813d831162001079575b620010658183620022c4565b810103126200018257508690513862000e4f565b503d62001059565b503462000182576020806003193601126200055d57600435620010a3620024ab565b8083526009825260ff6004604085200154166002811015620006a95760010362001850578083526009825260408320600a810154600b820154600590920154936001600160a01b0392909183169083168660018703620013325750506040516370a0823160e01b8152336004820152908282602481845afa91821562001327578792620012f2575b5060405163144613ff60e31b81528381600481855afa908115620012e7578891620012b4575b5082156200127d579062001181889392878552600986526200117b600660408720015485620024ca565b620024f4565b60025460405163a9059cbb60e01b81523360048201526024810183905291968691839160449183918991165af18015620012725762001250575b50803b156200056c57604051632770a7eb60e21b8152336004820152602481019290925282908290604490829084905af18015620005615762001234575b50505b6040519384528301524260408301527f318e0a24a7fc05b12e358902d9d58475434a01768f87a4319fb35dc5b533e98660603393a380f35b6200123f90620022af565b6200124c578438620011f9565b8480fd5b6200126a90853d8711620004df57620004ce8183620022c4565b5038620011bb565b6040513d86823e3d90fd5b60405162461bcd60e51b815260048101859052600f60248201526e4e6f20275965732720636c61696d7360881b6044820152606490fd5b90508381813d8311620012df575b620012ce8183620022c4565b810103126200096f57513862001151565b503d620012c2565b6040513d8a823e3d90fd5b9091508281813d83116200131f575b6200130d8183620022c4565b810103126200096f575190386200112b565b503d62001301565b6040513d89823e3d90fd5b909160028703620015135750506040516370a0823160e01b8152336004820152908282602481845afa91821562001327578792620014de575b5060405163144613ff60e31b81528381600481855afa908115620012e7578891620014ab575b508215620014755790620013bb889392878552600986526200117b600660408720015485620024ca565b60025460405163a9059cbb60e01b81523360048201526024810183905291968691839160449183918991165af18015620012725762001453575b50803b156200056c57604051632770a7eb60e21b8152336004820152602481019290925282908290604490829084905af1801562000561576200143b575b5050620011fc565b6200144690620022af565b6200124c57843862001433565b6200146d90853d8711620004df57620004ce8183620022c4565b5038620013f5565b60405162461bcd60e51b815260048101859052600e60248201526d4e6f20274e6f2720636c61696d7360901b6044820152606490fd5b90508381813d8311620014d6575b620014c58183620022c4565b810103126200096f57513862001391565b503d620014b9565b9091508281813d83116200150b575b620014f98183620022c4565b810103126200096f575190386200136b565b503d620014ed565b60038795939295146200152a575b505050620011fc565b6040516370a0823160e01b8082523360048301529395509192908483602481845afa928315620016f75789936200181b575b506040519182523360048301528482602481875afa918215620016f7578992620017e6575b5060405163144613ff60e31b8082528682600481865afa918215620017a6578b92620017b1575b506040519081528681600481895afa8015620017a6578b906200176c575b620015df9150620015d88587620025c6565b92620025c6565b9080156200173357906200117b6200160792600660408e8d815260098c5220015490620024ca565b60025460405163a9059cbb60e01b81523360048201526024810183905291978791839160449183918f91165af18015620017285762001706575b50803b156200170257604051632770a7eb60e21b80825233600483015260248201949094529089908290604490829084905af18015620016f757620016dd575b5090829188933b15620016d95760405191825233600483015260248201529082908290604490829084905af180156200056157620016c1575b8062001521565b620016cc90620022af565b6200124c578438620016ba565b8380fd5b620016ed909891939298620022af565b9690913862001681565b6040513d8b823e3d90fd5b8880fd5b6200172090863d8811620004df57620004ce8183620022c4565b503862001641565b6040513d8c823e3d90fd5b60405162461bcd60e51b8152600481018890526011602482015270596f7520676f74206e6f20636c61696d7360781b6044820152606490fd5b508681813d83116200179e575b620017858183620022c4565b810103126200179a57620015df9051620015c6565b8a80fd5b503d62001779565b6040513d8d823e3d90fd5b9091508681813d8311620017de575b620017cc8183620022c4565b810103126200179a57519038620015a8565b503d620017c0565b9091508481813d831162001813575b620018018183620022c4565b81010312620017025751903862001581565b503d620017f5565b9092508481813d831162001848575b620018368183620022c4565b8101031262001702575191386200155c565b503d6200182a565b60405162461bcd60e51b815260048101839052601060248201526f10d85b9b9bdd0818db185a5b481e595d60821b6044820152606490fd5b5034620001825760203660031901126200018257806101a0604051620018ae816200227b565b828152606060208201528260408201528260608201528260808201528260a08201528260c08201528260e0820152826101008201528261012082015282610140820152826101608201528261018082015201526004358152600960205260408120604051916200191e836200227b565b815483526200193060018301620023b2565b60208401526002828101546001600160a01b0316604085015260038301546060850152600483015460ff16919082101562001ac857506080830152600581015460a0830152600681015460c0830152600781015460e083015260088101546101008301526009810154610120830152600a8101546001600160a01b03908116610140840152600b8201548116610160840152600c8201548116610180840152600d90910154166101a08201526040805160208082528351818301528301516101c09282019290925291829162001a0c906101e084019062002329565b9060018060a01b0360408201511660608401526060810151608084015262001a3d608082015160a085019062002350565b60a081015160c084015260c081015160e084015260e081015161010084015261010081015161012084015261012081015161014084015260018060a01b036101408201511661016084015260018060a01b036101608201511661018084015260018060a01b03610180820151166101a08401526101a060018060a01b03910151166101c08301520390f35b634e487b7160e01b81526021600452602490fd5b50346200018257606036600319011262000182576004359067ffffffffffffffff82116200018257366023830112156200018257816004013562001b2081620022e7565b9262001b306040519485620022c4565b81845236602483830101116200056c57818392602460209301838701378401015262001b5b620024ab565b42602435111562002236576001546000198114620022225760010180600155808183927a184f03e93ff9f4daa797ed6e38ed64bf6a1f010000000000000000908181101562002212575b5050600a906d04ee2d6d415b85acef81000000008082101562002204575b50662386f26fc1000080821015620021f6575b506305f5e10080821015620021e8575b5061271080821015620021da575b506064811015620021cb575b1015620021bf575b600a6021600184019362001c1c85620022e7565b9462001c2c6040519687620022c4565b80865262001c3d601f1991620022e7565b013660208701378401015b60001901916f181899199a1a9b1b9c1cb0b131b232b360811b8282061a835304801562001c7957600a909162001c48565b50508162001da36040519262001d1d815162001c9d81602088016020860162002304565b85019462001ccd602c826b2d5945532d7072697661746560a01b9889602082015203600c810184520182620022c4565b6040519062001d1760348367426f6e646572563160c01b998a6020830152875162001d00816028850160208c0162002304565b8201906028820152036014810185520183620022c4565b6200255e565b9362001d17603360405192845162001d3d81602087016020890162002304565b840162001d6b602b866a2d4e4f2d7072697661746560a81b9384602082015203600b810188520186620022c4565b604051958692602084015262001d8c81518092602060288701910162002304565b8201906028820152036013810185520183620022c4565b600480546002546040516364e329cb60e11b81526001600160a01b0387811694820194909452908316602482015293602092859260449284929091165af1918215620012725790849291839262002199575b50600480546002546040516364e329cb60e11b81526001600160a01b0385811694820194909452908316602482015294602092869260449284929091165af19283156200053a57859362002161575b50600154936040519662001e58886200227b565b858852602088015233604088015260243560608801528560808801528560a08801528560c08801528560e0880152856101008801528561012088015260018060a01b031661014087015260018060a01b031661016086015260018060a01b031661018085015260018060a01b03166101a084015260443560085581526009602052604081209180518355602081015192835167ffffffffffffffff81116200214d5762001f09600183015462002375565b601f811162002104575b506020601f821160011462002093578495829394959262002087575b50508160011b916000199060031b1c19161760018201555b60018060a01b036040830151166bffffffffffffffffffffffff60a01b6002830154161760028201556060820151600382015560048101608083015160028110156200207357815460ff90911660ff199190911617905560a0820151600582015560c0820151600682015560e0820151600782015561010082015160088201556101208201516009820155610140820151600a820180546001600160a01b03199081166001600160a01b0393841617909155610160840151600b840180548316918416919091179055610180840151600c8401805483169184169190911790556101a090930151600d92909201805490931691161790556001546040514281523391907f5d51034605fe51fe0de6338bcab547034242e3f1b36e80aec6af07ebda031ded90602090a380f35b634e487b7160e01b85526021600452602485fd5b01519050388062001f2f565b6001830185526020852090855b601f1984168110620020eb575060019394959683601f19811610620020d1575b505050811b01600182015562001f47565b015160001960f88460031b161c19169055388080620020c0565b9091602060018192858b015181550193019101620020a0565b60018301855260208520601f830160051c81016020841062002145575b601f830160051c820181106200213957505062001f13565b86815560010162002121565b508062002121565b634e487b7160e01b84526041600452602484fd5b6200218991935060203d60201162002191575b620021808183620022c4565b8101906200253d565b913862001e44565b503d62002174565b620021b791925060203d6020116200219157620021808183620022c4565b903862001df5565b60019091019062001c08565b60646002910493019262001c00565b600491049301923862001bf4565b600891049301923862001be6565b601091049301923862001bd6565b602091049301923862001bc3565b60409450049050600a3862001ba5565b634e487b7160e01b82526011600452602482fd5b60405162461bcd60e51b815260206004820152601960248201527f4578706972792074696d6520696e2074686520667574757265000000000000006044820152606490fd5b6101c0810190811067ffffffffffffffff8211176200229957604052565b634e487b7160e01b600052604160045260246000fd5b67ffffffffffffffff81116200229957604052565b90601f8019910116810190811067ffffffffffffffff8211176200229957604052565b67ffffffffffffffff81116200229957601f01601f191660200190565b60005b838110620023185750506000910152565b818101518382015260200162002307565b90602091620023448151809281855285808601910162002304565b601f01601f1916010190565b90600282101562000b275752565b60409060031901126200096f576004359060243590565b90600182811c92168015620023a7575b60208310146200239157565b634e487b7160e01b600052602260045260246000fd5b91607f169162002385565b9060405191826000825492620023c88462002375565b9081845260019485811690816000146200243f5750600114620023f8575b5050620023f692500383620022c4565b565b9093915060005260209081600020936000915b81831062002426575050620023f693508201013880620023e6565b855488840185015294850194879450918301916200240b565b915050620023f694506020925060ff191682840152151560051b8201013880620023e6565b600435906001600160a01b03821682036200096f57565b60005460081c6001600160a01b031633036200249357565b60405163118cdaa760e01b8152336004820152602490fd5b60ff60005416620024b857565b60405163d93c066560e01b8152600490fd5b81810292918115918404141715620024de57565b634e487b7160e01b600052601160045260246000fd5b8115620024ff570490565b634e487b7160e01b600052601260045260246000fd5b908160209103126200096f575180151581036200096f5790565b91908203918211620024de57565b908160209103126200096f57516001600160a01b03811681036200096f5790565b9060405191610e25918284019084821067ffffffffffffffff83111762002299576200259f620025ae938695620025d5873960408452604084019062002329565b91602081840391015262002329565b03906000f0801562000963576001600160a01b031690565b91908201809211620024de5756fe608060405234620003815762000e25803803806200001d8162000386565b928339810190604081830312620003815780516001600160401b03908181116200038157836200004f918401620003ac565b916020938482015183811162000381576200006b9201620003ac565b825182811162000281576003918254916001958684811c9416801562000376575b8885101462000360578190601f948581116200030a575b508890858311600114620002a35760009262000297575b505060001982861b1c191690861b1783555b8051938411620002815760049586548681811c9116801562000276575b82821014620002615783811162000216575b5080928511600114620001a857509383949184926000956200019c575b50501b92600019911b1c19161781555b3315620001845760058054336001600160a01b03198216811790925560405191906001600160a01b03167f8be0079c531659141344cd1fd0a4f28419497f9722a3daafe3b4186f6b6457e0600080a3610a0690816200041f8239f35b602490600060405191631e4fbdf760e01b8352820152fd5b01519350388062000118565b92919084601f1981168860005285600020956000905b89838310620001fb5750505010620001e0575b50505050811b01815562000128565b01519060f884600019921b161c1916905538808080620001d1565b858701518955909701969485019488935090810190620001be565b87600052816000208480880160051c82019284891062000257575b0160051c019087905b8281106200024a575050620000fb565b600081550187906200023a565b9250819262000231565b602288634e487b7160e01b6000525260246000fd5b90607f1690620000e9565b634e487b7160e01b600052604160045260246000fd5b015190503880620000ba565b90889350601f19831691876000528a6000209260005b8c828210620002f35750508411620002da575b505050811b018355620000cc565b015160001983881b60f8161c19169055388080620002cc565b8385015186558c97909501949384019301620002b9565b90915085600052886000208580850160051c8201928b861062000356575b918a91869594930160051c01915b82811062000346575050620000a3565b600081558594508a910162000336565b9250819262000328565b634e487b7160e01b600052602260045260246000fd5b93607f16936200008c565b600080fd5b6040519190601f01601f191682016001600160401b038111838210176200028157604052565b919080601f84011215620003815782516001600160401b0381116200028157602090620003e2601f8201601f1916830162000386565b92818452828287010111620003815760005b8181106200040a57508260009394955001015290565b8581018301518482018401528201620003f456fe6080604081815260048036101561001557600080fd5b600092833560e01c90816306fdde031461073457508063095ea7b31461068b57806318160ddd1461066c57806323b872dd14610579578063313ce5671461055d57806340c10f19146104b357806370a082311461047c578063715018a61461041c5780638da5cb5b146103f357806395d89b41146102d35780639dc29fac146101f7578063a2309ff8146101d8578063a9059cbb146101a7578063dd62ed3e1461015a5763f2fde38b146100c857600080fd5b34610156576020366003190112610156576100e1610872565b906100ea6108a3565b6001600160a01b03918216928315610140575050600554826bffffffffffffffffffffffff60a01b821617600555167f8be0079c531659141344cd1fd0a4f28419497f9722a3daafe3b4186f6b6457e08380a380f35b51631e4fbdf760e01b8152908101849052602490fd5b8280fd5b5050346101a357806003193601126101a35780602092610178610872565b61018061088d565b6001600160a01b0391821683526001865283832091168252845220549051908152f35b5080fd5b5050346101a357806003193601126101a3576020906101d16101c7610872565b60243590336108cf565b5160018152f35b5050346101a357816003193601126101a3576020906006549051908152f35b508290346101a357826003193601126101a357610212610872565b906024359061021f6108a3565b6001600160a01b0383169283156102bc578385528460205285852054918383106102885750508184957fddf252ad1be2c89b69c2b068fc378daa952ba7f163c4a11628f55a4df523b3ef936020938688528785520381872055816002540360025551908152a380f35b865163391434e360e21b81526001600160a01b03909216908201908152602081018390526040810184905281906060010390fd5b8551634b637e8f60e11b8152808301869052602490fd5b509190346101a357816003193601126101a357805190828454600181811c908083169283156103e9575b60209384841081146103d6578388529081156103ba5750600114610365575b505050829003601f01601f191682019267ffffffffffffffff841183851017610352575082918261034e925282610829565b0390f35b634e487b7160e01b815260418552602490fd5b8787529192508591837f8a35acfbc15ff81a39ae7d344fd709f28e8600b4aa8c65c6b64bfe7fe36bd19b5b8385106103a6575050505083010138808061031c565b805488860183015293019284908201610390565b60ff1916878501525050151560051b840101905038808061031c565b634e487b7160e01b895260228a52602489fd5b91607f16916102fd565b5050346101a357816003193601126101a35760055490516001600160a01b039091168152602090f35b83346104795780600319360112610479576104356108a3565b600580546001600160a01b0319811690915581906001600160a01b03167f8be0079c531659141344cd1fd0a4f28419497f9722a3daafe3b4186f6b6457e08280a380f35b80fd5b5050346101a35760203660031901126101a35760209181906001600160a01b036104a4610872565b16815280845220549051908152f35b508290346101a357826003193601126101a3576104ce610872565b90602435916104db6108a3565b6001600160a01b03169081156105465750827fddf252ad1be2c89b69c2b068fc378daa952ba7f163c4a11628f55a4df523b3ef60206105409596610521866002546109ad565b60025584845283825280842086815401905551858152a36006546109ad565b60065580f35b845163ec442f0560e01b8152908101849052602490fd5b5050346101a357816003193601126101a3576020905160128152f35b50823461047957606036600319011261047957610594610872565b61059c61088d565b916044359360018060a01b0383168083526001602052868320338452602052868320549160001983036105d8575b6020886101d18989896108cf565b868310610640578115610629573315610612575082526001602090815286832033845281529186902090859003905582906101d1876105ca565b8751634a1406b160e11b8152908101849052602490fd5b875163e602df0560e01b8152908101849052602490fd5b8751637dc7a0d960e11b8152339181019182526020820193909352604081018790528291506060010390fd5b5050346101a357816003193601126101a3576020906002549051908152f35b50346101565781600319360112610156576106a4610872565b60243590331561071d576001600160a01b031691821561070657508083602095338152600187528181208582528752205582519081527f8c5be1e5ebec7d5bd14f71427d1e84f3dd0314c0f7b2291e5b200ac8c7c3b925843392a35160018152f35b8351634a1406b160e11b8152908101859052602490fd5b835163e602df0560e01b8152808401869052602490fd5b849150833461015657826003193601126101565782600354600181811c9080831692831561081f575b60209384841081146103d65783885290811561080357506001146107ad57505050829003601f01601f191682019267ffffffffffffffff841183851017610352575082918261034e925282610829565b600387529192508591837fc2575a0e9e593c00f959f8c92f12db2869c3395a3b0502d05e2516446f71f85b5b8385106107ef575050505083010185808061031c565b8054888601830152930192849082016107d9565b60ff1916878501525050151560051b840101905085808061031c565b91607f169161075d565b6020808252825181830181905290939260005b82811061085e57505060409293506000838284010152601f8019910116010190565b81810186015184820160400152850161083c565b600435906001600160a01b038216820361088857565b600080fd5b602435906001600160a01b038216820361088857565b6005546001600160a01b031633036108b757565b60405163118cdaa760e01b8152336004820152602490fd5b916001600160a01b03808416928315610994571692831561097b5760009083825281602052604082205490838210610949575091604082827fddf252ad1be2c89b69c2b068fc378daa952ba7f163c4a11628f55a4df523b3ef958760209652828652038282205586815220818154019055604051908152a3565b60405163391434e360e21b81526001600160a01b03919091166004820152602481019190915260448101839052606490fd5b60405163ec442f0560e01b815260006004820152602490fd5b604051634b637e8f60e11b815260006004820152602490fd5b919082018092116109ba57565b634e487b7160e01b600052601160045260246000fdfea2646970667358221220e4b9db63b454b462baa5ef15ed45070ecdd7274888d6229a7144081cd121678664736f6c63430008140033a264697066735822122096c1d828befc4fcb03124e4b00cda04e22f9843ce75d407ccf3ef613cecfd9f364736f6c63430008140033",
    "linkReferences": {}
  },
  "methodIdentifiers": {
    "betSettings()": "869dc336",
    "buyNo(uint256,uint256)": "a9f6b058",
    "buyYes(uint256,uint256)": "399af502",
    "claim(uint256)": "379607f5",
    "createPrivateBet(string,uint256,uint256)": "1298d2a5",
    "endPrivateBet(uint256,uint256)": "e10f60e1",
    "getBetStruct(uint256)": "14fe6c9d",
    "getEnumValue(uint256)": "b56202c8",
    "idToBet(uint256)": "4539588e",
    "owner()": "8da5cb5b",
    "paused()": "5c975abb",
    "privateBetId()": "46aa1bdc",
    "renounceOwnership()": "715018a6",
    "setBetSettings(address,uint256,uint256)": "7bd172b2",
    "setPause(bool)": "bedb86fb",
    "transferOwnership(address)": "f2fde38b"
  },
  "id": 50
}