{"abi":[{"type":"constructor","inputs":[{"name":"_usdcAddr","type":"address","internalType":"address"},{"name":"_creatorNFTAddr","type":"address","internalType":"address"},{"name":"_controller","type":"address","internalType":"address"}],"stateMutability":"nonpayable"},{"type":"function","name":"buyNo","inputs":[{"name":"_betId","type":"uint256","internalType":"uint256"},{"name":"_amount","type":"uint256","internalType":"uint256"}],"outputs":[],"stateMutability":"nonpayable"},{"type":"function","name":"buyYes","inputs":[{"name":"_betId","type":"uint256","internalType":"uint256"},{"name":"_amount","type":"uint256","internalType":"uint256"}],"outputs":[],"stateMutability":"nonpayable"},{"type":"function","name":"controller","inputs":[],"outputs":[{"name":"","type":"address","internalType":"address"}],"stateMutability":"view"},{"type":"function","name":"createBet","inputs":[{"name":"_betCid","type":"string","internalType":"string"},{"name":"_cutoffTime","type":"uint256","internalType":"uint256"},{"name":"_creatorFee","type":"uint256","internalType":"uint256"}],"outputs":[],"stateMutability":"nonpayable"},{"type":"function","name":"creatorNFT","inputs":[],"outputs":[{"name":"","type":"address","internalType":"contract IBonderV1CreatorNFT"}],"stateMutability":"view"},{"type":"function","name":"creatorNFTAddress","inputs":[],"outputs":[{"name":"","type":"address","internalType":"address"}],"stateMutability":"view"},{"type":"function","name":"getBetStruct","inputs":[{"name":"_betId","type":"uint256","internalType":"uint256"}],"outputs":[{"name":"betStruct","type":"tuple","internalType":"struct BonderV1YesNoFactory.Bet","components":[{"name":"betId","type":"uint256","internalType":"uint256"},{"name":"creatorId","type":"uint256","internalType":"uint256"},{"name":"betCid","type":"string","internalType":"string"},{"name":"cutoffTime","type":"uint256","internalType":"uint256"},{"name":"timeFlag","type":"uint256","internalType":"uint256"},{"name":"phase","type":"uint8","internalType":"enum BonderV1YesNoFactory.Phase"},{"name":"result","type":"uint256[3]","internalType":"uint256[3]"},{"name":"leadOutcome","type":"uint256","internalType":"uint256"},{"name":"disputeLevel","type":"uint256","internalType":"uint256"},{"name":"feeToMarketBonders","type":"uint256","internalType":"uint256"},{"name":"claimAmt","type":"uint256","internalType":"uint256"},{"name":"totalDeposited","type":"uint256","internalType":"uint256"},{"name":"yesBonds","type":"uint256","internalType":"uint256"},{"name":"noBonds","type":"uint256","internalType":"uint256"},{"name":"yesToken","type":"address","internalType":"address"},{"name":"noToken","type":"address","internalType":"address"}]}],"stateMutability":"view"},{"type":"function","name":"getEnumValue","inputs":[{"name":"_betId","type":"uint256","internalType":"uint256"}],"outputs":[{"name":"","type":"uint8","internalType":"enum BonderV1YesNoFactory.Phase"}],"stateMutability":"view"},{"type":"function","name":"idToBet","inputs":[{"name":"","type":"uint256","internalType":"uint256"}],"outputs":[{"name":"betId","type":"uint256","internalType":"uint256"},{"name":"creatorId","type":"uint256","internalType":"uint256"},{"name":"betCid","type":"string","internalType":"string"},{"name":"cutoffTime","type":"uint256","internalType":"uint256"},{"name":"timeFlag","type":"uint256","internalType":"uint256"},{"name":"phase","type":"uint8","internalType":"enum BonderV1YesNoFactory.Phase"},{"name":"leadOutcome","type":"uint256","internalType":"uint256"},{"name":"disputeLevel","type":"uint256","internalType":"uint256"},{"name":"feeToMarketBonders","type":"uint256","internalType":"uint256"},{"name":"claimAmt","type":"uint256","internalType":"uint256"},{"name":"totalDeposited","type":"uint256","internalType":"uint256"},{"name":"yesBonds","type":"uint256","internalType":"uint256"},{"name":"noBonds","type":"uint256","internalType":"uint256"},{"name":"yesToken","type":"address","internalType":"address"},{"name":"noToken","type":"address","internalType":"address"}],"stateMutability":"view"},{"type":"function","name":"idToFactorySettings","inputs":[{"name":"","type":"uint256","internalType":"uint256"}],"outputs":[{"name":"betId","type":"uint256","internalType":"uint256"},{"name":"createBetDeposit","type":"uint256","internalType":"uint256"},{"name":"creatorFee","type":"uint256","internalType":"uint256"},{"name":"bonderFee","type":"uint256","internalType":"uint256"},{"name":"pdt","type":"uint256","internalType":"uint256"},{"name":"bdt","type":"uint256","internalType":"uint256"},{"name":"vd","type":"uint256","internalType":"uint256"},{"name":"pdd","type":"uint256","internalType":"uint256"},{"name":"bdd","type":"uint256","internalType":"uint256"}],"stateMutability":"view"},{"type":"function","name":"isPaused","inputs":[],"outputs":[{"name":"","type":"bool","internalType":"bool"}],"stateMutability":"view"},{"type":"function","name":"playerToBets","inputs":[{"name":"","type":"address","internalType":"address"},{"name":"","type":"uint256","internalType":"uint256"}],"outputs":[{"name":"","type":"uint256","internalType":"uint256"}],"stateMutability":"view"},{"type":"function","name":"setController","inputs":[{"name":"controller_","type":"address","internalType":"address"}],"outputs":[],"stateMutability":"nonpayable"},{"type":"function","name":"setPause","inputs":[{"name":"_setPause","type":"bool","internalType":"bool"}],"outputs":[],"stateMutability":"nonpayable"},{"type":"function","name":"totalBets","inputs":[],"outputs":[{"name":"","type":"uint256","internalType":"uint256"}],"stateMutability":"view"},{"type":"function","name":"usdc","inputs":[],"outputs":[{"name":"","type":"address","internalType":"contract IERC20"}],"stateMutability":"view"},{"type":"function","name":"usdcAddress","inputs":[],"outputs":[{"name":"","type":"address","internalType":"address"}],"stateMutability":"view"}],"bytecode":{"object":"0x608034620000bd57601f62002cff38819003918201601f19168301916001600160401b03831184841017620000c157808492606094604052833981010312620000bd576200004d81620000d5565b6200006960406200006160208501620000d5565b9301620000d5565b60018060a01b038092168260018060a01b0319948286600354161760035516908185600454161760045584600154161760015583600254161760025516905f5416175f55604051612c149081620000eb8239f35b5f80fd5b634e487b7160e01b5f52604160045260245ffd5b51906001600160a01b0382168203620000bd5756fe608080604052600436101562000013575f80fd5b5f90813560e01c90816302d454571462001b645750806314fe6c9d1462001894578063399af502146200153b5780633e413bee14620015105780634539588e146200140e5780634f0cbfa814620013895780634f6d3f23146200135e57806392eefe9b14620012c15780639ec57d5514620006d0578063a9f6b05814620002d5578063ad4478c21462000278578063b187bd261462000251578063b56202c81462000216578063bedb86fb1462000161578063befa1e2f1462000141578063e72018d514620001165763f77c479114620000eb575f80fd5b346200011357806003193601126200011357546040516001600160a01b039091168152602090f35b80fd5b503462000113578060031936011262000113576002546040516001600160a01b039091168152602090f35b503462000113578060031936011262000113576020600554604051908152f35b5034620001135760203660031901126200011357600435801515810362000212578154906001600160a01b0382163303620001bd5715620001b15750805460ff60a01b1916600160a01b17815580f35b60ff60a01b1916815580f35b60405162461bcd60e51b815260206004820152602760248201527f4f6e6c7920636f6e74726f6c6c65722063616e207061757365207468697320636044820152661bdb9d1c9858dd60ca1b6064820152608490fd5b5080fd5b503462000113576020366003190112620001135760ff60056040602093600435815260068552200154166200024f604051809262001bd5565bf35b5034620001135780600319360112620001135760ff6020915460a01c166040519015158152f35b50346200011357604036600319011262000113576200029662001d55565b6001600160a01b031681526008602052604081208054602435929083101562000113576020620002c7848462001d89565b90546040519160031b1c8152f35b50346200011357620002e73662001be3565b620002fa60ff845460a01c161562001db3565b815f526020906006825260ff600560405f200154166004811015620006bc5762000677576003546040516370a0823160e01b81523360048201526001600160a01b0392918316908481602481855afa8015620005105783915f9162000641575b501062000607576040516323b872dd60e01b815233600482015230602482015260448101839052908490829060649082905f905af180156200051057620003aa915f91620005d3575b5062001e0f565b835f526006835260405f2091601081601185015416930154166040519063144613ff60e31b918281528581600481885afa928315620005105786915f946200059b575b5060046040518094819382525afa90811562000510575f9162000565575b50620004179162001ec3565b5f816200051f575050805b845f52600684526200043d600d60405f200191825462001ec3565b9055813b156200051b575f91604483926040519485938492637262fb3560e01b845233600485015260248401525af180156200051057620004fe575b50335f5260088152620004908260405f2062001ed1565b156200049a578280f35b600890335f525260405f2090815491600160401b831015620004ea5782620004cc916001620004e49501815562001d89565b90919082549060031b91821b915f19901b1916179055565b5f808280f35b634e487b7160e01b5f52604160045260245ffd5b620005099062001c53565b5f62000479565b6040513d5f823e3d90fd5b5f80fd5b81830291838304148315171562000551578581526006855260409020600d01546200054a9162001ea4565b9062000422565b634e487b7160e01b81526011600452602490fd5b908582813d831162000593575b6200057e818362001c85565b8101031262000113575051620004176200040b565b503d62000572565b9182819592953d8311620005cb575b620005b6818362001c85565b81010312620001135750859051925f620003ed565b503d620005aa565b620005f89150853d8711620005ff575b620005ef818362001c85565b81019062001df5565b5f620003a3565b503d620005e3565b60405162461bcd60e51b81526004810185905260126024820152714e6f7420656e6f7567682062616c616e636560701b6044820152606490fd5b91508582813d83116200066f575b6200065b818362001c85565b810103126200011357508290515f6200035a565b503d6200064f565b60405162461bcd60e51b815260048101839052601d60248201527f43616e206f6e6c792062657420647572696e67204265742070686173650000006044820152606490fd5b634e487b7160e01b5f52602160045260245ffd5b503462000113576060366003190112620001135760043567ffffffffffffffff8111620002125736602382011215620002125781816004013591620007158362001d6c565b9262000725604051948562001c85565b808452366024828401011162001035578060246020930183860137830101526200075760ff835460a01c161562001db3565b4260243511156200127c57600480546040516315f9166960e11b8152339281019290925283906001600160a01b0316602083602481845afa9283156200127157829362001237575b508215620011ba575b505060048054604051630ee7ddff60e31b81529182018390526001600160a01b03169290602081602481875afa90811562000f9d5785916200117e575b50604435116200112d576020600493604051948580926303491f7160e21b82525afa92831562001122578493620010e4575b506003546040516370a0823160e01b81523360048201526001600160a01b0390911690602081602481855afa8015620010d957859187916200109a575b501062001056576040516323b872dd60e01b815233600482015230602482015260448101859052906020908290606490829089905af1801562000f9d57620008a491869162001039575062001e0f565b83620008b260055462001e4e565b60058190556004546001600160a01b0316803b15620010355760448392604051948593849263040f281960e51b845289600485015260248401525af1801562000f9d576200101f575b506005548085917a184f03e93ff9f4daa797ed6e38ed64bf6a1f010000000000000000808310156200100f575b50600a906d04ee2d6d415b85acef81000000008082101562001001575b50662386f26fc100008082101562000ff3575b506305f5e1008082101562000fe5575b506127108082101562000fd7575b50606481101562000fc8575b101562000fbc575b600a60216200099c6001850162001d6c565b93620009ac604051958662001c85565b60018101808652601f1990620009c29062001d6c565b013660208701378401015b5f1901916f181899199a1a9b1b9c1cb0b131b232b360811b8282061a8353048015620009fd57600a9091620009cd565b50506040516f2137b73232b92b18a132ba2a37b5b2b760811b602082015262000a55603482845162000a3781603084016020890162001b8b565b8101632d59455360e01b603082015203601481018452018262001c85565b60405162000a95602782855162000a74816020840160208a0162001b8b565b8101662d5945532d563160c81b602082015203600781018452018262001c85565b6040519182610cc681011067ffffffffffffffff610cc68501111762000fa857829162000ad091610cc662001f198539610cc6840162001e71565b039086f090811562000f9d57604051906f2137b73232b92b18a132ba2a37b5b2b760811b602083015262000b32603383835162000b1581603084016020880162001b8b565b8101622d4e4f60e81b603082015203601381018552018362001c85565b62000b7460266040518362000b5282955180926020808601910162001b8b565b8101652d4e4f2d563160d01b6020820152600682820301825203018262001c85565b6040519182610cc681011067ffffffffffffffff610cc68501111762000fa857829162000baf91610cc662001f198539610cc6840162001e71565b039086f090811562000f9d57600554926040519081606081011067ffffffffffffffff606084011117620004ea57606082016040528782528760208301528760408301526040519562000c028762001c35565b8587526020870152604086015260243560608601524260808601528660a086015260c08501528560e08501528561010085015285610120850152856101408501528561016085015285610180850152856101a085015260018060a01b03166101c084015260018060a01b03166101e0830152604051928361012081011067ffffffffffffffff61012086011117620004ea576101208401604052818452602084015260443560408401528360608401528360808401528360a08401528360c08401528360e08401528361010084015283526006602052604083208151815560208201516001820155604082015180519067ffffffffffffffff821162000f8957819062000d13600285015462001bfa565b601f811162000f34575b50602090601f831160011462000ec157879262000eb5575b50508160011b915f199060031b1c19161760028201555b606082015160038201556080820151600482015560a0820151600481101562000ea157600582019060ff8019835416911617905560c0820151845b6003811062000e8957505060e08201516009820155610100820151600a820155610120820151600b820155610140820151600c820155610160820151600d820155610180820151600e8201556101a0820151600f8201556011601082019160018060a01b036101c085015116926bffffffffffffffffffffffff60a01b938482541617905501916101e060018060a01b0391015116908254161790556005548252600760205260086101006040842092805184556020810151600185015560408101516002850155606081015160038501556080810151600485015560a0810151600585015560c0810151600685015560e08101516007850155015191015580f35b60019060208351930192600682860101550162000d87565b634e487b7160e01b85526021600452602485fd5b015190505f8062000d35565b9250600284018752602087209087935b601f198416851062000f18576001945083601f1981161062000eff575b505050811b01600282015562000d4c565b01515f1960f88460031b161c191690555f808062000eee565b8181015183556020948501946001909301929091019062000ed1565b90915060028401875260208720601f840160051c81016020851062000f81575b90849392915b601f830160051c8201811062000f7257505062000d1d565b5f815585945060010162000f5a565b508062000f54565b634e487b7160e01b86526041600452602486fd5b6040513d87823e3d90fd5b634e487b7160e01b88526041600452602488fd5b6001909101906200098a565b60646002910493019262000982565b600491049301925f62000976565b600891049301925f62000968565b601091049301925f62000958565b602091049301925f62000945565b6040935082049050600a62000928565b6200102d9094919462001c53565b925f620008fb565b8280fd5b620005f8915060203d602011620005ff57620005ef818362001c85565b606460405162461bcd60e51b815260206004820152602060248201527f4e6f7420656e6f7567682062616c616e636520746f20637265617465206265746044820152fd5b9150506020813d602011620010d0575b81620010b96020938362001c85565b81010312620010cc578490515f62000854565b8580fd5b3d9150620010aa565b6040513d88823e3d90fd5b9092506020813d60201162001119575b81620011036020938362001c85565b81010312620011155751915f62000817565b8380fd5b3d9150620010f4565b6040513d86823e3d90fd5b60405162461bcd60e51b815260206004820152602360248201527f43616e6e6f742073657420686967686572207468616e20796f7572206665652060448201526206361760ec1b6064820152608490fd5b90506020813d602011620011b1575b816200119c6020938362001c85565b81010312620011ad57515f620007e5565b8480fd5b3d91506200118d565b604051630159c0b760e61b81523360048201529250602091839160249183915af19081156200122c578391620011f4575b50825f620007a8565b90506020813d60201162001223575b81620012126020938362001c85565b810103126200103557515f620011eb565b3d915062001203565b6040513d85823e3d90fd5b9092506020813d60201162001268575b81620012566020938362001c85565b81010312620002125751915f6200079f565b3d915062001247565b6040513d84823e3d90fd5b60405162461bcd60e51b815260206004820152601960248201527f4578706972792074696d6520696e2074686520667574757265000000000000006044820152606490fd5b5034620001135760203660031901126200011357620012df62001d55565b8154906001600160a01b039081831633036200130e5716906bffffffffffffffffffffffff60a01b1617815580f35b60405162461bcd60e51b815260206004820152602260248201527f4f6e6c7920636f6e74726f6c6c65722063616e2073657420636f6e74726f6c6c60448201526132b960f11b6064820152608490fd5b503462000113578060031936011262000113576004546040516001600160a01b039091168152602090f35b503462000113576020366003190112620001135760406101209160043581526007602052208054906001810154906002810154600382015460048301546005840154916006850154936008600787015496015496604051988952602089015260408801526060870152608086015260a085015260c084015260e0830152610100820152f35b503462000113576020366003190112620001135760043581526006602052604090208054600182015490620014466002840162001ca8565b926003810154906004810154600582015460ff166009830154600a840154600b850154600c86015491600d87015493600e88015495600f89015497600160a01b600190038060108c0154169a60110154169a6040519e8f9e8f9e8f908152602001528d6101e09081604082015201620014bf9162001bae565b9c6060015260808d015260a08c01620014d89162001bd5565b60c08b015260e08a01526101008901526101208801526101408701526101608601526101808501526101a08401526101c08301520390f35b503462000113578060031936011262000113576003546040516001600160a01b039091168152602090f35b503462000113576200154d3662001be3565b6200156060ff845460a01c161562001db3565b82908284526020906006825260ff6005604087200154166004811015620018805762000677576003546040516370a0823160e01b81523360048201526001600160a01b03918216908481602481855afa80156200187557849189916200183a575b501062000607576040516323b872dd60e01b8152336004820152306024820152604481018490528793929185908290606490829088905af180156200112257620016139185916200181f575062001e0f565b8583526006845260408320906011816010840154169201541660405163144613ff60e31b908181528681600481875afa918215620010d95787918793620017e8575b5060046040518095819382525afa90811562000f9d578591620017b0575b6200167f925062001ec3565b80620017625750815b86845260068552620016a3600d604086200191825462001ec3565b9055803b156200103557604483926040519485938492637262fb3560e01b845233600485015260248401525af1801562000f9d576200174c575b5033825260088152620016f4836040842062001ed1565b15620016fe578380f35b6008903383525260408120805491600160401b83101562001738575081620004cc91600162001731959401815562001d89565b5f80808380f35b634e487b7160e01b81526041600452602490fd5b6200175991925062001c53565b82905f620016dd565b828192939450029083820414831517156200179c57906200179587939287855260068652600d6040862001549062001ea4565b9162001688565b634e487b7160e01b87526011600452602487fd5b90508582813d8311620017e0575b620017ca818362001c85565b81010312620011ad576200167f91519062001673565b503d620017be565b8281939294503d831162001817575b62001803818362001c85565b81010312620010cc57869051915f62001655565b503d620017f7565b620005f89150863d8811620005ff57620005ef818362001c85565b809250868092503d83116200186d575b62001856818362001c85565b8101031262001869578390515f620015c1565b8780fd5b503d6200184a565b6040513d8a823e3d90fd5b634e487b7160e01b86526021600452602486fd5b5034620001135760203660031901126200011357806101e0604051620018ba8162001c35565b828152826020820152606060408201528260608201528260808201528260a0820152604051620018ea8162001c68565b606036823760c08201528260e08201528261010082015282610120820152826101408201528261016082015282610180820152826101a0820152826101c082015201526004358152600660205260408120604051906200194a8262001c35565b8054825260018101546020830152620019666002820162001ca8565b6040830152600381015460608301526004810154608083015260ff600582015416600481101562001b505760a08301526040516006820184825b6003821062001b3957505050620019b78162001c68565b60c0830152600981015460e0830152600a810154610100830152600b810154610120830152600c810154610140830152600d810154610160830152600e810154610180830152600f8101546101a083015260108101546001600160a01b039081166101c0840152601190910154166101e08201526040805160208082528351818301528301518183015290820151610240606083015290919062001a619061026084019062001bae565b9060608101516080840152608081015160a084015262001a8a60a082015160c085019062001bd5565b60c08101519360e084015b6003821062001b2257505082935060e08101516101408401526101008101516101608401526101208101516101808401526101408101516101a08401526101608101516101c08401526101808101516101e08401526101a081015161020084015260018060a01b036101c0820151166102208401526101e060018060a01b03910151166102408301520390f35b602080600192885181520196019101909462001a95565b6001602081928554815201930191019091620019a0565b634e487b7160e01b84526021600452602484fd5b90503462000212578160031936011262000212576001546001600160a01b03168152602090f35b5f5b83811062001b9d5750505f910152565b818101518382015260200162001b8d565b9060209162001bc98151809281855285808601910162001b8b565b601f01601f1916010190565b906004821015620006bc5752565b60409060031901126200051b576004359060243590565b90600182811c9216801562001c2a575b602083101462001c1657565b634e487b7160e01b5f52602260045260245ffd5b91607f169162001c0a565b610200810190811067ffffffffffffffff821117620004ea57604052565b67ffffffffffffffff8111620004ea57604052565b6060810190811067ffffffffffffffff821117620004ea57604052565b90601f8019910116810190811067ffffffffffffffff821117620004ea57604052565b9060405191825f82549262001cbd8462001bfa565b9081845260019485811690815f1462001d30575060011462001cec575b505062001cea9250038362001c85565b565b909391505f52602090815f20935f915b81831062001d1757505062001cea93508201015f8062001cda565b8554888401850152948501948794509183019162001cfc565b91505062001cea94506020925060ff191682840152151560051b8201015f8062001cda565b600435906001600160a01b03821682036200051b57565b67ffffffffffffffff8111620004ea57601f01601f191660200190565b805482101562001d9f575f5260205f2001905f90565b634e487b7160e01b5f52603260045260245ffd5b1562001dbb57565b60405162461bcd60e51b815260206004820152601260248201527110dbdb9d1c9858dd081a5cc81c185d5cd95960721b6044820152606490fd5b908160209103126200051b575180151581036200051b5790565b1562001e1757565b60405162461bcd60e51b815260206004820152600f60248201526e151c985b9cd9995c8819985a5b1959608a1b6044820152606490fd5b5f19811462001e5d5760010190565b634e487b7160e01b5f52601160045260245ffd5b929162001e9f60409162001e9060129460608852606088019062001bae565b90868203602088015262001bae565b930152565b811562001eaf570490565b634e487b7160e01b5f52601260045260245ffd5b9190820180921162001e5d57565b905f5b825481101562001f11578162001eeb828562001d89565b90549060031b1c1462001f095762001f039062001e4e565b62001ed4565b505050600190565b5050505f9056fe6080604052346200034f5762000cc6803803806200001d8162000353565b92833981016060828203126200034f5781516001600160401b03908181116200034f57826200004e91850162000379565b90602092838501518281116200034f576040916200006e91870162000379565b9401519360ff85168095036200034f578251908282116200033b576004948554926001958685811c9516801562000330575b838610146200031d578190601f95868111620002ca575b50839086831160011462000266575f926200025a575b50505f19600383901b1c191690861b1786555b815193841162000247576005958654908682811c921680156200023c575b83831014620002295750838111620001e3575b50809284116001146200017c57509282939183925f9462000170575b50501b915f199060031b1c19161790555b600680546001600160a81b0319169091173360081b610100600160a81b03161790556040516108dc9081620003ea8239f35b015192505f806200012d565b919083601f198116875f52845f20945f905b88838310620001c85750505010620001af575b505050811b0190556200013e565b01515f1960f88460031b161c191690555f8080620001a1565b8587015188559096019594850194879350908101906200018e565b865f52815f2084808701891c8201928488106200021f575b01881c019086905b8281106200021357505062000111565b5f815501869062000203565b92508192620001fb565b602290634e487b7160e01b5f525260245ffd5b91607f1691620000fe565b604186634e487b7160e01b5f525260245ffd5b015190505f80620000cd565b90889350601f198316918a5f52855f20925f5b87828210620002b357505084116200029a575b505050811b018655620000e0565b01515f1960f88460031b161c191690555f80806200028c565b8385015186558c9790950194938401930162000279565b909150885f52835f208680850160051c82019286861062000313575b918a91869594930160051c01915b82811062000304575050620000b7565b5f81558594508a9101620002f4565b92508192620002e6565b602288634e487b7160e01b5f525260245ffd5b94607f1694620000a0565b634e487b7160e01b5f52604160045260245ffd5b5f80fd5b6040519190601f01601f191682016001600160401b038111838210176200033b57604052565b919080601f840112156200034f5782516001600160401b0381116200033b57602090620003af601f8201601f1916830162000353565b928184528282870101116200034f575f5b818110620003d55750825f9394955001015290565b8581018301518482018401528201620003c056fe6080604081815260049182361015610015575f80fd5b5f92833560e01c91826306fdde031461059257508163095ea7b31461056857816318160ddd1461054b57816323b872dd1461047f578163313ce5671461045d57816337b5510b1461036057816370a08231146103285781637262fb35146102985781638da5cb5b1461026b57816395d89b411461014a57508063a2309ff81461012c578063a9059cbb146100fc5763dd62ed3e146100b1575f80fd5b346100f857806003193601126100f857806020926100cd6106b3565b6100d56106cd565b6001600160a01b0391821683526003865283832091168252845220549051908152f35b5080fd5b50346100f857806003193601126100f85760209061012561011b6106b3565b6024359033610704565b5160018152f35b50346100f857816003193601126100f8576020906001549051908152f35b8383346100f857816003193601126100f85780519082600554600181811c90808316928315610261575b602093848410811461024e5783885290811561023257506001146101dc575b505050829003601f01601f191682019267ffffffffffffffff8411838510176101c957508291826101c592528261066c565b0390f35b634e487b7160e01b815260418552602490fd5b600587529192508591837f036b6384b5eca791c62761152d0c79bb0604c104a5fb6f4eb0703f3154bb3db05b83851061021e5750505050830101858080610193565b805488860183015293019284908201610208565b60ff1916878501525050151560051b8401019050858080610193565b634e487b7160e01b895260228a52602489fd5b91607f1691610174565b5050346100f857816003193601126100f857600654905160089190911c6001600160a01b03168152602090f35b5050346100f857806003193601126100f857815f8051602061088783398151915260206102c36106b3565b6024359060018060a01b03906102e18260065460081c163314610844565b6102ec8387546106e3565b86556102fa836001546106e3565b600155169485610313578185540385555b51908152a380f35b8585526002835280852082815401905561030b565b5050346100f85760203660031901126100f85760209181906001600160a01b036103506106b3565b1681526002845220549051908152f35b839150346100f857826003193601126100f85761037b6106b3565b6024359060018060a01b03906103998260065460081c163314610844565b1691826103df575060208184956103bf5f805160206108878339815191529487546106e3565b86556103cd826001546106e3565b6001555b81865403865551908152a380f35b8284526002602052848420549082821061041a57508184955f80516020610887833981519152936020938688526002855203818720556103d1565b606490602087519162461bcd60e51b8352820152601b60248201527f45524332303a20696e73756666696369656e742062616c616e636500000000006044820152fd5b5050346100f857816003193601126100f85760209060ff600654169051908152f35b839150346100f85760603660031901126100f85761049b6106b3565b6104a36106cd565b6001600160a01b038216845260036020908152858520338652905292849020546044359392600182016104df575b602086610125878787610704565b84821061050857509183916104fd60209695610125950333836107f1565b9193948193506104d1565b606490602087519162461bcd60e51b8352820152601d60248201527f45524332303a20696e73756666696369656e7420616c6c6f77616e63650000006044820152fd5b5050346100f857816003193601126100f857602091549051908152f35b5050346100f857806003193601126100f8576020906101256105886106b3565b60243590336107f1565b84908434610668578260031936011261066857828454600181811c9080831692831561065e575b602093848410811461024e57838852908115610232575060011461060957505050829003601f01601f191682019267ffffffffffffffff8411838510176101c957508291826101c592528261066c565b8787529192508591837f8a35acfbc15ff81a39ae7d344fd709f28e8600b4aa8c65c6b64bfe7fe36bd19b5b83851061064a5750505050830101858080610193565b805488860183015293019284908201610634565b91607f16916105b9565b8280fd5b602080825282518183018190529093925f5b82811061069f57505060409293505f838284010152601f8019910116010190565b81810186015184820160400152850161067e565b600435906001600160a01b03821682036106c957565b5f80fd5b602435906001600160a01b03821682036106c957565b919082018092116106f057565b634e487b7160e01b5f52601160045260245ffd5b6001600160a01b03908116919082610772576020905f8051602061088783398151915292610733865f546106e3565b5f55610741866001546106e3565b6001555b16938461075c57805f54035f555b604051908152a3565b845f526002825260405f20818154019055610753565b825f52600260205260405f2054908482106107ac575f805160206108878339815191529285602093865f52600285520360405f2055610745565b60405162461bcd60e51b815260206004820152601b60248201527f45524332303a20696e73756666696369656e742062616c616e636500000000006044820152606490fd5b909160207f8c5be1e5ebec7d5bd14f71427d1e84f3dd0314c0f7b2291e5b200ac8c7c3b9259160018060a01b0380941693845f526003835260405f20951694855f5282528060405f2055604051908152a3565b1561084b57565b60405162461bcd60e51b815260206004820152601360248201527213db9b1e481bdddb995c8818d85b881b5a5b9d606a1b6044820152606490fdfeddf252ad1be2c89b69c2b068fc378daa952ba7f163c4a11628f55a4df523b3efa2646970667358221220514917cf0af935dba190c6de17824c83e6dec5267a53279013ff12bc4e3460ec64736f6c63430008140033a26469706673582212205278afcc6ebda6400d7ab4dbcff2379d2b5c805b97b948c4fce00a04caa5327764736f6c63430008140033","linkReferences":{}},"methodIdentifiers":{"buyNo(uint256,uint256)":"a9f6b058","buyYes(uint256,uint256)":"399af502","controller()":"f77c4791","createBet(string,uint256,uint256)":"9ec57d55","creatorNFT()":"4f6d3f23","creatorNFTAddress()":"e72018d5","getBetStruct(uint256)":"14fe6c9d","getEnumValue(uint256)":"b56202c8","idToBet(uint256)":"4539588e","idToFactorySettings(uint256)":"4f0cbfa8","isPaused()":"b187bd26","playerToBets(address,uint256)":"ad4478c2","setController(address)":"92eefe9b","setPause(bool)":"bedb86fb","totalBets()":"befa1e2f","usdc()":"3e413bee","usdcAddress()":"02d45457"},"id":7}