{"abi":[{"type":"constructor","inputs":[{"name":"name_","type":"string","internalType":"string"},{"name":"symbol_","type":"string","internalType":"string"}],"stateMutability":"nonpayable"},{"type":"function","name":"approve","inputs":[{"name":"to","type":"address","internalType":"address"},{"name":"tokenId","type":"uint256","internalType":"uint256"}],"outputs":[],"stateMutability":"nonpayable"},{"type":"function","name":"baseURI","inputs":[],"outputs":[{"name":"","type":"string","internalType":"string"}],"stateMutability":"view"},{"type":"function","name":"creatorToId","inputs":[{"name":"","type":"address","internalType":"address"}],"outputs":[{"name":"","type":"uint256","internalType":"uint256"}],"stateMutability":"view"},{"type":"function","name":"getApproved","inputs":[{"name":"tokenId","type":"uint256","internalType":"uint256"}],"outputs":[{"name":"operator","type":"address","internalType":"address"}],"stateMutability":"view"},{"type":"function","name":"idToCreator","inputs":[{"name":"","type":"uint256","internalType":"uint256"}],"outputs":[{"name":"","type":"address","internalType":"address"}],"stateMutability":"view"},{"type":"function","name":"name","inputs":[],"outputs":[{"name":"","type":"string","internalType":"string"}],"stateMutability":"view"},{"type":"function","name":"safeTransferFrom","inputs":[{"name":"from","type":"address","internalType":"address"},{"name":"to","type":"address","internalType":"address"},{"name":"tokenId","type":"uint256","internalType":"uint256"}],"outputs":[],"stateMutability":"nonpayable"},{"type":"function","name":"safeTransferFrom","inputs":[{"name":"from","type":"address","internalType":"address"},{"name":"to","type":"address","internalType":"address"},{"name":"tokenId","type":"uint256","internalType":"uint256"},{"name":"data","type":"bytes","internalType":"bytes"}],"outputs":[],"stateMutability":"nonpayable"},{"type":"function","name":"setBaseURI","inputs":[{"name":"baseURI_","type":"string","internalType":"string"}],"outputs":[],"stateMutability":"nonpayable"},{"type":"function","name":"supportsInterface","inputs":[{"name":"interfaceId","type":"bytes4","internalType":"bytes4"}],"outputs":[{"name":"result","type":"bool","internalType":"bool"}],"stateMutability":"view"},{"type":"function","name":"symbol","inputs":[],"outputs":[{"name":"","type":"string","internalType":"string"}],"stateMutability":"view"},{"type":"function","name":"tokenApprovals","inputs":[{"name":"","type":"uint256","internalType":"uint256"}],"outputs":[{"name":"","type":"address","internalType":"address"}],"stateMutability":"view"},{"type":"function","name":"tokenURI","inputs":[{"name":"tokenId","type":"uint256","internalType":"uint256"}],"outputs":[{"name":"","type":"string","internalType":"string"}],"stateMutability":"view"},{"type":"function","name":"totalMinted","inputs":[],"outputs":[{"name":"","type":"uint256","internalType":"uint256"}],"stateMutability":"view"},{"type":"function","name":"totalSupply","inputs":[],"outputs":[{"name":"","type":"uint256","internalType":"uint256"}],"stateMutability":"view"},{"type":"function","name":"transferFrom","inputs":[{"name":"from","type":"address","internalType":"address"},{"name":"to","type":"address","internalType":"address"},{"name":"tokenId","type":"uint256","internalType":"uint256"}],"outputs":[],"stateMutability":"nonpayable"},{"type":"event","name":"Approval","inputs":[{"name":"owner","type":"address","indexed":true,"internalType":"address"},{"name":"approved","type":"address","indexed":true,"internalType":"address"},{"name":"tokenId","type":"uint256","indexed":true,"internalType":"uint256"}],"anonymous":false},{"type":"event","name":"Transfer","inputs":[{"name":"from","type":"address","indexed":true,"internalType":"address"},{"name":"to","type":"address","indexed":true,"internalType":"address"},{"name":"tokenId","type":"uint256","indexed":true,"internalType":"uint256"}],"anonymous":false}],"bytecode":{"object":"0x6080604052346200031257620014a5803803806200001d8162000316565b928339810190604081830312620003125780516001600160401b03908181116200031257836200004f9184016200033c565b916020938482015183811162000312576200006b92016200033c565b825190828211620002fe575f8054926001958685811c95168015620002f3575b88861014620002df578190601f958681116200028c575b508890868311600114620002295784926200021d575b50505f19600383901b1c191690861b1781555b8151938411620002095784548581811c91168015620001fe575b87821014620001ea57838111620001a2575b50859284116001146200013e57839495509262000132575b50505f19600383901b1c191690821b1790555b6040516110f89081620003ad8239f35b015190505f806200010f565b9190601f1984169585845280842093905b8782106200018a5750508385961062000171575b505050811b01905562000122565b01515f1960f88460031b161c191690555f808062000163565b8087859682949686015181550195019301906200014f565b8582528682208480870160051c820192898810620001e0575b0160051c019086905b828110620001d4575050620000f7565b838155018690620001c4565b92508192620001bb565b634e487b7160e01b82526022600452602482fd5b90607f1690620000e5565b634e487b7160e01b81526041600452602490fd5b015190505f80620000b8565b8480528985208994509190601f198416865b8c8282106200027557505084116200025c575b505050811b018155620000cb565b01515f1960f88460031b161c191690555f80806200024e565b8385015186558c979095019493840193016200023b565b9091508380528884208680850160051c8201928b8610620002d5575b918a91869594930160051c01915b828110620002c6575050620000a2565b8681558594508a9101620002b6565b92508192620002a8565b634e487b7160e01b83526022600452602483fd5b94607f16946200008b565b634e487b7160e01b5f52604160045260245ffd5b5f80fd5b6040519190601f01601f191682016001600160401b03811183821017620002fe57604052565b919080601f84011215620003125782516001600160401b038111620002fe5760209062000372601f8201601f1916830162000316565b9281845282828701011162000312575f5b818110620003985750825f9394955001015290565b85810183015184820184015282016200038356fe60806040526004361015610011575f80fd5b5f3560e01c806301ffc9a71461011457806306fdde031461010f578063081812fc1461010a578063095ea7b31461010557806318160ddd1461010057806323b872dd146100fb5780632bf22cd2146100f657806339a07756146100f157806342842e0e146100ec57806355f804b3146100e75780636c0360eb146100e257806395d89b41146100dd578063a2309ff8146100d8578063acdeb5b9146100d3578063b88d4fde146100ce5763c87b56dd146100c9575f80fd5b610888565b61081d565b6107eb565b6107ce565b61072a565b610697565b61058b565b610512565b6104e0565b6104a8565b61048f565b61043d565b610369565b610323565b610241565b34610161576020366003190112610161576004356001600160e01b0319811681036101615760209060e01c60405190635b5e139f8114906301ffc9a76380ac58cd82149114171715158152f35b5f80fd5b90600182811c92168015610193575b602083101461017f57565b634e487b7160e01b5f52602260045260245ffd5b91607f1691610174565b634e487b7160e01b5f52604160045260245ffd5b6020810190811067ffffffffffffffff8211176101cd57604052565b61019d565b90601f8019910116810190811067ffffffffffffffff8211176101cd57604052565b5f5b8381106102055750505f910152565b81810151838201526020016101f6565b6040916020825261023581518092816020860152602086860191016101f4565b601f01601f1916010190565b34610161575f80600319360112610320576040519080805461026281610165565b808552916001918083169081156102f6575060011461029c575b6102988561028c818703826101d2565b60405191829182610215565b0390f35b80809450527f290decd9548b62a8d60345a988386fc84ba6bc95484008f6362f93160ef3e5635b8284106102de57505050810160200161028c8261029861027c565b805460208587018101919091529093019281016102c3565b8695506102989693506020925061028c94915060ff191682840152151560051b820101929361027c565b80fd5b34610161576020366003190112610161576020610341600435610bda565b6040516001600160a01b039091168152f35b600435906001600160a01b038216820361016157565b3461016157604036600319011261016157610382610353565b6024355f818152600560205260408120549092906001600160a01b0390811633036104025782845260066020526040842080546001600160a01b0319166001600160a01b0384161790556005602052806040852054169116907f8c5be1e5ebec7d5bd14f71427d1e84f3dd0314c0f7b2291e5b200ac8c7c3b9258480a480f35b60405162461bcd60e51b815260206004820152601360248201527221b0b63632b91034b9903737ba1037bbb732b960691b6044820152606490fd5b34610161575f366003190112610161576020600254604051908152f35b6060906003190112610161576001600160a01b0390600435828116810361016157916024359081168103610161579060443590565b34610161576104a66104a03661045a565b91610c99565b005b34610161576020366003190112610161576001600160a01b036104c9610353565b165f526004602052602060405f2054604051908152f35b34610161576020366003190112610161576004355f526005602052602060018060a01b0360405f205416604051908152f35b34610161576104a66105233661045a565b9060405192610531846101b1565b5f8452610d66565b67ffffffffffffffff81116101cd57601f01601f191660200190565b92919261056182610539565b9161056f60405193846101d2565b829481845281830111610161578281602093845f960137010152565b34610161576020806003193601126101615767ffffffffffffffff6004358181116101615736602382011215610161576105cf903690602481600401359101610555565b9182519182116101cd576105ed826105e8600754610165565b610b7d565b80601f8311600114610626575081925f9261061b575b50505f19600383901b1c191660019190911b17600755005b015190505f80610603565b90601f1983169361064560075f525f805160206110a383398151915290565b925f905b86821061067f5750508360019510610667575b505050811b01600755005b01515f1960f88460031b161c191690555f808061065c565b80600185968294968601518155019501930190610649565b34610161575f806003193601126103205760405190806007546106b981610165565b808552916001918083169081156102f657506001146106e2576102988561028c818703826101d2565b9250600783525f805160206110a38339815191525b82841061071257505050810160200161028c8261029861027c565b805460208587018101919091529093019281016106f7565b34610161575f80600319360112610320576040519080600180549161074e83610165565b808652928281169081156102f65750600114610774576102988561028c818703826101d2565b92508083527fb10e2d527612073b26eecdfd717e6a320cf44b4afac2b0732d9fcbe2b7fa0cf65b8284106107b657505050810160200161028c8261029861027c565b8054602085870181019190915290930192810161079b565b34610161575f366003190112610161576020600354604051908152f35b34610161576020366003190112610161576004355f526006602052602060018060a01b0360405f205416604051908152f35b3461016157608036600319011261016157610836610353565b6024356001600160a01b0381168103610161576064359167ffffffffffffffff831161016157366023840112156101615761087e6104a6933690602481600401359101610555565b9160443591610d66565b34610161576020366003190112610161576004355f818152600560205260408120549091906108c1906001600160a01b03161515610a2c565b6108cc600754610165565b15610a145780827a184f03e93ff9f4daa797ed6e38ed64bf6a1f0100000000000000008281811015610a06575b50506d04ee2d6d415b85acef8100000000808410156109f9575b50662386f26fc10000808410156109ec575b506305f5e100808410156109df575b50612710808410156109d2575b5060648310156109c4575b600a809310156109bc575b906021916001928161096b85809401610b4b565b9650860101905b610987575b5050505061028c61029891610a8f565b5f19019083906f181899199a1a9b1b9c1cb0b131b232b360811b8282061a8353049182156109b757919082610972565b610977565b600101610957565b91606460029104920161094c565b600491930492015f610941565b600891930492015f610934565b601091930492015f610925565b602091930492015f610913565b049250604090505f806108f9565b5060405161029891610a25826101b1565b815261028c565b15610a3357565b60405162461bcd60e51b815260206004820152601c60248201527f546f6b656e206973206e6f74206f776e656420627920616e796f6e65000000006044820152606490fd5b90610a8b602092828151948592016101f4565b0190565b9060405191825f600754610aa281610165565b90600190818116908115610b235750600114610ad8575b5050610ac890610ad693610a78565b03601f1981018452836101d2565b565b60075f9081529192505f805160206110a38339815191525b838310610b0857505050810160200182610ac8610ab9565b80546020848a01810191909152889550909201918101610af0565b610ac8945060209250610ad69693915060ff1916828601528015150284010191819450610ab9565b90610b5582610539565b610b6260405191826101d2565b8281528092610b73601f1991610539565b0190602036910137565b601f8111610b89575050565b5f90600782525f805160206110a3833981519152906020601f850160051c83019410610bd0575b601f0160051c01915b828110610bc557505050565b818155600101610bb9565b9092508290610bb0565b5f818152600560205260409020546001600160a01b039190610bff9083161515610a2c565b5f52600660205260405f20541690565b15610c1657565b606460405162461bcd60e51b815260206004820152602060248201527f43616c6c6572206973206e6f74206f776e6572206e6f7220617070726f7665646044820152fd5b15610c6157565b60405162461bcd60e51b815260206004820152601060248201526f24b73b30b634b2103932b1b2b4bb32b960811b6044820152606490fd5b5f838152600560205260409020546001600160a01b0393929190841615610d2a57610d0084610ce5610ad696610cd7875f52600560205260405f2090565b54166001600160a01b031690565b33148015610d05575b610cf790610c0f565b83161515610c5a565b610e03565b50610cf733610d22610d1688610bda565b6001600160a01b031690565b149050610cee565b60405162461bcd60e51b8152602060048201526014602482015273151bdad95b88191bd95cc81b9bdd08195e1a5cdd60621b6044820152606490fd5b9060a460209394610d78868486610c99565b60405195869463150b7a028652338787015260018060a01b03166040860152606085015260808085015280518091818060a0880152610def575b505001905f601c8401915af115610de1575b5163757a42ff60e11b01610dd457565b63d1a57ed65f526004601cfd5b3d15610dc4573d5f823e3d90fd5b818760c08801920160045afa50805f610db2565b5f838152600560205260409020546001600160a01b039190821690821603610f7757610ee5610e4a610e3d855f52600560205260405f2090565b546001600160a01b031690565b828116929083610f4a57506001600160a01b0384165f908152600460205260409020610e78905b5415610fce565b610e8b610e8660025461102e565b600255565b610e9e610e9960035461102e565b600355565b83169283610f0b57610eb4610e86600254611041565b610ec6855f52600560205260405f2090565b80546001600160a01b0319166001600160a01b03909216919091179055565b7fddf252ad1be2c89b69c2b068fc378daa952ba7f163c4a11628f55a4df523b3ef5f80a4565b6001600160a01b0381165f908152600460205260409020610f2b90610e71565b6001600160a01b0381165f908152600460205260409020859055610eb4565b610f715f91610f588861104d565b6001600160a01b03165f90815260046020526040902090565b55610e9e565b60405162461bcd60e51b815260206004820152602960248201527f4552433732313a207472616e73666572206f6620746f6b656e2074686174206960448201526839903737ba1037bbb760b91b6064820152608490fd5b15610fd557565b60405162461bcd60e51b815260206004820152601b60248201527f4163636f756e7420616c726561647920686173206120746f6b656e00000000006044820152606490fd5b634e487b7160e01b5f52601160045260245ffd5b5f19811461103c5760010190565b61101a565b801561103c575f190190565b5f81815260066020908152604080832080546001600160a01b031916905560059091528120546001600160a01b03167f8c5be1e5ebec7d5bd14f71427d1e84f3dd0314c0f7b2291e5b200ac8c7c3b9258280a456fea66cc928b5edb82af9bd49922954155ab7b0942694bea4ce44661d9a8736c688a264697066735822122040dd5b512ae9f67bf1d2dda91faa6419a81af379f8253b24401954b8fec2e9ae64736f6c63430008140033","linkReferences":{}},"methodIdentifiers":{"approve(address,uint256)":"095ea7b3","baseURI()":"6c0360eb","creatorToId(address)":"2bf22cd2","getApproved(uint256)":"081812fc","idToCreator(uint256)":"39a07756","name()":"06fdde03","safeTransferFrom(address,address,uint256)":"42842e0e","safeTransferFrom(address,address,uint256,bytes)":"b88d4fde","setBaseURI(string)":"55f804b3","supportsInterface(bytes4)":"01ffc9a7","symbol()":"95d89b41","tokenApprovals(uint256)":"acdeb5b9","tokenURI(uint256)":"c87b56dd","totalMinted()":"a2309ff8","totalSupply()":"18160ddd","transferFrom(address,address,uint256)":"23b872dd"},"id":5}