{"abi":[{"type":"function","name":"approve","inputs":[{"name":"spender","type":"address","internalType":"address"},{"name":"id","type":"uint256","internalType":"uint256"}],"outputs":[],"stateMutability":"payable"},{"type":"function","name":"balanceOf","inputs":[{"name":"owner","type":"address","internalType":"address"}],"outputs":[{"name":"","type":"uint256","internalType":"uint256"}],"stateMutability":"view"},{"type":"function","name":"getApproved","inputs":[{"name":"id","type":"uint256","internalType":"uint256"}],"outputs":[{"name":"","type":"address","internalType":"address"}],"stateMutability":"view"},{"type":"function","name":"initialize","inputs":[{"name":"name_","type":"string","internalType":"string"},{"name":"symbol_","type":"string","internalType":"string"}],"outputs":[],"stateMutability":"nonpayable"},{"type":"function","name":"isApprovedForAll","inputs":[{"name":"owner","type":"address","internalType":"address"},{"name":"operator","type":"address","internalType":"address"}],"outputs":[{"name":"","type":"bool","internalType":"bool"}],"stateMutability":"view"},{"type":"function","name":"name","inputs":[],"outputs":[{"name":"","type":"string","internalType":"string"}],"stateMutability":"view"},{"type":"function","name":"ownerOf","inputs":[{"name":"id","type":"uint256","internalType":"uint256"}],"outputs":[{"name":"owner","type":"address","internalType":"address"}],"stateMutability":"view"},{"type":"function","name":"safeTransferFrom","inputs":[{"name":"from","type":"address","internalType":"address"},{"name":"to","type":"address","internalType":"address"},{"name":"id","type":"uint256","internalType":"uint256"}],"outputs":[],"stateMutability":"payable"},{"type":"function","name":"safeTransferFrom","inputs":[{"name":"from","type":"address","internalType":"address"},{"name":"to","type":"address","internalType":"address"},{"name":"id","type":"uint256","internalType":"uint256"},{"name":"data","type":"bytes","internalType":"bytes"}],"outputs":[],"stateMutability":"payable"},{"type":"function","name":"setApprovalForAll","inputs":[{"name":"operator","type":"address","internalType":"address"},{"name":"approved","type":"bool","internalType":"bool"}],"outputs":[],"stateMutability":"nonpayable"},{"type":"function","name":"supportsInterface","inputs":[{"name":"interfaceId","type":"bytes4","internalType":"bytes4"}],"outputs":[{"name":"","type":"bool","internalType":"bool"}],"stateMutability":"view"},{"type":"function","name":"symbol","inputs":[],"outputs":[{"name":"","type":"string","internalType":"string"}],"stateMutability":"view"},{"type":"function","name":"tokenURI","inputs":[{"name":"id","type":"uint256","internalType":"uint256"}],"outputs":[{"name":"","type":"string","internalType":"string"}],"stateMutability":"view"},{"type":"function","name":"transferFrom","inputs":[{"name":"from","type":"address","internalType":"address"},{"name":"to","type":"address","internalType":"address"},{"name":"id","type":"uint256","internalType":"uint256"}],"outputs":[],"stateMutability":"payable"},{"type":"event","name":"Approval","inputs":[{"name":"_owner","type":"address","indexed":true,"internalType":"address"},{"name":"_approved","type":"address","indexed":true,"internalType":"address"},{"name":"_tokenId","type":"uint256","indexed":true,"internalType":"uint256"}],"anonymous":false},{"type":"event","name":"ApprovalForAll","inputs":[{"name":"_owner","type":"address","indexed":true,"internalType":"address"},{"name":"_operator","type":"address","indexed":true,"internalType":"address"},{"name":"_approved","type":"bool","indexed":false,"internalType":"bool"}],"anonymous":false},{"type":"event","name":"Transfer","inputs":[{"name":"_from","type":"address","indexed":true,"internalType":"address"},{"name":"_to","type":"address","indexed":true,"internalType":"address"},{"name":"_tokenId","type":"uint256","indexed":true,"internalType":"uint256"}],"anonymous":false}],"bytecode":{"object":"0x6080806040523461001657610ead908161001b8239f35b5f80fdfe6080604081815260049182361015610015575f80fd5b5f92833560e01c91826301ffc9a714610a7b5750816306fdde03146109cc578163081812fc1461099a578163095ea7b3146108ea57816323b872dd146108d757816342842e0e1461081d5781634cd88b76146104e65781636352211e1461047b57816370a082311461040857816395d89b411461031a578163a22cb46514610295578163b88d4fde1461016957508063c87b56dd1461010c5763e985e9c5146100bc575f80fd5b3461010857806003193601126101085760ff816020936100da610b24565b6100e2610b3e565b6001600160a01b0391821683526005875283832091168252855220549151911615158152f35b5080fd5b50346101085760208060031936011261016557918151928391818352606051918281850152815b838110610150575050828201840152601f01601f19168101030190f35b60808101518782018701528694508101610133565b8280fd5b905060803660031901126101655761017f610b24565b90610188610b3e565b60443560643567ffffffffffffffff81116102915736602382011215610291576101bb9036906024818701359101610bbf565b916101c7828287610c98565b803b159485156101df575b876101dc87610e38565b80f35b6020939495508760018060a01b0380926102288a5198899788968794630a85bd0160e11b9d8e875233908701521660248501526044840152608060648401526084830190610ae6565b0393165af1908115610284576101dc93508491610256575b506001600160e01b031916145f808080806101d2565b610277915060203d811161027d575b61026f8183610b89565b810190610e18565b5f610240565b503d610265565b50505051903d90823e3d90fd5b8680fd5b5050346101085780600319360112610108576102af610b24565b90602435908115158092036103165733845260056020528084209260018060a01b03169283855260205280842060ff1981541660ff8416179055519081527f17307eab39ab6107e8899845ad3d59bd9653f200f220920489ca2b5937696c3160203392a380f35b8380fd5b828434610405578060031936011261040557815191828260019384549461034086610c23565b918285526020968783821691825f146103de575050600114610383575b50505061037f9291610370910385610b89565b51928284938452830190610ae6565b0390f35b91908693508083527fb10e2d527612073b26eecdfd717e6a320cf44b4afac2b0732d9fcbe2b7fa0cf65b8284106103c6575050508201018161037061037f61035d565b8054848a0186015288955087949093019281016103ad565b60ff19168782015293151560051b86019093019350849250610370915061037f905061035d565b80fd5b83915034610108576020366003190112610108576001600160a01b0361042c610b24565b169081156104495760208480858581526003845220549051908152f35b606490602085519162461bcd60e51b8352820152600c60248201526b5a45524f5f4144445245535360a01b6044820152fd5b9050823461040557602036600319011261040557813581526002602052829020546001600160a01b03169081156104b6575060209151908152f35b606490602084519162461bcd60e51b8352820152600a6024820152691393d517d3525395115160b21b6044820152fd5b8391503461010857826003193601126101085767ffffffffffffffff8135818111610316576105189036908401610c05565b91602435828111610819576105309036908301610c05565b9460ff600654166107e0575082518281116107cd57806105508654610c23565b94601f95868111610762575b506020908683116001146106e25787926106d7575b50508160011b915f199060031b1c19161784555b84519182116106c4575060019161059c8354610c23565b818111610662575b5060209082116001146105e8578394829394926105dd575b50505f19600383901b1c191690821b1781555b60ff19600654161760065580f35b0151905084806105bc565b8284527fb10e2d527612073b26eecdfd717e6a320cf44b4afac2b0732d9fcbe2b7fa0cf690601f198316855b81811061064c5750958385969710610634575b505050811b0181556105cf565b01515f1960f88460031b161c19169055848080610627565b8783015184559285019260209283019201610614565b8385527fb10e2d527612073b26eecdfd717e6a320cf44b4afac2b0732d9fcbe2b7fa0cf68280850160051c820192602086106106bb575b0160051c019084905b8281106106b05750506105a4565b8681550184906106a2565b92508192610699565b634e487b7160e01b845260419052602483fd5b015190508780610571565b8780527f290decd9548b62a8d60345a988386fc84ba6bc95484008f6362f93160ef3e5639250601f198416885b81811061074a5750908460019594939210610732575b505050811b018455610585565b01515f1960f88460031b161c19169055878080610725565b9293602060018192878601518155019501930161070f565b9091508680527f290decd9548b62a8d60345a988386fc84ba6bc95484008f6362f93160ef3e5638680850160051c820192602086106107c4575b9085949392910160051c01905b8181106107b6575061055c565b8881558493506001016107a9565b9250819261079c565b634e487b7160e01b855260418252602485fd5b906020606492519162461bcd60e51b835282015260136024820152721053149150511657d253925512505312569151606a1b6044820152fd5b8480fd5b905061082836610b54565b906108368282859695610c98565b803b1593841561084b575b866101dc86610e38565b60209293945060a4908760018060a01b03809489519788968795630a85bd0160e11b9b8c88523390880152166024860152604485015260806064850152826084850152165af1908115610284576101dc935084916108b9575b506001600160e01b031916145f808080610841565b6108d1915060203d811161027d5761026f8183610b89565b5f6108a4565b836101dc6108e436610b54565b91610c98565b905081600319360112610165576108ff610b24565b602435808552600260205283852054909391926001600160a01b039182169290338414801561097b575b61093290610c5b565b8587526020528520921691826bffffffffffffffffffffffff60a01b8254161790557f8c5be1e5ebec7d5bd14f71427d1e84f3dd0314c0f7b2291e5b200ac8c7c3b9258480a480f35b508387526005602090815282882033895290528187205460ff16610929565b90503461016557602036600319011261016557803583526020908152918190205490516001600160a01b039091168152f35b828434610405578060031936011261040557815191828283546109ee81610c23565b908184526020956001918783821691825f146103de575050600114610a205750505061037f9291610370910385610b89565b91908693508280527f290decd9548b62a8d60345a988386fc84ba6bc95484008f6362f93160ef3e5635b828410610a63575050508201018161037061037f61035d565b8054848a018601528895508794909301928101610a4a565b849134610165576020366003190112610165573563ffffffff60e01b811680910361016557602092506301ffc9a760e01b8114908115610ad5575b8115610ac4575b5015158152f35b635b5e139f60e01b14905083610abd565b6380ac58cd60e01b81149150610ab6565b91908251928382525f5b848110610b10575050825f602080949584010152601f8019910116010190565b602081830181015184830182015201610af0565b600435906001600160a01b0382168203610b3a57565b5f80fd5b602435906001600160a01b0382168203610b3a57565b6060906003190112610b3a576001600160a01b03906004358281168103610b3a57916024359081168103610b3a579060443590565b90601f8019910116810190811067ffffffffffffffff821117610bab57604052565b634e487b7160e01b5f52604160045260245ffd5b92919267ffffffffffffffff8211610bab5760405191610be9601f8201601f191660200184610b89565b829481845281830111610b3a578281602093845f960137010152565b9080601f83011215610b3a57816020610c2093359101610bbf565b90565b90600182811c92168015610c51575b6020831014610c3d57565b634e487b7160e01b5f52602260045260245ffd5b91607f1691610c32565b15610c6257565b60405162461bcd60e51b815260206004820152600e60248201526d1393d517d055551213d49256915160921b6044820152606490fd5b5f838152600260209081526040808320546001600160a01b0395948616949086168503610de7578516948515610daf57610ce490853314908115610d92575b8115610d7c575b50610c5b565b838352600382528083208054908115610d68575f19918201905585845260038352818420805490918114610d685760010190558583526002825280832080546001600160a01b0319908116871790915560049092528220805490911690557fddf252ad1be2c89b69c2b068fc378daa952ba7f163c4a11628f55a4df523b3ef9080a4565b634e487b7160e01b85526011600452602485fd5b905087855260048452828520541633145f610cde565b8686526005855283862033875285528386205460ff169150610cd7565b815162461bcd60e51b81526004810184905260116024820152701253959053125117d49150d25412515395607a1b6044820152606490fd5b815162461bcd60e51b815260048101849052600a60248201526957524f4e475f46524f4d60b01b6044820152606490fd5b90816020910312610b3a57516001600160e01b031981168103610b3a5790565b15610e3f57565b60405162461bcd60e51b815260206004820152601060248201526f155394d0519157d49150d2541251539560821b6044820152606490fdfea2646970667358221220519a95b1161ad7d10f93d86f4cc770dfedd96419b0ec950363d6fe9e93d865fc64736f6c63430008150033","linkReferences":{}},"methodIdentifiers":{"approve(address,uint256)":"095ea7b3","balanceOf(address)":"70a08231","getApproved(uint256)":"081812fc","initialize(string,string)":"4cd88b76","isApprovedForAll(address,address)":"e985e9c5","name()":"06fdde03","ownerOf(uint256)":"6352211e","safeTransferFrom(address,address,uint256)":"42842e0e","safeTransferFrom(address,address,uint256,bytes)":"b88d4fde","setApprovalForAll(address,bool)":"a22cb465","supportsInterface(bytes4)":"01ffc9a7","symbol()":"95d89b41","tokenURI(uint256)":"c87b56dd","transferFrom(address,address,uint256)":"23b872dd"},"id":21}