{"abi":[{"type":"constructor","inputs":[{"name":"name_","type":"string","internalType":"string"},{"name":"symbol_","type":"string","internalType":"string"},{"name":"decimals_","type":"uint8","internalType":"uint8"}],"stateMutability":"nonpayable"},{"type":"function","name":"allowance","inputs":[{"name":"","type":"address","internalType":"address"},{"name":"","type":"address","internalType":"address"}],"outputs":[{"name":"","type":"uint256","internalType":"uint256"}],"stateMutability":"view"},{"type":"function","name":"approve","inputs":[{"name":"spender","type":"address","internalType":"address"},{"name":"value","type":"uint256","internalType":"uint256"}],"outputs":[{"name":"","type":"bool","internalType":"bool"}],"stateMutability":"nonpayable"},{"type":"function","name":"balanceOf","inputs":[{"name":"","type":"address","internalType":"address"}],"outputs":[{"name":"","type":"uint256","internalType":"uint256"}],"stateMutability":"view"},{"type":"function","name":"decimals","inputs":[],"outputs":[{"name":"","type":"uint8","internalType":"uint8"}],"stateMutability":"view"},{"type":"function","name":"name","inputs":[],"outputs":[{"name":"","type":"string","internalType":"string"}],"stateMutability":"view"},{"type":"function","name":"symbol","inputs":[],"outputs":[{"name":"","type":"string","internalType":"string"}],"stateMutability":"view"},{"type":"function","name":"totalMinted","inputs":[],"outputs":[{"name":"","type":"uint256","internalType":"uint256"}],"stateMutability":"view"},{"type":"function","name":"totalSupply","inputs":[],"outputs":[{"name":"","type":"uint256","internalType":"uint256"}],"stateMutability":"view"},{"type":"function","name":"transfer","inputs":[{"name":"to","type":"address","internalType":"address"},{"name":"value","type":"uint256","internalType":"uint256"}],"outputs":[{"name":"","type":"bool","internalType":"bool"}],"stateMutability":"nonpayable"},{"type":"function","name":"transferFrom","inputs":[{"name":"from","type":"address","internalType":"address"},{"name":"to","type":"address","internalType":"address"},{"name":"value","type":"uint256","internalType":"uint256"}],"outputs":[{"name":"","type":"bool","internalType":"bool"}],"stateMutability":"nonpayable"},{"type":"event","name":"Approval","inputs":[{"name":"owner","type":"address","indexed":true,"internalType":"address"},{"name":"spender","type":"address","indexed":true,"internalType":"address"},{"name":"value","type":"uint256","indexed":false,"internalType":"uint256"}],"anonymous":false},{"type":"event","name":"Transfer","inputs":[{"name":"from","type":"address","indexed":true,"internalType":"address"},{"name":"to","type":"address","indexed":true,"internalType":"address"},{"name":"value","type":"uint256","indexed":false,"internalType":"uint256"}],"anonymous":false}],"bytecode":{"object":"0x608060405234620003385762000b6d803803806200001d816200033c565b9283398101606082820312620003385781516001600160401b03908181116200033857826200004e91850162000362565b906020928385015182811162000338576040916200006e91870162000362565b9401519360ff8516809503620003385782519082821162000324576004948554926001958685811c9516801562000319575b8386101462000306578190601f95868111620002b3575b5083908683116001146200024f575f9262000243575b50505f19600383901b1c191690861b1786555b815193841162000230576005958654908682811c9216801562000225575b83831014620002125750838111620001cc575b50809284116001146200016557509282939183925f9462000159575b50501b915f199060031b1c19161790555b60ff19600654161760065560405161079a9081620003d38239f35b015192505f806200012d565b919083601f198116875f52845f20945f905b88838310620001b1575050501062000198575b505050811b0190556200013e565b01515f1960f88460031b161c191690555f80806200018a565b85870151885590960195948501948793509081019062000177565b865f52815f2084808701891c82019284881062000208575b01881c019086905b828110620001fc57505062000111565b5f8155018690620001ec565b92508192620001e4565b602290634e487b7160e01b5f525260245ffd5b91607f1691620000fe565b604186634e487b7160e01b5f525260245ffd5b015190505f80620000cd565b90889350601f198316918a5f52855f20925f5b878282106200029c575050841162000283575b505050811b018655620000e0565b01515f1960f88460031b161c191690555f808062000275565b8385015186558c9790950194938401930162000262565b909150885f52835f208680850160051c820192868610620002fc575b918a91869594930160051c01915b828110620002ed575050620000b7565b5f81558594508a9101620002dd565b92508192620002cf565b602288634e487b7160e01b5f525260245ffd5b94607f1694620000a0565b634e487b7160e01b5f52604160045260245ffd5b5f80fd5b6040519190601f01601f191682016001600160401b038111838210176200032457604052565b919080601f84011215620003385782516001600160401b038111620003245760209062000398601f8201601f191683016200033c565b9281845282828701011162000338575f5b818110620003be5750825f9394955001015290565b8581018301518482018401528201620003a956fe6080604081815260049182361015610015575f80fd5b5f92833560e01c91826306fdde031461059f57508163095ea7b31461056e57816318160ddd1461055157816323b872dd14610386578163313ce5671461036457816370a082311461032c57816395d89b411461020b578163a2309ff8146101ec578163a9059cbb146100db575063dd62ed3e14610090575f80fd5b346100d757806003193601126100d757806020926100ac6106c0565b6100b46106da565b6001600160a01b0391821683526003865283832091168252845220549051908152f35b5080fd5b8284346101e957816003193601126101e9576100f56106c0565b602435903361017c576020945061010d8284546106f0565b835561011b826001546106f0565b6001555b6001600160a01b031691838361016857508181540390555b82519081527fddf252ad1be2c89b69c2b068fc378daa952ba7f163c4a11628f55a4df523b3ef843392a35160018152f35b908381526002865220818154019055610137565b3383526002602052838320548281106101a65760209550829033855260028752038484205561011f565b845162461bcd60e51b8152602081880152601b60248201527f45524332303a20696e73756666696369656e742062616c616e636500000000006044820152606490fd5b80fd5b5050346100d757816003193601126100d7576020906001549051908152f35b8383346100d757816003193601126100d75780519082600554600181811c90808316928315610322575b602093848410811461030f578388529081156102f3575060011461029d575b505050829003601f01601f191682019267ffffffffffffffff84118385101761028a5750829182610286925282610679565b0390f35b634e487b7160e01b815260418552602490fd5b600587529192508591837f036b6384b5eca791c62761152d0c79bb0604c104a5fb6f4eb0703f3154bb3db05b8385106102df5750505050830101858080610254565b8054888601830152930192849082016102c9565b60ff1916878501525050151560051b8401019050858080610254565b634e487b7160e01b895260228a52602489fd5b91607f1691610235565b5050346100d75760203660031901126100d75760209181906001600160a01b036103546106c0565b1681526002845220549051908152f35b5050346100d757816003193601126100d75760209060ff600654169051908152f35b8284346101e95760603660031901126101e9576103a16106c0565b6103a96106da565b936044359160018060a01b0392838216938486526020978893600385528888203389528552888820545f1981036104e7575b505085610453577fddf252ad1be2c89b69c2b068fc378daa952ba7f163c4a11628f55a4df523b3ef94506104108388546106f0565b875561041e836001546106f0565b6001555b1694868661043f57508181540390555b8551908152a35160018152f35b908681526002845220818154019055610432565b91939092508486526002885286862054908482106104a457509183917fddf252ad1be2c89b69c2b068fc378daa952ba7f163c4a11628f55a4df523b3ef948994878952600286520388882055610422565b875162461bcd60e51b8152908101899052601b60248201527f45524332303a20696e73756666696369656e742062616c616e636500000000006044820152606490fd5b90919293809550811061050e57849392918a956105079203903390610711565b89806103db565b885162461bcd60e51b81528087018b9052601d60248201527f45524332303a20696e73756666696369656e7420616c6c6f77616e63650000006044820152606490fd5b5050346100d757816003193601126100d757602091549051908152f35b5050346100d757806003193601126100d75760209061059861058e6106c0565b6024359033610711565b5160018152f35b84908434610675578260031936011261067557828454600181811c9080831692831561066b575b602093848410811461030f578388529081156102f3575060011461061657505050829003601f01601f191682019267ffffffffffffffff84118385101761028a5750829182610286925282610679565b8787529192508591837f8a35acfbc15ff81a39ae7d344fd709f28e8600b4aa8c65c6b64bfe7fe36bd19b5b8385106106575750505050830101858080610254565b805488860183015293019284908201610641565b91607f16916105c6565b8280fd5b602080825282518183018190529093925f5b8281106106ac57505060409293505f838284010152601f8019910116010190565b81810186015184820160400152850161068b565b600435906001600160a01b03821682036106d657565b5f80fd5b602435906001600160a01b03821682036106d657565b919082018092116106fd57565b634e487b7160e01b5f52601160045260245ffd5b909160207f8c5be1e5ebec7d5bd14f71427d1e84f3dd0314c0f7b2291e5b200ac8c7c3b9259160018060a01b0380941693845f526003835260405f20951694855f5282528060405f2055604051908152a356fea2646970667358221220fc8ccd5b0e9e6c928bef646899fd35a83039026cd7c55005fa0325f224d5938164736f6c63430008140033","linkReferences":{}},"methodIdentifiers":{"allowance(address,address)":"dd62ed3e","approve(address,uint256)":"095ea7b3","balanceOf(address)":"70a08231","decimals()":"313ce567","name()":"06fdde03","symbol()":"95d89b41","totalMinted()":"a2309ff8","totalSupply()":"18160ddd","transfer(address,uint256)":"a9059cbb","transferFrom(address,address,uint256)":"23b872dd"},"id":5}