{"abi":[{"type":"function","name":"DOMAIN_SEPARATOR","inputs":[],"outputs":[{"name":"","type":"bytes32","internalType":"bytes32"}],"stateMutability":"view"},{"type":"function","name":"allowance","inputs":[{"name":"owner","type":"address","internalType":"address"},{"name":"spender","type":"address","internalType":"address"}],"outputs":[{"name":"","type":"uint256","internalType":"uint256"}],"stateMutability":"view"},{"type":"function","name":"approve","inputs":[{"name":"spender","type":"address","internalType":"address"},{"name":"amount","type":"uint256","internalType":"uint256"}],"outputs":[{"name":"","type":"bool","internalType":"bool"}],"stateMutability":"nonpayable"},{"type":"function","name":"balanceOf","inputs":[{"name":"owner","type":"address","internalType":"address"}],"outputs":[{"name":"","type":"uint256","internalType":"uint256"}],"stateMutability":"view"},{"type":"function","name":"decimals","inputs":[],"outputs":[{"name":"","type":"uint8","internalType":"uint8"}],"stateMutability":"view"},{"type":"function","name":"initialize","inputs":[{"name":"name_","type":"string","internalType":"string"},{"name":"symbol_","type":"string","internalType":"string"},{"name":"decimals_","type":"uint8","internalType":"uint8"}],"outputs":[],"stateMutability":"nonpayable"},{"type":"function","name":"name","inputs":[],"outputs":[{"name":"","type":"string","internalType":"string"}],"stateMutability":"view"},{"type":"function","name":"nonces","inputs":[{"name":"","type":"address","internalType":"address"}],"outputs":[{"name":"","type":"uint256","internalType":"uint256"}],"stateMutability":"view"},{"type":"function","name":"permit","inputs":[{"name":"owner","type":"address","internalType":"address"},{"name":"spender","type":"address","internalType":"address"},{"name":"value","type":"uint256","internalType":"uint256"},{"name":"deadline","type":"uint256","internalType":"uint256"},{"name":"v","type":"uint8","internalType":"uint8"},{"name":"r","type":"bytes32","internalType":"bytes32"},{"name":"s","type":"bytes32","internalType":"bytes32"}],"outputs":[],"stateMutability":"nonpayable"},{"type":"function","name":"symbol","inputs":[],"outputs":[{"name":"","type":"string","internalType":"string"}],"stateMutability":"view"},{"type":"function","name":"totalSupply","inputs":[],"outputs":[{"name":"","type":"uint256","internalType":"uint256"}],"stateMutability":"view"},{"type":"function","name":"transfer","inputs":[{"name":"to","type":"address","internalType":"address"},{"name":"amount","type":"uint256","internalType":"uint256"}],"outputs":[{"name":"","type":"bool","internalType":"bool"}],"stateMutability":"nonpayable"},{"type":"function","name":"transferFrom","inputs":[{"name":"from","type":"address","internalType":"address"},{"name":"to","type":"address","internalType":"address"},{"name":"amount","type":"uint256","internalType":"uint256"}],"outputs":[{"name":"","type":"bool","internalType":"bool"}],"stateMutability":"nonpayable"},{"type":"event","name":"Approval","inputs":[{"name":"owner","type":"address","indexed":true,"internalType":"address"},{"name":"spender","type":"address","indexed":true,"internalType":"address"},{"name":"value","type":"uint256","indexed":false,"internalType":"uint256"}],"anonymous":false},{"type":"event","name":"Transfer","inputs":[{"name":"from","type":"address","indexed":true,"internalType":"address"},{"name":"to","type":"address","indexed":true,"internalType":"address"},{"name":"value","type":"uint256","indexed":false,"internalType":"uint256"}],"anonymous":false}],"bytecode":{"object":"0x6080806040523461001657610e27908161001b8239f35b5f80fdfe6080604081815260049182361015610015575f80fd5b5f92833560e01c91826306fdde0314610a5d57508163095ea7b3146109ec5781631624f6c61461067e57816318160ddd1461065f57816323b872dd1461057d578163313ce5671461055b5781633644e5151461053757816370a08231146105015781637ecebe00146104c957816395d89b41146103f0578163a9059cbb1461035d578163d505accf146100fc575063dd62ed3e146100b1575f80fd5b346100f857806003193601126100f857806020926100cd610ad0565b6100d5610aea565b6001600160a01b0391821683526005865283832091168252845220549051908152f35b5080fd5b9050346103595760e036600319011261035957610117610ad0565b61011f610aea565b9260443590606435936084359360ff85168095036103555742861061031257610146610c6d565b9660018060a01b0380921696878a5260209660088852858b20998a549a5f198c146102ff5760018c019055865192858a8501957f6e71edae12b1b97f4d1f60370fef10105fa2faae0126114a169c64845d6126c987528c8a870152169b8c606086015289608086015260a085015260c084015260c0835260e0830167ffffffffffffffff94848210868311176102ec578189528451902061010085019261190160f01b845261010286015261012285015260428152610160840194818610908611176102d957848852519020835261018082015260a4356101a082015260c4356101c0909101528880528590899060809060015afa156102cf5787511690811515806102c6575b1561029257508652600583528086208587528352808620829055519081527f8c5be1e5ebec7d5bd14f71427d1e84f3dd0314c0f7b2291e5b200ac8c7c3b9259190a380f35b825162461bcd60e51b8152908101859052600e60248201526d24a72b20a624a22fa9a4a3a722a960911b6044820152606490fd5b5085821461024d565b82513d89823e3d90fd5b634e487b7160e01b8d526041875260248dfd5b634e487b7160e01b8e526041885260248efd5b634e487b7160e01b8d526011875260248dfd5b506020606492519162461bcd60e51b8352820152601760248201527f5045524d49545f444541444c494e455f455850495245440000000000000000006044820152fd5b8780fd5b8280fd5b9050346103595781600319360112610359579160209261037b610ad0565b9083602435923385528287526103948483872054610d98565b3386528388528286205560018060a01b0316938481526103b78483832054610d2b565b928582528752205582519081527fddf252ad1be2c89b69c2b068fc378daa952ba7f163c4a11628f55a4df523b3ef843392a35160018152f35b5050346100f857816003193601126100f8578051908260019081549161041583610b8c565b9182865260209382811690815f146104a7575060011461044f575b61044b8686610441828b0383610b00565b5191829182610a89565b0390f35b9295508083527fb10e2d527612073b26eecdfd717e6a320cf44b4afac2b0732d9fcbe2b7fa0cf65b828410610494575050508261044b9461044192820101945f610430565b8054868501880152928601928101610477565b60ff191687860152505050151560051b83010192506104418261044b5f610430565b5050346100f85760203660031901126100f85760209181906001600160a01b036104f1610ad0565b1681526008845220549051908152f35b9050346103595760203660031901126103595760209282916001600160a01b03610529610ad0565b168252845220549051908152f35b5050346100f857816003193601126100f857602090610554610c6d565b9051908152f35b5050346100f857816003193601126100f85760209060ff600254169051908152f35b82843461065c57606036600319011261065c57610598610ad0565b927fddf252ad1be2c89b69c2b068fc378daa952ba7f163c4a11628f55a4df523b3ef6105c2610aea565b60443560018060a01b038097169384865286602098899460058652828920338a52865282892054855f198203610639575b505087895283865261060885848b2054610d98565b888a52848752838a205516968781526106248483832054610d2b565b92888252855220558551908152a35160018152f35b61064291610d98565b888a5260058752838a20338b528752838a20558b856105f3565b80fd5b5050346100f857816003193601126100f8576020906003549051908152f35b839150346100f85760603660031901126100f85767ffffffffffffffff9281358481116109e8576106b29036908401610b36565b936024358181116109e4576106ca9036908501610b36565b926044359260ff84168094036109e05760ff600954166109a75750855182811161099457806106f98754610b8c565b97601f98898111610929575b506020908983116001146108a957889261089e575b50508160011b915f199060031b1c19161785555b835191821161088b57506001926107458454610b8c565b868111610829575b5060209582116001146107ac5794849582939495926107a1575b50505f19600383901b1c191690831b1782555b60ff199081600254161760025546600655610793610c87565b600755600954161760095580f35b015190508580610767565b838552601f198216957fb10e2d527612073b26eecdfd717e6a320cf44b4afac2b0732d9fcbe2b7fa0cf691865b888110610813575083869798969596106107fb575b505050811b01825561077a565b01515f1960f88460031b161c191690558580806107ee565b81830151845592860192602092830192016107d9565b8486527fb10e2d527612073b26eecdfd717e6a320cf44b4afac2b0732d9fcbe2b7fa0cf68780850160051c82019260208610610882575b0160051c019085905b82811061087757505061074d565b878155018590610869565b92508192610860565b634e487b7160e01b855260419052602484fd5b01519050888061071a565b8880527f290decd9548b62a8d60345a988386fc84ba6bc95484008f6362f93160ef3e5639250601f198416895b81811061091157509084600195949392106108f9575b505050811b01855561072e565b01515f1960f88460031b161c191690558880806108ec565b929360206001819287860151815501950193016108d6565b9091508780527f290decd9548b62a8d60345a988386fc84ba6bc95484008f6362f93160ef3e5638980850160051c8201926020861061098b575b9085949392910160051c01905b81811061097d5750610705565b898155849350600101610970565b92508192610963565b634e487b7160e01b865260418252602486fd5b906020606492519162461bcd60e51b835282015260136024820152721053149150511657d253925512505312569151606a1b6044820152fd5b8580fd5b8480fd5b8380fd5b5050346100f857806003193601126100f85760209181610a0a610ad0565b91602435918291338152600587528181209460018060a01b0316948582528752205582519081527f8c5be1e5ebec7d5bd14f71427d1e84f3dd0314c0f7b2291e5b200ac8c7c3b925843392a35160018152f35b8490843461035957826003193601126103595761044b925061044182610a8281610bc4565b0383610b00565b602080825282518183018190529093925f5b828110610abc57505060409293505f838284010152601f8019910116010190565b818101860151848201604001528501610a9b565b600435906001600160a01b0382168203610ae657565b5f80fd5b602435906001600160a01b0382168203610ae657565b90601f8019910116810190811067ffffffffffffffff821117610b2257604052565b634e487b7160e01b5f52604160045260245ffd5b81601f82011215610ae65780359067ffffffffffffffff8211610b225760405192610b6b601f8401601f191660200185610b00565b82845260208383010111610ae657815f926020809301838601378301015290565b90600182811c92168015610bba575b6020831014610ba657565b634e487b7160e01b5f52602260045260245ffd5b91607f1691610b9b565b905f915f5490610bd382610b8c565b9081815260209260019081811690815f14610c505750600114610bf7575b50505050565b92939450905f80527f290decd9548b62a8d60345a988386fc84ba6bc95484008f6362f93160ef3e56392845f945b838610610c3c57505050500101905f808080610bf1565b805485870183015294019385908201610c25565b60ff191685840152505090151560051b010191505f808080610bf1565b6006544603610c7c5760075490565b610c84610c87565b90565b604051610c9e81610c9781610bc4565b0382610b00565b6020815191012060405160208101917f8b73c3c69bb8fe3d512ecc4cf759cc79239f7b179b0ffacaa9a75d522b39400f835260408201527fc89efdaa54c0f20c7adf612882df0950f5a951637e0307cdcb4c672f298b8bc660608201524660808201523060a082015260a0815260c0810181811067ffffffffffffffff821117610b225760405251902090565b90810190818111610d84578110610d3f5790565b60405162461bcd60e51b815260206004820152601860248201527f45524332303a206164646974696f6e206f766572666c6f7700000000000000006044820152606490fd5b634e487b7160e01b5f52601160045260245ffd5b90808210610dac578103908111610d845790565b60405162461bcd60e51b815260206004820152601c60248201527f45524332303a207375627472616374696f6e20756e646572666c6f77000000006044820152606490fdfea2646970667358221220e14ac2c6e84ad844e291fed5dcbc4534054ed0448d7d9c24e5d52de681fee31364736f6c63430008150033","linkReferences":{}},"methodIdentifiers":{"DOMAIN_SEPARATOR()":"3644e515","allowance(address,address)":"dd62ed3e","approve(address,uint256)":"095ea7b3","balanceOf(address)":"70a08231","decimals()":"313ce567","initialize(string,string,uint8)":"1624f6c6","name()":"06fdde03","nonces(address)":"7ecebe00","permit(address,address,uint256,uint256,uint8,bytes32,bytes32)":"d505accf","symbol()":"95d89b41","totalSupply()":"18160ddd","transfer(address,uint256)":"a9059cbb","transferFrom(address,address,uint256)":"23b872dd"},"id":20}