{"abi":[{"type":"constructor","inputs":[],"stateMutability":"nonpayable"},{"type":"function","name":"allowance","inputs":[{"name":"","type":"address","internalType":"address"},{"name":"","type":"address","internalType":"address"}],"outputs":[{"name":"","type":"uint256","internalType":"uint256"}],"stateMutability":"view"},{"type":"function","name":"approve","inputs":[{"name":"spender","type":"address","internalType":"address"},{"name":"value","type":"uint256","internalType":"uint256"}],"outputs":[{"name":"","type":"bool","internalType":"bool"}],"stateMutability":"nonpayable"},{"type":"function","name":"balanceOf","inputs":[{"name":"","type":"address","internalType":"address"}],"outputs":[{"name":"","type":"uint256","internalType":"uint256"}],"stateMutability":"view"},{"type":"function","name":"decimals","inputs":[],"outputs":[{"name":"","type":"uint8","internalType":"uint8"}],"stateMutability":"view"},{"type":"function","name":"name","inputs":[],"outputs":[{"name":"","type":"string","internalType":"string"}],"stateMutability":"view"},{"type":"function","name":"symbol","inputs":[],"outputs":[{"name":"","type":"string","internalType":"string"}],"stateMutability":"view"},{"type":"function","name":"totalMinted","inputs":[],"outputs":[{"name":"","type":"uint256","internalType":"uint256"}],"stateMutability":"view"},{"type":"function","name":"totalSupply","inputs":[],"outputs":[{"name":"","type":"uint256","internalType":"uint256"}],"stateMutability":"view"},{"type":"function","name":"transfer","inputs":[{"name":"to","type":"address","internalType":"address"},{"name":"value","type":"uint256","internalType":"uint256"}],"outputs":[{"name":"","type":"bool","internalType":"bool"}],"stateMutability":"nonpayable"},{"type":"function","name":"transferFrom","inputs":[{"name":"from","type":"address","internalType":"address"},{"name":"to","type":"address","internalType":"address"},{"name":"value","type":"uint256","internalType":"uint256"}],"outputs":[{"name":"","type":"bool","internalType":"bool"}],"stateMutability":"nonpayable"},{"type":"event","name":"Approval","inputs":[{"name":"owner","type":"address","indexed":true,"internalType":"address"},{"name":"spender","type":"address","indexed":true,"internalType":"address"},{"name":"value","type":"uint256","indexed":false,"internalType":"uint256"}],"anonymous":false},{"type":"event","name":"Transfer","inputs":[{"name":"from","type":"address","indexed":true,"internalType":"address"},{"name":"to","type":"address","indexed":true,"internalType":"address"},{"name":"value","type":"uint256","indexed":false,"internalType":"uint256"}],"anonymous":false}],"bytecode":{"object":"0x60806040523462000362576200001462000366565b6200001e62000366565b81516001600160401b038082116200034e576004908154936001938486811c961696871562000343575b6020978888101462000330578190601f97888111620002dd575b50889088831160011462000279575f926200026d575b50505f19600383901b1c191690851b1783555b80519182116200025a576005928354908582811c921680156200024f575b888310146200023c5750858111620001f6575b5085948211600114620001935793819293945f9262000187575b50505f19600383901b1c191690831b1790555b600660ff1981541617600655620001015f546200039d565b5f556200010f81546200039d565b905533620001695766038d7ea4c67fff195f54015f555b5f7fddf252ad1be2c89b69c2b068fc378daa952ba7f163c4a11628f55a4df523b3ef6040519266038d7ea4c6800084523393a360405161079a9081620003c78239f35b335f526002815260405f2066038d7ea4c68000815401905562000126565b015190505f80620000d6565b601f19821694835f52865f20915f5b88888210620001e157505083869796959610620001c8575b505050811b019055620000e9565b01515f1960f88460031b161c191690555f8080620001ba565b828401518555938701939283019201620001a2565b835f52865f2086808501861c82019289861062000232575b01851c019085905b82811062000226575050620000bc565b5f815501859062000216565b925081926200020e565b602290634e487b7160e01b5f525260245ffd5b91607f1691620000a9565b604183634e487b7160e01b5f525260245ffd5b015190505f8062000078565b90879350601f19831691875f528a5f20925f5b8c828210620002c65750508411620002ad575b505050811b0183556200008b565b01515f1960f88460031b161c191690555f80806200029f565b8385015186558b979095019493840193016200028c565b909150855f52885f208880850160051c8201928b861062000326575b918991869594930160051c01915b8281106200031757505062000062565b5f815585945089910162000307565b92508192620002f9565b602285634e487b7160e01b5f525260245ffd5b95607f169562000048565b634e487b7160e01b5f52604160045260245ffd5b5f80fd5b60408051919082016001600160401b038111838210176200034e57604052600a825269426f6e6465725553444360b01b6020830152565b9066038d7ea4c680008201809211620003b257565b634e487b7160e01b5f52601160045260245ffdfe6080604081815260049182361015610015575f80fd5b5f92833560e01c91826306fdde031461059f57508163095ea7b31461056e57816318160ddd1461055157816323b872dd14610386578163313ce5671461036457816370a082311461032c57816395d89b411461020b578163a2309ff8146101ec578163a9059cbb146100db575063dd62ed3e14610090575f80fd5b346100d757806003193601126100d757806020926100ac6106c0565b6100b46106da565b6001600160a01b0391821683526003865283832091168252845220549051908152f35b5080fd5b8284346101e957816003193601126101e9576100f56106c0565b602435903361017c576020945061010d8284546106f0565b835561011b826001546106f0565b6001555b6001600160a01b031691838361016857508181540390555b82519081527fddf252ad1be2c89b69c2b068fc378daa952ba7f163c4a11628f55a4df523b3ef843392a35160018152f35b908381526002865220818154019055610137565b3383526002602052838320548281106101a65760209550829033855260028752038484205561011f565b845162461bcd60e51b8152602081880152601b60248201527f45524332303a20696e73756666696369656e742062616c616e636500000000006044820152606490fd5b80fd5b5050346100d757816003193601126100d7576020906001549051908152f35b8383346100d757816003193601126100d75780519082600554600181811c90808316928315610322575b602093848410811461030f578388529081156102f3575060011461029d575b505050829003601f01601f191682019267ffffffffffffffff84118385101761028a5750829182610286925282610679565b0390f35b634e487b7160e01b815260418552602490fd5b600587529192508591837f036b6384b5eca791c62761152d0c79bb0604c104a5fb6f4eb0703f3154bb3db05b8385106102df5750505050830101858080610254565b8054888601830152930192849082016102c9565b60ff1916878501525050151560051b8401019050858080610254565b634e487b7160e01b895260228a52602489fd5b91607f1691610235565b5050346100d75760203660031901126100d75760209181906001600160a01b036103546106c0565b1681526002845220549051908152f35b5050346100d757816003193601126100d75760209060ff600654169051908152f35b8284346101e95760603660031901126101e9576103a16106c0565b6103a96106da565b936044359160018060a01b0392838216938486526020978893600385528888203389528552888820545f1981036104e7575b505085610453577fddf252ad1be2c89b69c2b068fc378daa952ba7f163c4a11628f55a4df523b3ef94506104108388546106f0565b875561041e836001546106f0565b6001555b1694868661043f57508181540390555b8551908152a35160018152f35b908681526002845220818154019055610432565b91939092508486526002885286862054908482106104a457509183917fddf252ad1be2c89b69c2b068fc378daa952ba7f163c4a11628f55a4df523b3ef948994878952600286520388882055610422565b875162461bcd60e51b8152908101899052601b60248201527f45524332303a20696e73756666696369656e742062616c616e636500000000006044820152606490fd5b90919293809550811061050e57849392918a956105079203903390610711565b89806103db565b885162461bcd60e51b81528087018b9052601d60248201527f45524332303a20696e73756666696369656e7420616c6c6f77616e63650000006044820152606490fd5b5050346100d757816003193601126100d757602091549051908152f35b5050346100d757806003193601126100d75760209061059861058e6106c0565b6024359033610711565b5160018152f35b84908434610675578260031936011261067557828454600181811c9080831692831561066b575b602093848410811461030f578388529081156102f3575060011461061657505050829003601f01601f191682019267ffffffffffffffff84118385101761028a5750829182610286925282610679565b8787529192508591837f8a35acfbc15ff81a39ae7d344fd709f28e8600b4aa8c65c6b64bfe7fe36bd19b5b8385106106575750505050830101858080610254565b805488860183015293019284908201610641565b91607f16916105c6565b8280fd5b602080825282518183018190529093925f5b8281106106ac57505060409293505f838284010152601f8019910116010190565b81810186015184820160400152850161068b565b600435906001600160a01b03821682036106d657565b5f80fd5b602435906001600160a01b03821682036106d657565b919082018092116106fd57565b634e487b7160e01b5f52601160045260245ffd5b909160207f8c5be1e5ebec7d5bd14f71427d1e84f3dd0314c0f7b2291e5b200ac8c7c3b9259160018060a01b0380941693845f526003835260405f20951694855f5282528060405f2055604051908152a356fea2646970667358221220616458d2571fa0fff2e29fb0dc19436b3983c32c45dcffd0b7ff0cc357b4456d64736f6c63430008140033","linkReferences":{}},"methodIdentifiers":{"allowance(address,address)":"dd62ed3e","approve(address,uint256)":"095ea7b3","balanceOf(address)":"70a08231","decimals()":"313ce567","name()":"06fdde03","symbol()":"95d89b41","totalMinted()":"a2309ff8","totalSupply()":"18160ddd","transfer(address,uint256)":"a9059cbb","transferFrom(address,address,uint256)":"23b872dd"},"id":1}