{
  "abi": [
    {
      "inputs": [],
      "stateMutability": "nonpayable",
      "type": "constructor"
    },
    {
      "anonymous": false,
      "inputs": [
        {
          "indexed": true,
          "internalType": "address",
          "name": "owner",
          "type": "address"
        },
        {
          "indexed": true,
          "internalType": "address",
          "name": "spender",
          "type": "address"
        },
        {
          "indexed": false,
          "internalType": "uint256",
          "name": "value",
          "type": "uint256"
        }
      ],
      "name": "Approval",
      "type": "event"
    },
    {
      "anonymous": false,
      "inputs": [
        {
          "indexed": true,
          "internalType": "address",
          "name": "from",
          "type": "address"
        },
        {
          "indexed": true,
          "internalType": "address",
          "name": "to",
          "type": "address"
        },
        {
          "indexed": false,
          "internalType": "uint256",
          "name": "value",
          "type": "uint256"
        }
      ],
      "name": "Transfer",
      "type": "event"
    },
    {
      "inputs": [],
      "name": "DOMAIN_SEPARATOR",
      "outputs": [
        {
          "internalType": "bytes32",
          "name": "",
          "type": "bytes32"
        }
      ],
      "stateMutability": "view",
      "type": "function"
    },
    {
      "inputs": [],
      "name": "PERMIT_TYPEHASH",
      "outputs": [
        {
          "internalType": "bytes32",
          "name": "",
          "type": "bytes32"
        }
      ],
      "stateMutability": "view",
      "type": "function"
    },
    {
      "inputs": [
        {
          "internalType": "address",
          "name": "",
          "type": "address"
        },
        {
          "internalType": "address",
          "name": "",
          "type": "address"
        }
      ],
      "name": "allowance",
      "outputs": [
        {
          "internalType": "uint256",
          "name": "",
          "type": "uint256"
        }
      ],
      "stateMutability": "view",
      "type": "function"
    },
    {
      "inputs": [
        {
          "internalType": "address",
          "name": "spender",
          "type": "address"
        },
        {
          "internalType": "uint256",
          "name": "value",
          "type": "uint256"
        }
      ],
      "name": "approve",
      "outputs": [
        {
          "internalType": "bool",
          "name": "",
          "type": "bool"
        }
      ],
      "stateMutability": "nonpayable",
      "type": "function"
    },
    {
      "inputs": [
        {
          "internalType": "address",
          "name": "",
          "type": "address"
        }
      ],
      "name": "balanceOf",
      "outputs": [
        {
          "internalType": "uint256",
          "name": "",
          "type": "uint256"
        }
      ],
      "stateMutability": "view",
      "type": "function"
    },
    {
      "inputs": [],
      "name": "decimals",
      "outputs": [
        {
          "internalType": "uint8",
          "name": "",
          "type": "uint8"
        }
      ],
      "stateMutability": "view",
      "type": "function"
    },
    {
      "inputs": [],
      "name": "name",
      "outputs": [
        {
          "internalType": "string",
          "name": "",
          "type": "string"
        }
      ],
      "stateMutability": "view",
      "type": "function"
    },
    {
      "inputs": [
        {
          "internalType": "address",
          "name": "",
          "type": "address"
        }
      ],
      "name": "nonces",
      "outputs": [
        {
          "internalType": "uint256",
          "name": "",
          "type": "uint256"
        }
      ],
      "stateMutability": "view",
      "type": "function"
    },
    {
      "inputs": [
        {
          "internalType": "address",
          "name": "owner",
          "type": "address"
        },
        {
          "internalType": "address",
          "name": "spender",
          "type": "address"
        },
        {
          "internalType": "uint256",
          "name": "value",
          "type": "uint256"
        },
        {
          "internalType": "uint256",
          "name": "deadline",
          "type": "uint256"
        },
        {
          "internalType": "uint8",
          "name": "v",
          "type": "uint8"
        },
        {
          "internalType": "bytes32",
          "name": "r",
          "type": "bytes32"
        },
        {
          "internalType": "bytes32",
          "name": "s",
          "type": "bytes32"
        }
      ],
      "name": "permit",
      "outputs": [],
      "stateMutability": "nonpayable",
      "type": "function"
    },
    {
      "inputs": [],
      "name": "symbol",
      "outputs": [
        {
          "internalType": "string",
          "name": "",
          "type": "string"
        }
      ],
      "stateMutability": "view",
      "type": "function"
    },
    {
      "inputs": [],
      "name": "totalSupply",
      "outputs": [
        {
          "internalType": "uint256",
          "name": "",
          "type": "uint256"
        }
      ],
      "stateMutability": "view",
      "type": "function"
    },
    {
      "inputs": [
        {
          "internalType": "address",
          "name": "to",
          "type": "address"
        },
        {
          "internalType": "uint256",
          "name": "value",
          "type": "uint256"
        }
      ],
      "name": "transfer",
      "outputs": [
        {
          "internalType": "bool",
          "name": "",
          "type": "bool"
        }
      ],
      "stateMutability": "nonpayable",
      "type": "function"
    },
    {
      "inputs": [
        {
          "internalType": "address",
          "name": "from",
          "type": "address"
        },
        {
          "internalType": "address",
          "name": "to",
          "type": "address"
        },
        {
          "internalType": "uint256",
          "name": "value",
          "type": "uint256"
        }
      ],
      "name": "transferFrom",
      "outputs": [
        {
          "internalType": "bool",
          "name": "",
          "type": "bool"
        }
      ],
      "stateMutability": "nonpayable",
      "type": "function"
    }
  ],
  "bytecode": {
    "object": "0x608080604052346100d757602081610018600f936100dc565b828152016e2137b73232b92b1896a6282830b4b960891b81522060016020604051610042816100dc565b82815201603160f81b815220906040519160208301917f8b73c3c69bb8fe3d512ecc4cf759cc79239f7b179b0ffacaa9a75d522b39400f8352604084015260608301524660808301523060a083015260a0825260c082019180831060018060401b038411176100c1578260405251902060035561077290816100f88239f35b634e487b7160e01b600052604160045260246000fd5b600080fd5b604081019081106001600160401b038211176100c15760405256fe6040608081526004908136101561001557600080fd5b600091823560e01c90816306fdde0314610513578163095ea7b3146104e957816318160ddd146104cc57816323b872dd1461043c57816330adf81f14610401578163313ce567146103e55781633644e515146103c657816370a082311461038e5781637ecebe001461035457816395d89b411461034f578163a9059cbb1461031e578163d505accf146100fd575063dd62ed3e146100b257600080fd5b346100f957806003193601126100f957806020926100ce6105c1565b6100d66105d7565b6001600160a01b0391821683526002865283832091168252845220549051908152f35b5080fd5b839150346100f95760e03660031901126100f9576101196105c1565b6101216105d7565b906044359260643560843560ff811680910361031a574282106102e8576003549160018060a01b039182861693848a52856020528a8a209283549360001985146102d557908493929160018e960190558451938760208601967f6e71edae12b1b97f4d1f60370fef10105fa2faae0126114a169c64845d6126c98852860152868b1660608601528b608086015260a085015260c084015260c0835260e0830167ffffffffffffffff94848210868311176102c257818e528451902061010085019261190160f01b845261010286015261012285015260428152610160840194818610908611176102af57848d52519020835261018082015260a4356101a082015260c4356101c090910152878052602090889060809060015afa156102a55786511690811515918261029b575b50501561026457506102619394506105ed565b80f35b606490602087519162461bcd60e51b83528201526011602482015270496e76616c6964207369676e617475726560781b6044820152fd5b149050878061024e565b87513d88823e3d90fd5b634e487b7160e01b8c526041885260248cfd5b634e487b7160e01b8d526041895260248dfd5b634e487b7160e01b8c526011885260248cfd5b875162461bcd60e51b8152602081850152600c60248201526b151a5b5948195e1c1a5c995960a21b6044820152606490fd5b8680fd5b5050346100f957806003193601126100f95760209061034861033e6105c1565b6024359033610644565b5160018152f35b610513565b90503461038a57602036600319011261038a5760209282916001600160a01b0361037c6105c1565b168252845220549051908152f35b8280fd5b5050346100f95760203660031901126100f95760209181906001600160a01b036103b66105c1565b1681526001845220549051908152f35b5050346100f957816003193601126100f9576020906003549051908152f35b5050346100f957816003193601126100f9576020905160128152f35b5050346100f957816003193601126100f957602090517f6e71edae12b1b97f4d1f60370fef10105fa2faae0126114a169c64845d6126c98152f35b5050346100f95760603660031901126100f95761034861045a6105c1565b6104626105d7565b6044359160018060a01b038116808752856020976002895281812033825289526000198282205403610497575b505050610644565b8281526002895281812033825289526104b38683832054610719565b928152600289528181203382528952205538858161048f565b5050346100f957816003193601126100f957602091549051908152f35b5050346100f957806003193601126100f9576020906103486105096105c1565b60243590336105ed565b346105bc576000806003193601126105b9576040805181810181811067ffffffffffffffff8211176105a5578252600f81526020906e2137b73232b92b1896a6282830b4b960891b8282015282519382859384528251928382860152825b84811061058f57505050828201840152601f01601f19168101030190f35b8181018301518882018801528795508201610571565b634e487b7160e01b84526041600452602484fd5b80fd5b600080fd5b600435906001600160a01b03821682036105bc57565b602435906001600160a01b03821682036105bc57565b909160207f8c5be1e5ebec7d5bd14f71427d1e84f3dd0314c0f7b2291e5b200ac8c7c3b9259160018060a01b03809416938460005260028352604060002095169485600052825280604060002055604051908152a3565b9160018060a01b0380931691600093838552600160205260409161066b8484882054610719565b85875260016020528387205516938481528181205490838201918281116107055782106106ca57917fddf252ad1be2c89b69c2b068fc378daa952ba7f163c4a11628f55a4df523b3ef93918184886020965260018652205551908152a3565b825162461bcd60e51b815260206004820152601460248201527364732d6d6174682d6164642d6f766572666c6f7760601b6044820152606490fd5b634e487b7160e01b82526011600452602482fd5b9081039081116107265790565b634e487b7160e01b600052601160045260246000fdfea26469706673582212209c61e2966ab2fd6902d0968f7c1707f507c1157d2a6e42a7d94134fb0dbd65cd64736f6c63430008140033",
    "linkReferences": {}
  },
  "methodIdentifiers": {
    "DOMAIN_SEPARATOR()": "3644e515",
    "PERMIT_TYPEHASH()": "30adf81f",
    "allowance(address,address)": "dd62ed3e",
    "approve(address,uint256)": "095ea7b3",
    "balanceOf(address)": "70a08231",
    "decimals()": "313ce567",
    "name()": "06fdde03",
    "nonces(address)": "7ecebe00",
    "permit(address,address,uint256,uint256,uint8,bytes32,bytes32)": "d505accf",
    "symbol()": "95d89b41",
    "totalSupply()": "18160ddd",
    "transfer(address,uint256)": "a9059cbb",
    "transferFrom(address,address,uint256)": "23b872dd"
  },
  "id": 53
}