{
  "abi": [
    {
      "inputs": [
        {
          "internalType": "address",
          "name": "_pairLpfactory",
          "type": "address"
        },
        {
          "internalType": "address",
          "name": "_baseUSDCAddr",
          "type": "address"
        },
        {
          "internalType": "uint256",
          "name": "_swapFee",
          "type": "uint256"
        }
      ],
      "stateMutability": "nonpayable",
      "type": "constructor"
    },
    {
      "inputs": [
        {
          "internalType": "address",
          "name": "owner",
          "type": "address"
        }
      ],
      "name": "OwnableInvalidOwner",
      "type": "error"
    },
    {
      "inputs": [
        {
          "internalType": "address",
          "name": "account",
          "type": "address"
        }
      ],
      "name": "OwnableUnauthorizedAccount",
      "type": "error"
    },
    {
      "anonymous": false,
      "inputs": [
        {
          "indexed": true,
          "internalType": "address",
          "name": "previousOwner",
          "type": "address"
        },
        {
          "indexed": true,
          "internalType": "address",
          "name": "newOwner",
          "type": "address"
        }
      ],
      "name": "OwnershipTransferred",
      "type": "event"
    },
    {
      "inputs": [
        {
          "internalType": "address",
          "name": "tokenA",
          "type": "address"
        },
        {
          "internalType": "address",
          "name": "tokenB",
          "type": "address"
        },
        {
          "internalType": "uint256",
          "name": "amountADesired",
          "type": "uint256"
        },
        {
          "internalType": "uint256",
          "name": "amountBDesired",
          "type": "uint256"
        },
        {
          "internalType": "uint256",
          "name": "amountAMin",
          "type": "uint256"
        },
        {
          "internalType": "uint256",
          "name": "amountBMin",
          "type": "uint256"
        },
        {
          "internalType": "address",
          "name": "to",
          "type": "address"
        },
        {
          "internalType": "uint256",
          "name": "deadline",
          "type": "uint256"
        }
      ],
      "name": "addLiquidity",
      "outputs": [
        {
          "internalType": "uint256",
          "name": "amountA",
          "type": "uint256"
        },
        {
          "internalType": "uint256",
          "name": "amountB",
          "type": "uint256"
        },
        {
          "internalType": "uint256",
          "name": "liquidity",
          "type": "uint256"
        }
      ],
      "stateMutability": "nonpayable",
      "type": "function"
    },
    {
      "inputs": [],
      "name": "factory",
      "outputs": [
        {
          "internalType": "address",
          "name": "",
          "type": "address"
        }
      ],
      "stateMutability": "view",
      "type": "function"
    },
    {
      "inputs": [],
      "name": "owner",
      "outputs": [
        {
          "internalType": "address",
          "name": "",
          "type": "address"
        }
      ],
      "stateMutability": "view",
      "type": "function"
    },
    {
      "inputs": [
        {
          "internalType": "address",
          "name": "tokenA",
          "type": "address"
        },
        {
          "internalType": "address",
          "name": "tokenB",
          "type": "address"
        },
        {
          "internalType": "uint256",
          "name": "liquidity",
          "type": "uint256"
        },
        {
          "internalType": "uint256",
          "name": "amountAMin",
          "type": "uint256"
        },
        {
          "internalType": "uint256",
          "name": "amountBMin",
          "type": "uint256"
        },
        {
          "internalType": "address",
          "name": "to",
          "type": "address"
        },
        {
          "internalType": "uint256",
          "name": "deadline",
          "type": "uint256"
        }
      ],
      "name": "removeLiquidity",
      "outputs": [
        {
          "internalType": "uint256",
          "name": "amountA",
          "type": "uint256"
        },
        {
          "internalType": "uint256",
          "name": "amountB",
          "type": "uint256"
        }
      ],
      "stateMutability": "nonpayable",
      "type": "function"
    },
    {
      "inputs": [],
      "name": "renounceOwnership",
      "outputs": [],
      "stateMutability": "nonpayable",
      "type": "function"
    },
    {
      "inputs": [
        {
          "internalType": "uint256",
          "name": "_swapFee",
          "type": "uint256"
        }
      ],
      "name": "setSwapFee",
      "outputs": [],
      "stateMutability": "nonpayable",
      "type": "function"
    },
    {
      "inputs": [
        {
          "internalType": "uint256",
          "name": "amountIn",
          "type": "uint256"
        },
        {
          "internalType": "uint256",
          "name": "amountOutMin",
          "type": "uint256"
        },
        {
          "internalType": "address[]",
          "name": "path",
          "type": "address[]"
        },
        {
          "internalType": "address",
          "name": "to",
          "type": "address"
        },
        {
          "internalType": "uint256",
          "name": "deadline",
          "type": "uint256"
        }
      ],
      "name": "swapExactTokensForTokens",
      "outputs": [
        {
          "internalType": "uint256[]",
          "name": "amounts",
          "type": "uint256[]"
        }
      ],
      "stateMutability": "nonpayable",
      "type": "function"
    },
    {
      "inputs": [
        {
          "internalType": "uint256",
          "name": "amountOut",
          "type": "uint256"
        },
        {
          "internalType": "uint256",
          "name": "amountInMax",
          "type": "uint256"
        },
        {
          "internalType": "address[]",
          "name": "path",
          "type": "address[]"
        },
        {
          "internalType": "address",
          "name": "to",
          "type": "address"
        },
        {
          "internalType": "uint256",
          "name": "deadline",
          "type": "uint256"
        }
      ],
      "name": "swapTokensForExactTokens",
      "outputs": [
        {
          "internalType": "uint256[]",
          "name": "amounts",
          "type": "uint256[]"
        }
      ],
      "stateMutability": "nonpayable",
      "type": "function"
    },
    {
      "inputs": [
        {
          "internalType": "address",
          "name": "newOwner",
          "type": "address"
        }
      ],
      "name": "transferOwnership",
      "outputs": [],
      "stateMutability": "nonpayable",
      "type": "function"
    }
  ],
  "bytecode": {
    "object": "0x60a0346200012057601f62001f0e38819003918201601f19168301916001600160401b03831184841017620001255780849260609460405283398101031262000120576200004d816200013b565b9060406200005e602083016200013b565b9101519033156200010757600080546001600160a01b03198082163390811784556040519691946001600160a01b039490938516907f8be0079c531659141344cd1fd0a4f28419497f9722a3daafe3b4186f6b6457e09080a360805216906001541617600155600355611dbd90816200015182396080518181816101dc015281816104d901528181610561015281816107a901528181610bfc01528181610dc70152611b320152f35b604051631e4fbdf760e01b815260006004820152602490fd5b600080fd5b634e487b7160e01b600052604160045260246000fd5b51906001600160a01b0382168203620001205756fe6080604052600436101561001257600080fd5b60003560e01c806334e1990714610f9957806338ed173914610acd578063715018a614610a745780638803dbee146107845780638da5cb5b1461075b578063baa2abde14610508578063c45a0155146104c3578063e8e33700146101125763f2fde38b1461007f57600080fd5b3461010d57602036600319011261010d57610098610fba565b6100a061108e565b6001600160a01b039081169081156100f457600054826bffffffffffffffffffffffff60a01b821617600055167f8be0079c531659141344cd1fd0a4f28419497f9722a3daafe3b4186f6b6457e0600080a3005b604051631e4fbdf760e01b815260006004820152602490fd5b600080fd5b3461010d5761010036600319011261010d5761012c610fba565b610134610fd0565b6001600160a01b03919060c4358381169190606435906044359084900361010d576101634260e43510156110ba565b60405193610170856110f5565b6006855261018e8660209665746f6b656e4160d01b888201526111a5565b6101b58460405161019e816110f5565b60068152653a37b5b2b72160d11b888201526111a5565b60405163e6a4390560e01b8082526001600160a01b038881166004840152861660248301527f0000000000000000000000000000000000000000000000000000000000000000939189851691908881604481865afa8015610399578b916000916104a6575b50161561046b5786610283928a8a93610256604051610238816110f5565b600d81526c6765742072657365727665733f60981b8782015261153f565b6040519081526001600160a01b039182166004820152921660248301529092839190829081906044820190565b03915afa80156103995787956102cf88928b9460009161043e575b506040516102ab816110f5565b60138152722fb0b2322634b8bab4b234ba3c903830b4b91d60691b8a8201526111a5565b6102da8284886115af565b906102e481611517565b6102ed82611517565b801580610436575b156103a557505091602494939161032361031861032a959a8b959d8e9a5b611377565b978880943390611220565b3390611220565b600060405198899485936335313c2160e11b85526004850152165af191821561039957600092610369575b606094506040519384528301526040820152f35b80925084813d8311610392575b6103808183611143565b8101031261010d576060935191610355565b503d610376565b6040513d6000823e3d90fd5b6103b382828895949561183e565b928284116103e75750505091602494939161032361031861032a956103dc60a4358210156114d3565b9a8b959d8e9a611377565b925092508097506103fb935094939461183e565b9182116104205761032a60249288876103236103188b996103dc60843587101561148f565b634e487b7160e01b600052600160045260246000fd5b5081156102f5565b61045e9150893d8b11610464575b6104568183611143565b810190611358565b8d61029e565b503d61044c565b60405162461bcd60e51b815260048101899052601360248201527214185a5c88191bd95cc81b9bdd08195e1a5cdd606a1b6044820152606490fd5b6104bd91508a3d8c11610464576104568183611143565b8c61021a565b3461010d57600036600319011261010d576040517f00000000000000000000000000000000000000000000000000000000000000006001600160a01b03168152602090f35b3461010d5760e036600319011261010d57610521610fba565b610529610fd0565b6001600160a01b03916044359060a435848116919082900361010d576106386105bf9361055a4260c43510156110ba565b61058586847f0000000000000000000000000000000000000000000000000000000000000000611377565b9060405190610593826110f5565b6016825260209682752932b6b7bb34b733903634b8bab4b234ba3c9717171760511b898095015261153f565b6105c88361193e565b6105fe6040516105d7816110f5565b600a8152693634b8bab4b234ba3c9d60b11b84820152670de0b6b3a76400008304906117b4565b6040516323b872dd60e01b81523360048201526001600160a01b038416602482015260448101919091529291881691839081906064820190565b03816000855af180156103995760009460409360249261072e575b506106808451610662816110f5565b600d81526c7472616e7366657220646f6e6560981b8982015261153f565b8351958693849263226bf2d160e21b845260048401525af1938415610399576000926000956106f4575b5094806106b9604097846113f3565b50169116146000146106ee5791905b6106d660643584101561148f565b6106e46084358310156114d3565b8351928352820152f35b906106c8565b925093506040823d604011610726575b8161071160409383611143565b8101031261010d5781519183015193856106aa565b3d9150610704565b61074d90883d8a11610754575b6107458183611143565b810190611208565b5089610653565b503d61073b565b3461010d57600036600319011261010d576000546040516001600160a01b039091168152602090f35b3461010d576107a361079536610fe6565b9590919293954211156110ba565b600354917f0000000000000000000000000000000000000000000000000000000000000000956107d4368387611986565b956107e3600288511015611ab0565b6107ed8751611aeb565b9687519160001992838101908111610a1957610809908a6119f1565b528051828101908111610a19576127109080888303928311915b610958575050505050610850670de0b6b3a7640000610841886119e4565b510461084b611a05565b6117b4565b61087f81604051610860816110f5565b600d81526c30b6b7bab73a39a4b726b0bc1d60991b60208201526117b4565b610888866119e4565b511161091a5780156109045761089d84611a9c565b936108a781611a9c565b918060011015610904576108e76108f4966108d56109009a6108ee966108cf60208801611a9c565b91611377565b6108de8a6119e4565b51913390611220565b3691611986565b84611b2c565b60405191829182611053565b0390f35b634e487b7160e01b600052603260045260246000fd5b60405162461bcd60e51b8152602060048201526016602482015275115e18d95cdcda5d99481a5b9c1d5d08185b5bdd5b9d60521b6044820152606490fd5b848101818111610a1957818c6109cb8f6109a16109996109c6928b60018060a01b0361099189826109898d866119f1565b5116936119f1565b5116916115af565b9590946119f1565b5180936109af821515611a50565b80151580610a6b575b6109c1906117f9565b611901565b6118a6565b908203918211610a195784610a19576109e7866109ed93611901565b9061158f565b906001820191828111610a19578210610a2f57610a0a908d6119f1565b528015610a1957840180610823565b634e487b7160e01b600052601160045260246000fd5b60405162461bcd60e51b815260206004820152601460248201527364732d6d6174682d6164642d6f766572666c6f7760601b6044820152606490fd5b508515156109b8565b3461010d57600036600319011261010d57610a8d61108e565b600080546001600160a01b0319811682556001600160a01b03167f8be0079c531659141344cd1fd0a4f28419497f9722a3daafe3b4186f6b6457e08280a3005b3461010d57610aed610ade36610fe6565b959091959493944211156110ba565b60035494610b1f604051610b00816110f5565b600b81526a36b9b39739b2b73232b91d60a91b602082015233906111a5565b610b4482604051610b2f816110f5565b60038152623a379d60e91b60208201526111a5565b610b75604051610b53816110f5565b60048152633332b29d60e11b6020820152670de0b6b3a76400008804906117b4565b610b80368285611986565b91610b8f600284511015611ab0565b610b998351611aeb565b94610ba3866119e4565b526127109360005b84516000198101908111610a1957811015610cf6576001600160a01b03610bd282876119f1565b5116600182018211610a1957610c20906001600160a01b03610bf760018501896119f1565b5116907f00000000000000000000000000000000000000000000000000000000000000006115af565b9190610c2c828a6119f1565b518015610cb15781151580610ca8575b610c45906117f9565b888c810311610a1957610c68610c61610c6e928e8c0390611901565b9485611901565b916118a6565b908382018211610a19578184810110610a2f57610ca393610c9092019061158f565b610c9d600183018a6119f1565b52611b1d565b610bab565b50831515610c3c565b60405162461bcd60e51b815260206004820152601960248201527f496e73756666696369656e7420696e70757420616d6f756e74000000000000006044820152606490fd5b508591889188610d11670de0b6b3a7640000610841876119e4565b84516001101561090457610d35670de0b6b3a764000060408701510461084b611a2a565b8451600019810191908211610a1957610d51610d5992876119f1565b511015611a50565b610d8d604051610d68816110f5565b6013815272383932b830b932903a37903a3930b739b332b960691b602082015261153f565b841561090457610d9c81611a9c565b610da582611a9c565b90866001101561090457610df490610deb6020850193610dc485611a9c565b907f0000000000000000000000000000000000000000000000000000000000000000611377565b6108de886119e4565b6001600160a01b0390602482610e0985611a9c565b16916020610e22610e1987611a9c565b610dc484611a9c565b9360405193848092886370a0823160e01b988984521660048301525afa91821561039957600092610f64575b50602460209293610e7686610e6285611a9c565b1693610dc4610e708a611a9c565b91611a9c565b92604051968794859384521660048301525afa91821561039957600092610f26575b5091610900966108e76108ee93610ed5610efc989796604051610eba816110f5565b60098152683130b630b731b2981d60b91b60208201526117b4565b604051610ee1816110f5565b60098152683130b630b731b2989d60b91b60208201526117b4565b6108f4604051610f0b816110f5565b60098152687377617020646f6e6560b81b602082015261153f565b9493929091506020853d602011610f5c575b81610f4560209383611143565b8101031261010d5793519293919290610900610e98565b3d9150610f38565b91506020823d602011610f91575b81610f7f60209383611143565b8101031261010d579051906024610e4e565b3d9150610f72565b3461010d57602036600319011261010d57610fb261108e565b600435600355005b600435906001600160a01b038216820361010d57565b602435906001600160a01b038216820361010d57565b9060a060031983011261010d57600435916024359160443567ffffffffffffffff9283821161010d578060238301121561010d57816004013593841161010d5760248460051b8301011161010d5760240191906064356001600160a01b038116810361010d579060843590565b6020908160408183019282815285518094520193019160005b82811061107a575050505090565b83518552938101939281019260010161106c565b6000546001600160a01b031633036110a257565b60405163118cdaa760e01b8152336004820152602490fd5b156110c157565b60405162461bcd60e51b815260206004820152600c60248201526b151a5b5948195e1c1a5c995960a21b6044820152606490fd5b6040810190811067ffffffffffffffff82111761111157604052565b634e487b7160e01b600052604160045260246000fd5b6060810190811067ffffffffffffffff82111761111157604052565b90601f8019910116810190811067ffffffffffffffff82111761111157604052565b919082519283825260005b848110611191575050826000602080949584010152601f8019910116010190565b602081830181015184830182015201611170565b6000919082916111f560405180926111d6602083019563319af33360e01b8752604060248501526064840190611165565b6001600160a01b0391909116604483015203601f198101835282611143565b51906a636f6e736f6c652e6c6f675afa50565b9081602091031261010d5751801515810361010d5790565b6040516323b872dd60e01b60208083019182526001600160a01b0394851660248401529490931660448201526064808201959095529384529192601f1992919061126b608482611143565b600092839283809351925af1913d1561134f573d67ffffffffffffffff811161133b576112a28560405193601f8401160183611143565b81528091843d92013e5b8161130b575b50156112bb5750565b6084906040519062461bcd60e51b825260048201526024808201527f5472616e7366657248656c7065723a205452414e534645525f46524f4d5f46416044820152631253115160e21b6064820152fd5b80518015925083908315611323575b505050386112b2565b6113339350820181019101611208565b38828161131a565b634e487b7160e01b83526041600452602483fd5b505060606112ac565b9081602091031261010d57516001600160a01b038116810361010d5790565b6113866113b9936020936113f3565b60405163e6a4390560e01b81526001600160a01b0392831660048201529116602482015292839190829081906044820190565b03916001600160a01b03165afa908115610399576000916113d8575090565b6113f0915060203d8111610464576104568183611143565b90565b90916001600160a01b039182841683821680821461145657101561145157925b9183161561141d57565b60405162461bcd60e51b815260206004820152600c60248201526b5a65726f206164647265737360a01b6044820152606490fd5b611413565b60405162461bcd60e51b81526020600482015260116024820152704964656e746963616c206164647265737360781b6044820152606490fd5b1561149657565b60405162461bcd60e51b8152602060048201526015602482015274125b9cdd59999a58da595b9d081048185b5bdd5b9d605a1b6044820152606490fd5b156114da57565b60405162461bcd60e51b8152602060048201526015602482015274125b9cdd59999a58da595b9d081088185b5bdd5b9d605a1b6044820152606490fd5b60008091604051602081019163f5b1bba960e01b83526024820152602481526111f581611127565b600080916040516111f58161156d602082019463104c13eb60e21b8652602060248401526044830190611165565b03601f198101835282611143565b51906001600160701b038216820361010d57565b8115611599570490565b634e487b7160e01b600052601260045260246000fd5b919060409261166f8451936115c3856110f5565b601385526115ed6020957233b2ba3a34b733903932b9b2b93b32b997171760691b8782015261153f565b836115f882826113f3565b5093611621828951611609816110f5565b60078152663a37b5b2b7209d60c91b8a8201526111a5565b611648838951611630816110f5565b60078152663a37b5b2b7211d60c91b8a8201526111a5565b610313858951611657816110f5565b60078152663a37b5b2b7181d60c91b8a8201526111a5565b9061169582865161167f816110f5565b60058152643830b4b91d60d91b878201526111a5565b8451630240bc6b60e21b8152936001600160a01b03926060908690600490829087165afa9485156117a9576000908196611750575b5083929161173e916001600160701b03809116971697683932b9b2b93b32989d60b91b8151916116f9836110f5565b60098352683932b9b2b93b32981d60b91b84840152611724670de0b6b3a764000093848c04906117b4565b519261172f846110f5565b600984528301528804906117b4565b1691161460001461174c5791565b9091565b95506060863d82116117a1575b8161176a60609383611143565b8101031261179e5761177b8661157b565b908761178884890161157b565b97015163ffffffff81160361179e5750836116ca565b80fd5b3d915061175d565b86513d6000823e3d90fd5b6000919082916111f560405180926117e560208301956309710a9d60e41b8752604060248501526064840190611165565b90604483015203601f198101835282611143565b1561180057565b60405162461bcd60e51b8152602060048201526016602482015275496e73756666696369656e74206c697175696469747960501b6044820152606490fd5b801561186b576113f09261185d9183151580611862576109c1906117f9565b61158f565b508115156109b8565b60405162461bcd60e51b8152602060048201526013602482015272125b9cdd59999a58da595b9d08185b5bdd5b9d606a1b6044820152606490fd5b906127109182810292818404811482151715610a19578304036118c557565b60405162461bcd60e51b815260206004820152601460248201527364732d6d6174682d6d756c2d6f766572666c6f7760601b6044820152606490fd5b600092918015918215611918575b5050156118c557565b80820294509150811582850482141715610a1957611936908461158f565b14388061190f565b60008091604051602081019163161765e160e11b835260018060a01b03166024820152602481526111f581611127565b67ffffffffffffffff81116111115760051b60200190565b92916119918261196e565b9161199f6040519384611143565b829481845260208094019160051b810192831161010d57905b8282106119c55750505050565b81356001600160a01b038116810361010d5781529083019083016119b8565b8051156109045760200190565b80518210156109045760209160051b010190565b60405190611a12826110f5565b600982526830b6b7bab73a24b71d60b91b6020830152565b60405190611a37826110f5565b600a82526930b6b7bab73a27baba1d60b11b6020830152565b15611a5757565b60405162461bcd60e51b815260206004820152601a60248201527f496e73756666696369656e74206f757470757420616d6f756e740000000000006044820152606490fd5b356001600160a01b038116810361010d5790565b15611ab757565b60405162461bcd60e51b815260206004820152600c60248201526b092dcecc2d8d2c840e0c2e8d60a31b6044820152606490fd5b90611af58261196e565b611b026040519182611143565b8281528092611b13601f199161196e565b0190602036910137565b6000198114610a195760010190565b909392907f00000000000000000000000000000000000000000000000000000000000000009060005b86516000198101908111610a1957811015611d7e576001600160a01b0380611b7d838a6119f1565b5116906001830190818411610a195780611b97838c6119f1565b51169260409282845195611baa876110f5565b60188752611bde6020977f696e70757420616e64206f7574707574206164647265737300000000000000008982015261153f565b611be78461193e565b611bf08161193e565b81611c0f611bfe83876113f3565b5094611c098661193e565b8b6119f1565b5193611c27670de0b6b3a7640000860461084b611a2a565b168403611d7157611c7290600093945b611c6c8851611c45816110f5565b6016815275707265706172696e6720746f2073776170206865726560501b8b82015261153f565b8b611377565b855191169367ffffffffffffffff918781018381118282101761111157875260008152853b1561010d57611cde95600092838f8f8b519a8b96879586946322dd8a7f60e11b865260049c8d87015260249d8e87015216604485015260a0606485015260a4840190611165565b90608483015203925af18015611d6657611d2f575b50505050611d2a9291697377617020646f6e652160b01b611d25925191611d19836110f5565b600a835282015261153f565b611b1d565b611b55565b8311611d53575050815281697377617020646f6e652160b01b611d25611d2a611cf3565b604190634e487b7160e01b600052526000fd5b85513d6000823e3d90fd5b600093611c729190611c37565b5050505050905056fea2646970667358221220465101082471931fa99439252d7cf83be574f3fbb13ef127a2105adc7a319b2c64736f6c63430008140033",
    "linkReferences": {}
  },
  "methodIdentifiers": {
    "addLiquidity(address,address,uint256,uint256,uint256,uint256,address,uint256)": "e8e33700",
    "factory()": "c45a0155",
    "owner()": "8da5cb5b",
    "removeLiquidity(address,address,uint256,uint256,uint256,address,uint256)": "baa2abde",
    "renounceOwnership()": "715018a6",
    "setSwapFee(uint256)": "34e19907",
    "swapExactTokensForTokens(uint256,uint256,address[],address,uint256)": "38ed1739",
    "swapTokensForExactTokens(uint256,uint256,address[],address,uint256)": "8803dbee",
    "transferOwnership(address)": "f2fde38b"
  },
  "id": 56
}